:100000000C9462010C9481010C9481010C94810187
:100010000C9481010C9481010C9481010C94810158
:100020000C9481010C9481010C9481010C94810148
:100030000C9481010C9481010C9481010C94810138
:100040000C94C2530C9481010C9481010C94810195
:100050000C9435540C94BD4A0C9481010C9481018C
:100060000C9481010C9408480C9481010C94FC4779
:100070000C9481010C9481010C9481010C948101F8
:100080000C941C5A0C9481010C9481010C948101F4
:100090000C9446480C9481010C943A480C948101CC
:1000A0000C9481010C9481010C9481010C948101C8
:1000B0000C9481010C9481010C9481010C948101B8
:1000C0000C9481010C9481010C94810152504C2DAF
:1000D000426F7264657220726F75746572207374FA
:1000E00061727465640A006372656174656420619D
:1000F000206E65772052504C206461670A00496E7B
:100100006974696174696E6720676C6F62616C20E5
:100110007265706169720A00536572766572204972
:10012000507636206164647265737365733A0A00B1
:1001300020000A005355543A2025750A00736C6953
:10014000702D6272696467653A2044657374696EE4
:100150006174696F6E206F66662D6C696E6B2062CC
:100160007574206E6F20726F757465207372633DB5
:1001700000206473743D000A0053494E3A202575EF
:100180000A00476F7420636F6E66696775726174E9
:10019000696F6E206D657373616765206F6620748B
:1001A0007970652025630A0053657474696E672051
:1001B00070726566697820000A00476F7420726566
:1001C0007175657374206D657373616765206F6603
:1001D00020747970652025630A003A3A003A0025B8
:1001E00078003A002530327800436F6E74696B698D
:1001F00020322E3520737461727465642E204E6F28
:1002000064652069642025750A004D41432025302E
:1002100032783A253032783A253032783A25303201
:10022000783A253032783A253032783A25303278AB
:100230003A253032780A0025732025732C20636814
:10024000616E6E656C20636865636B2072617465B6
:1002500020256420487A2C20726164696F206368CD
:10026000616E6E656C2025640A0054656E7461745D
:10027000697665206C696E6B2D6C6F63616C2049CB
:1002800050763620616464726573732000253032C5
:1002900078253032783A0025303278253032780AA5
:1002A0000052696D652073746172746564207769AA
:1002B00074682061646472657373200025642E0085
:1002C00025640A0011241FBECFEFD1E2DEBFCDBFEF
:1002D00017E0A0E0B2E0E4E1F3EC00E00BBF02C005
:1002E00007900D92A436B107D9F71DE1A4E6B7E057
:1002F00001C01D92A739B107E1F70E94A85C0C94D8
:1003000088610C9400005F926F927F928F929F920F
:10031000AF92BF92CF92DF92EF92FF920F931F9313
:10032000CF93DF934C01C0E0D0E000E010E08DE916
:10033000A82E85E0B82E90E8692E712C2AE3522E63
:1003400001C0E901F401E00FF11FD080C12C8181CF
:100350009601280F311D21153105F1F4D7FD1CC080
:100360009E012F5F3F4FCD2B09F052C08091640753
:1003700090916507A301481B590B4230510508F4C1
:1003800047C0FC01EA59F84F50825182029690937F
:100390006507809364073CC01C161D06A4F0011578
:1003A000110599F080916407909165078038910557
:1003B00060F4FC01EA59F84F50820196909365076A
:1003C0008093640702C0CFEFDFEFE0906407F09006
:1003D00065073F932F93BF92AF92C3018E199F0978
:1003E0009F938F93C7018A59984F9F938F930E9431
:1003F0001E5E8E0D9F1D90936507809364078DB7D9
:100400009EB708960FB6F8949EBF0FBE8DBF9E0193
:100410000E5F1F4F0031110509F093CFDF91CF918F
:100420001F910F91FF90EF90DF90CF90BF90AF9012
:100430009F908F907F906F905F900895DF92EF92E2
:10044000FF920F931F93CF93DF93EC01898D9A8DC9
:100450008238910509F4BFC050F482379105C1F08C
:100460008B37910509F46AC0892B71F0D5C18339A6
:10047000910509F4ABC18739910509F4C2C18E38E1
:10048000910509F0C9C16FC182E790E09A8F898F09
:1004900043E350E060EA75E0CE0149960E94C42E25
:1004A000823014F480E0BBC164ED75E086E697E02D
:1004B0000E94D15D82E190E090936507809364078C
:1004C0001092E7071092E60759C04EE2429FC00122
:1004D000439F900D1124FC01EF52F54E2081222301
:1004E00009F443C08E52954E0E9483010091640727
:1004F000109165078EE096E09F938F9320E830E09F
:10050000201B310B3F932F93C8018A59984F9F931B
:100510008F930E941E5E800F911F909365078093BA
:1005200064070F900F900F900F900F900F908435ED
:100530009105D8F08BE790E09A8F898FE6E6F7E097
:10054000DF010D900020E9F7AD01415051094E1B2C
:100550005F0BBF01CE0149960E94C42E82300CF47D
:10056000A1CF10926507109264078091E6079091E1
:10057000E70701969093E7078093E6072091E60747
:100580003091E707253031050CF49FCF00916407C7
:100590001091650787EE95E09F938F9320E830E0F8
:1005A000201B310B3F932F93C8018A59984F9F937B
:1005B0008F930E941E5E800F911F9093650780931A
:1005C000640782E890E09A8F898F0F900F900F90C8
:1005D0000F900F900F90E6E6F7E0DF010D900020FE
:1005E000E9F7AD01415051094E1B5F0BBF01CE0130
:1005F00049960E94C42E82300CF454CF10926507A5
:10060000109264071092E7071092E607CCC04EE202
:10061000D42ED29EC001D39E900D1124FC01E9542A
:10062000F44E2081222309F4B5C08854944E0E94D0
:10063000830100916407109165078091E60790910E
:10064000E707D89EF001D99EF00D1124E954F44E2D
:1006500081891F928F9387EF95E09F938F9330E866
:10066000E32EF12CC701801B910B9F938F93C80140
:100670008A59984F9F938F930E941E5E800F911FFF
:1006800090936507809364072091E6073091E70710
:10069000D29EC001D39E900D11248653944E0E9489
:1006A00083018091E6079091E707D89EF001D99EDB
:1006B000F00D1124E954F44E43A154A165A176A193
:1006C0008DB79EB708960FB6F8949EBF0FBE8DBF2C
:1006D0000091640710916507483592E0590761055C
:1006E000710510F57F936F935F934F9381E096E0D0
:1006F0009F938F93E01AF10AFF92EF92C8018A59F3
:10070000984F9F938F930E941E5E800F911F90932E
:10071000650780936407ADB7BEB71A960FB6F89415
:10072000BEBF0FBEADBF1BC08DE096E09F938F9301
:10073000E01AF10AFF92EF92C8018A59984F9F93ED
:100740008F930E941E5E800F911F90936507809388
:1007500064070F900F900F900F900F900F908EE8FE
:1007600090E09A8F898FE6E6F7E0DF010D90002098
:10077000E9F7AD01415051094E1B5F0BBF01CE019E
:1007800049960E94C42E82300CF48CCE10926507DC
:10079000109264078091E6079091E7070196909385
:1007A000E7078093E6072091E6073091E7072530B9
:1007B00031050CF42CCF80916407909165071816D1
:1007C0001906DCF483E990E09A8F898FE6E6F7E07A
:1007D000DF010D900020E9F7AD01415051094E1B9A
:1007E0005F0BBF01CE0149960E94C42E82300CF4EB
:1007F00059CE109265071092640787E990E09A8FAE
:10080000898F4FE050E064E176E0CE0149960E9486
:10081000C42E82300CF446CE1A8E198E83E0DF91FE
:10082000CF911F910F91FF90EF90DF9008958EE18F
:1008300092E008958FE380935B1680E580935C16C9
:1008400082E090E090934C1680934B160E94154DD9
:1008500010924C1610924B1608959F92AF92BF9231
:10086000CF92DF92EF92FF920F931F93CF93DF937C
:10087000EC0188819981853D910509F4A6C018F4A1
:10088000892B51F09CC0833E910509F4ADC0873F90
:10089000910509F094C0B0C01092F80740E050E014
:1008A00065E88091410C9091420C0E94311885EDD1
:1008B00090E06FC060E870E089EF97E00E94021B53
:1008C0000E941A0483EE90E064C08091F8078823A8
:1008D00089F38AE092E00E94280C009771F040E4CE
:1008E00050E068EE77E00E94F80987EE90E09F9371
:1008F0008F930E94F55D0F900F9088E191E09F9398
:100900008F930E94F55D58E7E52E59E1F52E0F9083
:100910000F9000E010E060E3A62E61E0B62E71E2D9
:10092000972EE2E3CE2EE1E0DE2EF7018081719773
:1009300090819923B9F08230A8F4BF92AF920E94BF
:10094000F55D909EC001919E900D11248859964EA0
:100950000E94581DDF92CF920E94F55D0F900F907C
:100960000F900F900F5F1F4FF1E2EF0EF11C03305D
:100970001105D9F6E091E602F091E70281E090E0FE
:10098000099560E075E081E098E00E94021B87EF26
:1009900090E09983888317C08EEF90E09F938F93A8
:1009A0000E94F55D8FEF9FEF0E94F90B0E94920C61
:1009B00081E098E00E940C1B0F900F90E8CF198205
:1009C000188283E020C081E01EC060E070E084E710
:1009D00092E00E9467188CEC90E09F938F930E94A6
:1009E000F55D0F900F9071CF89EF97E00E94291B62
:1009F000892B09F06ACFE7CF81E098E00E94291B9C
:100A0000892B29F2C9CFDF91CF911F910F91FF90D0
:100A1000EF90DF90CF90BF90AF909F900895CF93CD
:100A2000DF93CDB7DEB760970FB6F894DEBF0FBE89
:100A3000CDBF20E1FC01A8EEB7E001900D922A9510
:100A4000E1F720E1FC01DE01119601900D922A955B
:100A5000E1F781E08093F80763E576E1CE01019646
:100A60000E94BD4421E040E050E0BA01CE01019671
:100A70000E94D34260960FB6F894DEBF0FBECDBF82
:100A8000DF91CF91089560E072EC81E090E00E94E8
:100A9000104E60E070E086EA92E00E94671883E5FD
:100AA00095E00C94104D0F931F93CF93DF93CDB728
:100AB000DEB760970FB6F894DEBF0FBECDBF809152
:100AC0004C168F9380914B168F9389E791E09F93FB
:100AD0008F930E94F55D80915B160F900F900F90A1
:100AE0000F908132F1F580915C161F928F9382E80E
:100AF00091E09F938F930E94F55D10924C16109297
:100B00004B160F900F900F900F9080915C168035D0
:100B100009F06BC08E010F5F1F4F80E1D8011D925D
:100B20008A95E9F788E0EDE5F6E1D80101900D92AC
:100B30008A95E1F788EA91E09F938F930E94F55D93
:100B4000C8010E94581D88EB91E09F938F930E94EB
:100B5000F55DC8010E940F050F900F900F900F9048
:100B600044C08F3309F041C080915C161F928F936F
:100B70008AEB91E09F938F930E94F55D0F900F9009
:100B80000F900F9080915C168D3459F581E280931F
:100B90005B1663E576E1EEE5F6E1DB018D91BD01E3
:100BA000AF0141505109282F22952F7030E0265C6B
:100BB000394FD9019C91DA019C938F7090E0865C4B
:100BC000994FDC018C9180833296B6E16B357B07BF
:100BD00021F782E190E090934C1680934B160E948F
:100BE000154D10924C1610924B1680E1E3E6F6E19B
:100BF000AAE0B8E001900D928A95E1F760960FB6F1
:100C0000F894DEBF0FBECDBFDF91CF911F910F9142
:100C1000089540E150E063E676E18AE098E00E94C2
:100C2000A25D009709F58DE391E09F938F930E9459
:100C3000F55D83E696E10E94581D81E791E09F9360
:100C40008F930E94F55D83E796E10E94581D87E728
:100C500091E09F938F930E94F55D0F900F900F90FE
:100C60000F900F900F90089580914C168F93809164
:100C70004B168F9384E391E09F938F930E94F55DD1
:100C80000F900F900F900F900C94154DCF93DF9312
:100C9000EC0180910908811109C080EC0E94FF4895
:100CA0008DE00E94FF4881E0809309088C2F0E940C
:100CB000FF48CA30D10529F480EC0E94FF48109209
:100CC0000908CE01DF91CF910895EF92FF920F9323
:100CD0001F93CF93DF93EC018C819D818D3991051A
:100CE00081F018F4892B49F086C0823A910509F108
:100CF0008A3B910509F07FC05CC08DE990E09D833F
:100D00008C8360E2CE0104960E948C2F823014F412
:100D100080E074C044E050E060E475E0CE01C0962D
:100D20000E94D85D009709F011C082EA90E09D838F
:100D30008C837E0184E0E80EF11C60E2C7010E9412
:100D40008C2F82302CF388A98F3239F080E1809388
:100D50004B171D821C8282E051C089A98E0102536B
:100D60001F4F803229F440E550E069EE74E00CC07A
:100D7000C7010E94702F8C0F9D1FFC0117A6BE019A
:100D8000605D7F4F40E550E0C8010E94E65DBE0116
:100D900062537F4F80915217909153170E94FA47E8
:100DA000FE01E05EFE4F81E080838AEB90E09D8350
:100DB0008C837E01F4E0EF0EF11C6AE0C7010E9413
:100DC0008C2F82300CF4A4CF8E01005D1F4F48E0C1
:100DD00050E066ED74E0C8010E94D85D009729F7E5
:100DE000C7010E94702F8C0F9D1FFC0116A6C80121
:100DF0000E94FB47DACF1D821C8283E0DF91CF91F6
:100E00001F910F91FF90EF900895CF93DF93EC0126
:100E1000898D9A8D8436910549F087379105D9F0EF
:100E2000892B59F584E690E09A8F898FDB010D902C
:100E30000020E9F7AD0141505109461B570BCE0187
:100E400049960E94C42E823014F480E019C087E7CE
:100E500090E09A8F898FEAEEF3E0DF010D90002099
:100E6000E9F7AD01415051094E1B5F0BBF01CE01A7
:100E700049960E94C42E823044F31A8E198E83E064
:100E8000DF91CF9108950F931F93CF93DF93EC01E0
:100E90008EA59FA58A389105D1F138F4009771F09D
:100EA0008838910509F07AC025C08039910509F488
:100EB00059C08139910509F071C05FC08E01025E91
:100EC0001E4FD8011D921C92CE0181539F4F0E944C
:100ED0001704F80191838083892B09F03FC06BE4EC
:100EE00076E0CE0182539F4F0E94D15D88E890E06A
:100EF0009FA78EA763E274E0CE010E9405078230AF
:100F000014F480E04EC08AE890E09FA78EA7898DF8
:100F10009A8D009721F08835910579F404C088E511
:100F200090E09A8F898F48E550E06AE576E0CE013F
:100F300049960E94C42E823024F31A8E198E80E1C5
:100F400080934B1763EB76E0809152179091531783
:100F50000E94FA471FA61EA682E023C080E990E007
:100F60009FA78EA760E874E0CE010E94050782303B
:100F700044F281E990E09FA78EA78E01025E1E4F8A
:100F8000D801ED91FC91CE01099582300CF4B9CFD6
:100F9000F8011182108280E180934B171FA61EA6D4
:100FA00083E0DF91CF911F910F9108950F931F93CD
:100FB000CF93DF93EC0180914B17982F907311F42E
:100FC00087FF11C0209709F485C0FE01E25EFE4F45
:100FD00011821082BE018AE192E0DF91CF911F91D0
:100FE0000F910C94E31886FF40C08AE192E00E94C2
:100FF000BD18EC018091521790915317209759F426
:1010000020E220934B1763EC76E0DF91CF911F91A4
:101010000F910C94FA47BE010E94FC2B8E01005DDB
:101020001F4F4DE650E0B801CE0104960E94F53006
:101030004DE650E0B801CE0149960E94F5301FA65A
:101040001EA6FE01E25EFE4F118210828E01005E3E
:101050001E4FF801108260E075E0CE010E94241955
:10106000CE010E946506F80128C0209781F183FF18
:101070001BC0CE010E944419892BC9F080E28093E5
:101080004B17FE01E25EFE4F11821082BE018AE123
:1010900092E00E94E3186BED76E0809152179091F8
:1010A00053170E94FA4703C0CE010E943A19CE019D
:1010B0000E946506FE01E05EFE4F8081813051F4A2
:1010C000CE01DF91CF911F910F910C94430780E2E5
:1010D00080934B17DF91CF911F910F91089580E07E
:1010E00090E50E94DF2B8AE192E00C949E18E0913B
:1010F000EE02F091EF020994E0919105F0919205D2
:101100000994E0919305F09194050994E091950577
:10111000F0919605309709F0099480E090E00895E9
:10112000EF92FF920F931F93CF93DF938C017B017C
:1011300080915E0A90915F0A9C012F5F3F4F309330
:101140005F0A20935E0A9093301680932F1661E811
:1011500075E083E096E10E945454892B09F04FC05A
:1011600082E292E00E94BD18EC01009709F447C0AA
:101170000E94A41F9B838A83892BE1F180912D1605
:1011800090912E16009709F483E0898718861A86B5
:101190001B861D830C83FF82EE828091371690910F
:1011A0003816BE01019729F480E69AE00E94C8191A
:1011B00004C080E69AE00E94DC1980E69AE00E9472
:1011C000F5191816190644F582E69AE00E94951C56
:1011D000892B11F120E030E04AE159E060E070E055
:1011E00082E69AE0DF91CF911F910F91FF90EF90EF
:1011F0000C94FA1BBE0182E292E00E94E318E09197
:101200008D05F0918E05B701C801DF91CF911F9137
:101210000F91FF90EF900994DF91CF911F910F9163
:10122000FF90EF90089582E292E00E949E18109243
:10123000720A0895CF93DF938091720A811118C0CA
:1012400080E69AE00E947219EC01009789F08A8189
:101250009B810E94FF1F81E08093720AE0918D05BF
:10126000F0918E05BE0180E799E0DF91CF9109945E
:10127000DF91CF910895CF93DF9380E69AE00E94AB
:101280007219EC01009749F18A819B810E94E11F4C
:10129000BE0180E69AE00E94AD19BE0182E292E0B2
:1012A0000E94E31880E69AE00E94F51918161906C4
:1012B000A4F4E0919505F09196050995009711F435
:1012C00080E290E020E030E04AE159E0BC0182E6B3
:1012D0009AE0DF91CF910C94FA1BDF91CF910895A2
:1012E0008F929F92AF92BF92CF92DF92EF92FF9236
:1012F0000F931F93CF93DF93EC018B011092720A2F
:101300006130710581F024F46115710541F012C05E
:101310006230710521F06330710561F408C0888581
:101320008F5F888707C08A858F5F8A8703C08B8518
:101330008F5F8B87CC80DD80AE80BF809884C801B2
:101340000197029708F03FC0E0919505F09196054E
:1013500009957C01009719F480E2E82EF12C88842D
:101360000E94561D38852985321768F5282D30E0F2
:101370002F5F3F4F2430310514F023E030E0E29E30
:10138000B001E39E700DF29E700D11240E94065D67
:101390008E0D9F1D20E030E04AE159E0BC0182E65D
:1013A0009AE00E94FA1B8A819B81DF91CF911F9165
:1013B0000F91FF90EF90DF90CF90BF90AF909F90F4
:1013C0008F900C94DA1F0E943B09292D30E0A80170
:1013D000B501C601DF91CF911F910F91FF90EF9062
:1013E000DF90CF90BF90AF909F908F900C94E3547C
:1013F0000F931F93CF93DF938C01EA01413851057E
:101400002CF5FC01E25AFF4F80E1DF011D928A9525
:10141000E9F7495F5F4F57FF03C0AE01425F5F4F7F
:10142000CA0123E0959587952A95E1F7AC01CF0194
:101430000E94AF5DF801EE58FF4FC083F801ED58F0
:10144000FF4F80E4808321E030E002C020E030E004
:10145000C901DF91CF911F910F9108950F931F93B1
:10146000CF93DF93EC018B01898D9A8D009711F05A
:101470000E94224101151105A1F02EA53FA5ADA5A1
:10148000B0E00E94EF5CAB01BC01C8010E94D340F8
:101490009A8F898F21E030E0892B29F420E030E019
:1014A00002C021E030E0C901DF91CF911F910F917F
:1014B00008951F93CF93DF93182F8091ED0A88230F
:1014C00039F08091610B81111EC0C5E3DBE002C0E1
:1014D000C1ECDAE084E7FE0111928A95E9F7CE01CA
:1014E000865A9F4FFE01E45AFF4F918380830E94EA
:1014F0006E1918A31A8E198E8FEF9FEF9C8F8B8F0A
:101500009E8F8D8F02C0C0E0D0E0CE01DF91CF91E1
:101510001F910895CF92DF92EF92FF920F931F9346
:10152000CF93DF938C017B016A018AE292E00E94F3
:10153000BD18EC01009719F1DC011B9680E1F60162
:1015400001900D928A95E1F71B830A83F701828946
:1015500093899C8F8B8F80E58D8F1E8EDE01149674
:10156000E05BFF4F87E001900D928A95E1F7F8016B
:10157000E45AFF4FBE01808191810E94DC19CE01A7
:10158000DF91CF911F910F91FF90EF90DF90CF905F
:1015900008950F931F93CF93DF938B01845A9F4F2E
:1015A000FC01808191810E947219EC010CC040E124
:1015B00050E0B801CE010B960E94A25D009729F081
:1015C0000990D881C02D209791F7CE01DF91CF915E
:1015D0001F910F910895EF92FF920F931F93CF9356
:1015E000DF938C01EB017B018BE0E80EF11CC7015E
:1015F0000E949244C7010E942741009729F00E944F
:101600002241F801128E118EF801E85AFF4F8081B5
:101610009181C817D90711F411821082F801E45A98
:10162000FF4FBE01808191810E94AD19BE018AE207
:1016300092E00E94E31880E090E0DF91CF911F914B
:101640000F91FF90EF9008950F931F93CF93DF9327
:10165000EC01FC01E45AFF4F808191810E947219D4
:10166000BC0107C0FB0100811181CE010E94EB0A81
:10167000B80161157105B1F7DF91CF911F910F91FD
:101680000895CF93DF93EC010E949C56CE010E94F7
:10169000240B60E070E0CE010E942E0ACE01C896B5
:1016A0000E947E1CCE01885B9F4F0E947E1C1CA660
:1016B00018AADF91CF910895CF92DF92EF92FF9217
:1016C0000F931F93CF93DF93EC01FC01E45AFF4F7C
:1016D000808191810E9472197C0100E010E018C0A5
:1016E000D7015B968D919C915C97019671F00115E5
:1016F000110551F0EF81F8850480F581E02DB701E7
:10170000C80109958C0101C08701F701E080F180D3
:10171000E114F10429F70115110509F460C07E01F7
:10172000F8E5EF0EF11CD7018D919C918017910780
:10173000E9F060E00E945D11F70111830083EF8101
:10174000F8850084F185E02DCE010995B801655F2B
:101750007F4FCE010E942E0A8BA1882319F0CE0163
:101760000E94261661E0CE010E941816EF81F885CE
:101770000680F781E02D60E070E0C80109959C8F3C
:101780008B8FED8DFE8D8E179F0718F49E8F8D8F9A
:1017900026C0D8015B968D919C915C978F3FBFEFDF
:1017A0009B07A1F0E8A4F9A4E114F104C1F02AA573
:1017B0003BA5B9010E94065D6B01C7018E0F9F1FFB
:1017C000B9010E94065D6C157D0548F460E0C80112
:1017D0000E945D11CE010E94240B00E010E0C801C0
:1017E000DF91CF911F910F91FF90EF90DF90CF90FD
:1017F00008952091F10A222351F08F3F2FEF920795
:10180000A9F02091E10A30E02817390779F02091FA
:10181000650B2223C9F08F3F2FEF920751F02091E3
:10182000550B30E02817390779F403C080E090E0C9
:1018300002C081E090E044E7489F9001499F300D4D
:1018400011242F53354F02C020E030E0C901089524
:10185000EF92FF920F931F93CF93DF937C0180E071
:1018600090E00E94F90B009729F0FC0101A10E9471
:10187000410B02C00FEF1FEF80E00E94590AEC01FC
:101880000097D1F121E028AB0F5F09A31AA282E0F3
:101890008BA382E392E098878F83FE01E85AFF4F83
:1018A000118210822F8FDE01199680E1F7010190DD
:1018B0000D928A95E1F788E08DA38CE08EA38AE0F3
:1018C0008FA380E093E099A788A780E091E09BA791
:1018D0008AA72FEF2DA72FEF3FEF3FA72EA79C8FB3
:1018E0008B8FEF81F8850084F185E02DCE0109957D
:1018F00061E0CE010E941816CE01DF91CF911F91B9
:101900000F91FF90EF90089520913C0230913D029D
:101910002817390719F422E332E002C020E030E052
:10192000C9010895FC01238D348D82A593A5281744
:10193000390761F481A18F5F81A381E0878F61E026
:10194000CF010E94181621E030E002C020E030E014
:10195000C9010895CF93DF93EC018FEF9FEF9C8F28
:101960008B8FCE010E94240B61E0CE01DF91CF91DD
:101970000C941816EF92FF920F931F93CF93DF935F
:10198000EC01FB01038D148DEB8CFC8C0E945C0B35
:10199000892B21F4CE010E94AA0C43C0EAA5FBA525
:1019A0002B8D3C8DC701BF010E94065D7B01C901E3
:1019B000BF010E94065DE616F70659F08D8D9E8DDB
:1019C0002817390710F43E8F2D8F61E0CE010E9459
:1019D00018160F3FFFEF1F0719F420E030E023C077
:1019E000EF81F8850680F781E02DB80180E090E076
:1019F00009958F3F2FEF920781F3E8A5F9A530975E
:101A000081F02AA53BA5B9010E94065D8B018D8D51
:101A10009E8D8E0F9F1FB9010E94065D6017710792
:101A2000E0F221E030E0C901DF91CF911F910F91E9
:101A3000FF90EF900895CF93DF938FEF9FEF0E9479
:101A4000F90BEC010097C1F0FC01E45AFF4F8081D3
:101A500091810E947219FC010DC0878D882339F095
:101A6000178EBF01CE01DF91CF910C94BA0C01907B
:101A7000F081E02D309789F7DF91CF9108956F9233
:101A80007F928F929F92AF92BF92CF92DF92EF920E
:101A9000FF920F931F93CF93DF93CDB7DEB760977D
:101AA0000FB6F894DEBF0FBECDBF5C017B01DB013A
:101AB00055968C91823009F02FC2FB01D08C8D2D70
:101AC00090E00E94F90B8C01009709F0D4C0D70177
:101AD00052962D913C9153972F3F3F4F09F41CC2D2
:101AE0008D2D0E94590A8C01009709F415C2A50199
:101AF000B7010E948A0A6C01009709F40DC2F70130
:101B0000808991890E94840C4C01009709F404C2D9
:101B1000F701E15BFF4F808186FF1DC080E1F70187
:101B2000FA96DE01119601900D928A95E1F763E530
:101B300076E1CE0101960E94BD44CE0101960E943D
:101B40002142892B41F421E040E050E0BA01CE016E
:101B500001960E94D34281E0D801D0968C93D09711
:101B60009C968C939C9718969C928E921797F7014F
:101B7000848992968C939297858993968C93939768
:101B8000868994968C939497808D90968C93909759
:101B900080A191A199969C938E93989782A193A1ED
:101BA0009B969C938E939A97878991968C933801F4
:101BB000F8E56F0E711CD301CD92DC92D40118961A
:101BC000ED91FC911997C8010995F701828DD80113
:101BD00095968C939597838D96968C939697848DF6
:101BE00097968C939797199680E101900D928A951C
:101BF000E1F7D801A25ABF4FF701FA9686E10190AA
:101C00000D928A95E1F7D8011796ED91FC911897FE
:101C1000D70152966D917C9153970680F781E02D04
:101C2000C6010995F801948F838F968F858FD70110
:101C30005D968C915D9785A75E968D919C915F973F
:101C400097A786A761E0C8010E941816B501C801D0
:101C50000E942E0AF80183A1882309F45DC1D701EF
:101C600059969C91F601868D891708F055C1D301CC
:101C70008D919C9175C040E150E0B70109960E949A
:101C8000A25D009709F048C1F7014789D8019196F4
:101C90008C919197841708F068C05B962D913C91C8
:101CA0005C979A968D919C919B972817390721F400
:101CB0004F5F91964C935BC0C8010E94240BF701C3
:101CC0008789D80191968C93919781E05F968C9348
:101CD0005F971796ED91FC9118970190F081E02D98
:101CE000C8010995A501B701C8010E948A0A6C01C3
:101CF000009731F48FEF9FEFF801948F838F0CC121
:101D0000B501C8010E942E0AD8011796ED91FC91E9
:101D10001897D70152966D917C9153970680F78161
:101D2000E02D80E090E00995F801948F838F968FE5
:101D3000858F61E0C8010E941816D80193968C9196
:101D4000882309F4E9C0F701918DD6015E968C9144
:101D5000891708F0E1C0F801E85AFF4F80819181AE
:101D6000C816D90609F0D8C0D4C0481728F461E0D5
:101D7000C8010E941816D0C0F701828993898F3F4D
:101D8000FFEF9F0729F461E0C8010E94181609C0FF
:101D9000D8019A962D913C919B978217930708F44E
:101DA000BBC0F801238D348D82A593A52817390770
:101DB00061F4D70152968D919C915397019609F445
:101DC000ABC083A98F5F83ABA7C0B501C8010E94D8
:101DD000C90A6C01009709F04CC04801ECE58E0E71
:101DE000911CD4018D919C910E94F5190497C1F525
:101DF000F701C288D388D4018D919C910E947219F9
:101E0000612C712C4801B8E58B0E911C18C0F401AF
:101E1000208131818217930781F06114710461F090
:101E2000DC015B964D915C915C97F301238D348DC1
:101E30002417350708F001C03C010E94121A0097D0
:101E400031F76114710461F0D3015B968D919C911F
:101E50005C97C816D90620F4B301C8010E94EB0AAA
:101E6000A501B701C8010E948A0A6C010097E1F43C
:101E700053C0F80122A533A5DC015B968D919C919E
:101E80005C97B9010E94065DFB01D70152968D91C6
:101E90009C915397B9010E94065DE617F70721F45C
:101EA000F80183A98F5F83ABD6011496F701E05B3D
:101EB000FF4F87E001900D928A95E1F7D701529686
:101EC0008D919C915397F601948F838FB601C80131
:101ED0000E94BA0C892B01F1D80193968C9188232A
:101EE00091F0F701918DD6015E968C91891758F487
:101EF000F801E85AFF4F80819181C816D90619F47C
:101F0000C8010E942616F701818DD6015E968C933A
:101F100003C0C8010E94261660960FB6F894DEBF73
:101F20000FBECDBFDF91CF911F910F91FF90EF902A
:101F3000DF90CF90BF90AF909F908F907F906F90E9
:101F400008950F931F93FB01E80FF91F0381808110
:101F500010E020E030E0382B8181282B8281182B83
:101F6000B801C9011F910F910895FB01E80FF91FF6
:101F700050834183328323830895CF93DF93CDB77A
:101F8000DEB760970FB6F894DEBF0FBECDBFE0910D
:101F9000F210F0E0E957F94E118210820097B1F487
:101FA0008FEF92E09A8389831C821B821E821D829E
:101FB00018861F821A8619861C861B861E861D8619
:101FC00080E09AE1988B8F87CE01019622E030E085
:101FD00040E050E06BE970E00E94403260960FB63E
:101FE000F894DEBF0FBECDBFDF91CF9108958F92E1
:101FF0009F92AF92BF92CF92DF92EF92FF920F9398
:102000001F93CF93DF93CDB7DEB760970FB6F894E9
:10201000DEBF0FBECDBF8C015B01E090F210F12C52
:1020200087E896E1E80EF91ED80190968C9190977A
:10203000F701808391968C91919781835C968C9126
:102040005C9782835B968C915B97838314829296D4
:102050008C91882311F080E88483D80193968C9129
:102060009397880F880F880FF70184835F968C9170
:102070005F978F5F5F968C93858316821782D70157
:102080001896F801399680E101900D928A95E1F752
:10209000D8018C91882309F448C01796ED91FC91E2
:1020A00018970084F185E02DC801099542E0F701F9
:1020B000408F86E0818FD8018C91828F11968C9110
:1020C00011978695838F11968C91B0E88B9FC001F4
:1020D0001124848FF8012281F0E12F9F90011124B7
:1020E000822BD80113969C911397892BF701848F2B
:1020F0008C91873049F4458F16968C911697868F70
:1021000015968C91878F0DC0823009F0C3C0D7011E
:10211000858FF80185815E968C935E9786815F96A8
:102120008C9390E2C92ED12C03C088E1C82ED12C0B
:10213000F701EC0DFD1D84E080838EE08183128227
:10214000D80195968C919597838396968C919697C6
:10215000848397968C919797858399968C9199977C
:10216000868398968C91989787839B968C919B9762
:1021700080879A968C919A97818717968D919C91DA
:102180001897DC011B968C918287D80117968D9148
:102190009C911897DC011A968C9183871486D8013C
:1021A0009D968C919D9785879F968C919F9786870A
:1021B0009E968C9187879601205F3F4FA8014E58CD
:1021C0005F4FDA018C91882309F43FC02E0D3F1D2B
:1021D00088E0D9018C938EE1818BDA018C91828B1E
:1021E000D801AD58BF4F8C91838B4801BEE68B0E52
:1021F000911CF4012081318142815381B6016C5ED2
:102200007F4FC7010E94B50FD4012D913D914D9193
:102210005C91B601685E7F4FC7010E94B50FF70160
:10222000EC0DFD1D148E158E168E178ED601909610
:10223000AE0DBF1DF801E25AFF4F80E101900D92F3
:102240008A95E1F79601205D3F4FA114B104D9F4BE
:102250008FEF92E09A8389831C821B821E821D82EB
:1022600018861F821A8619861C861B861E861D8666
:1022700080E09AE1988B8F8741E050E06BE970E055
:10228000CE01019605C041E050E06BE970E0C50168
:102290000E94403260960FB6F894DEBF0FBECDBFED
:1022A000DF91CF911F910F91FF90EF90DF90CF9032
:1022B000BF90AF909F908F9008950F931F93CF93EF
:1022C000DF93CDB7DEB7A1970FB6F894DEBF0FBE90
:1022D000CDBF8C01A8E7B9E180E090E02C91FD0131
:1022E000719730813323F9F02230E8F4FD017097C3
:1022F00020812E3F99F021E2289FF001299FF00DC7
:102300001124E859F64E80E1DE01119601900D92FC
:102310008A95E1F701151105A9F40BC0FD013F975E
:102320002081203841F70196919683309105B1F6CE
:1023300061C08FEF9FEF69A30E94F90B69A100971D
:1023400021F458C0F801828193812091F21030E08D
:102350002957394E40912D0C4F5F40932D0CFC01B5
:1023600080A1F901808311821282438385E08483F6
:1023700082E18583168280E8878380E1FE013196C1
:10238000D901189601900D928A95E1F786E0F9013E
:10239000808F84E0818F128E138E148E658F0115CD
:1023A0001105A9F48FEF92E09A8B898B1C8A1B8A06
:1023B0001E8A1D8A188E1F8A1A8E198E1C8E1B8EDD
:1023C0001E8E1D8E80E09AE198A38F8F09C080E158
:1023D000F8013B96DE01519601900D928A95E1F746
:1023E0002EE130E042E050E06BE970E0CE01419632
:1023F0000E944032A1960FB6F894DEBF0FBECDBF4B
:10240000DF91CF911F910F910895CF93DF93DB015F
:10241000E091F210F0E0E957F94EEC0188A18083D9
:1024200011824283138224E030E043E050E06BE904
:1024300070E0CD01DF91CF910C9440322F923F920A
:102440004F925F926F927F928F929F92AF92BF92C4
:10245000CF92DF92EF92FF920F931F93CF93DF9370
:10246000CDB7DEB7CE58D1090FB6F894DEBF0FBE98
:10247000CDBF3091F210832F90E0FC01ED57F94E63
:102480002181213031F008F4A0C1223009F0ADC221
:10249000B0C188E08B8F8CE08C8F8AE08D8F80E1DB
:1024A000E3E6F6E1DE01A858BF4F01900D928A9550
:1024B000E1F7CE0188589F4F0E94B540892B91F4D7
:1024C00021E040E06BEF75E1CE0188589F4F0E94FC
:1024D0001D40009739F048E552E060E070E0499611
:1024E0000E94B81C0091F21020914B16201B2C5218
:1024F00010E00957194ED8018C91898F11968C9153
:102500001197888F12969C91129780E013963C91B8
:102510001397832B9C8B8B8B14963C911497832F52
:1025200080788D8B832F8C7390E0F3E09595879561
:10253000FA95E1F78E8B37703F8B15968C918A8FC9
:1025400080E1F8013896DE01119601900D928A958E
:10255000E1F7A8E1EA2EF12CC22ED12C5E01B5E202
:10256000AB0EB11C25C1F801EE0DFF1D8081882343
:1025700031F04180512CE2E04E0E511C03C0442446
:102580004394512C42018E0C9F1CC814D9040CF4A6
:102590002CC2833009F458C020F4823009F007C1FE
:1025A00007C0843009F48DC0883009F000C1D6C05E
:1025B000F6E04F1651040CF418C2F801EE0DFF1DA1
:1025C000828162968FAF62973381330F9481292F76
:1025D000221F2227221F232B63962FAF6397292FB9
:1025E0002295237064962FAF64979F7065969FAF76
:1025F0006597958166969FAF66978730C9F4268167
:10260000C757DF4F2883C958D040C857DF4F1882BB
:10261000C858D0408781C857DF4FA881B981C858B2
:10262000D040A82BCD0168969FAF8EAF6897BFC0F2
:10263000823009F0DAC1868167968FAF679787810C
:1026400068968FAF6897B3C0B9E04B1651040CF48D
:10265000CCC1F801EE0DFF1D228129AF83818AAF25
:10266000B7016C5F7F4FC801C257DF4F2883CE5838
:10267000D0400E94A10F6DAB7EAB8FAB98AFC2571D
:10268000DF4F2881CE58D040822F90E0079673E02C
:10269000959587957A95E1F7AC01495F5F4F4415B1
:1026A00055050CF0A2C1213808F09FC1E8E0EE0EFC
:1026B000F11CE00EF11EAC01B701C5010E94AF5D37
:1026C00076C0F0E14F16510409F08FC1F801EE0D0C
:1026D000FF1D83818B8F84818C8F85818D8F2681D7
:1026E000C557DF4F2883CB58D040C657DF4F1882DD
:1026F000CA58D0408781C657DF4FA881B981CA58D0
:10270000D040A82BCD019AA389A3B085C357DF4F32
:10271000B883CD58D040C457DF4F1882CC58D04032
:102720008185C457DF4F28813981CC58D040282B70
:10273000C9019CA38BA33284212C8385D101A82BB2
:10274000CD019A8B898B85858E8F7684612C8785C8
:10275000F301E82BCF0198A38F8F29C0F0E24F1629
:10276000510409F042C128014E0C5F1CD20112969F
:102770008C91129760968FAF609713968C916196AB
:102780008FAF6197B701685F7F4FC8010E94A10FAB
:102790002F966CAF7DAF8EAF9FAF2F97F2017096E3
:1027A00080E1DE01DB9601900D928A95E1F77401DC
:1027B000EC14FD040CF4D7CEBE016F5F7F4FCE0149
:1027C00088589F4F0E943F0D10C18FEF9FEF0E94CE
:1027D000F90B009709F409C1209173162F3F21F4DA
:1027E00060E00E94181601C163E676E10E94F70FCF
:1027F000FCC020E1E3E6F6E1DE01A859BF4F0190FD
:102800000D922A95E1F767E8C62E66E1D62EC80E2E
:10281000D91EA0904B16A31AB4EDAB0EF601808121
:1028200090E00E94F90B7C01009709F4DEC0DC0106
:102830009D965C90F6012180338026FE03C004E162
:1028400010E002C004E010E0412CB12C3E01F8E59C
:102850006F0E711C20E139C0F601E00FF11F80817D
:10286000882371F18180912C32E0830E911C853098
:1028700019F0863041F522C04380D301E22F1D922A
:10288000EA95E9F7842D90E0079653E095958795B2
:102890005A95E1F7F8013496EC0DFD1DAC01BF012E
:1028A000C301C257DF4F2883CE58D0400E94AF5D8E
:1028B000C257DF4F2881CE58D04005C0558003C095
:1028C00088248394912C080D191D0A151B0524F2E8
:1028D000CE01885A9F4F0E940C448C0151101EC09B
:1028E000009709F482C0FC0187A190A5A1A5B2A51B
:1028F000892B8A2B8B2B09F078C083A194A1A5A1E9
:10290000B6A187A390A7A1A7B2A78CE390E0A0E00F
:10291000B0E083A394A3A5A3B6A367C0A9968FAD87
:10292000A9978F3F09F066C01DC0D7019A962D91D7
:102930003C919B97838D948DB9010E94065D6B013C
:10294000D7015B968D919C915C97B9010E94065DC1
:10295000C616D70658F48FEF9FEF948F838F81E0D0
:10296000878F43C032E0C32ED12C03C0CC24C39444
:10297000D12C0115110571F49E0128593F4F442DAA
:1029800050E0BE01685A7F4FC7010E94C7568C01B4
:10299000009759F1F70126A537A5A52DB0E00E94B3
:1029A000EF5CD80193966D937D938D939C9396974E
:1029B0009D96CC92CA94CD28C1F4E85AFF4F8081ED
:1029C0009181009749F0950142E050E06BE970E099
:1029D0000B960E94403209C027FE07C0432DBE015E
:1029E00068597F4FC7010E94051210924C16109231
:1029F0004B160BC0BE0168597F4FC7010E94C90A20
:102A0000FC01009709F091CFB1CFC257DF4F0FB64D
:102A1000F894DEBF0FBECDBFDF91CF911F910F9114
:102A2000FF90EF90DF90CF90BF90AF909F908F90EE
:102A30007F906F905F904F903F902F9008958F926E
:102A40009F92AF92BF92CF92DF92EF92FF92CF937D
:102A5000DF93EC0160E870E080E090E009A804C03A
:102A6000660F771F881F991F0A94D2F728EE33E06C
:102A700040E050E00E941A5D2CAB3DAB4EAB5FAB2B
:102A800049015A01B694A794979487940E94561DC1
:102A9000DC01A50194010E94FB5C2FEF3FEF40E0B9
:102AA00050E00E941A5D69017A01C80CD91CEA1C29
:102AB000FB1C4CA95DA96EA97FA94C195D096E0983
:102AC0007F094CAB5DAB6EAB7FAB81E08AAB1BAAE1
:102AD0009E0148EC55E1B601CE01C896DF91CF9139
:102AE000FF90EF90DF90CF90BF90AF909F908F902E
:102AF0000C94FA1B0E9466560E941B0D80912E0CAE
:102B000090912F0C019690932F0C80932E0C8FEFA9
:102B10009FEF0E94F90B892B71F480912E0C9091FC
:102B20002F0CCC9740F010922F0C10922E0C80E0BE
:102B300090E00E94BD0F80E39CE00C942C1CCF938E
:102B4000DF93EC018091400C811111C081E00E9463
:102B50003F42892B61F49E014FE955E160E870E046
:102B6000CE01885B9F4FDF91CF910C94FA1BFE0141
:102B7000E85AFF4F80819181009719F06DA50E945E
:102B80005D11CE01885B9F4FDF91CF910C947E1C2D
:102B9000CF93DF93EC018091400C81110FC081E055
:102BA0000E943F42892B21F081E08093400C06C0B7
:102BB0009E0148EC55E160E870E012C08AA98823C4
:102BC000A9F09BA98FA1981728F460E070E0CE01CE
:102BD0000E94F70F1AAA6CA97DA99E0148EC55E145
:102BE000CE01C896DF91CF910C94FA1B49A9242FEE
:102BF00030E05EA18DA190E0850F911D2817390767
:102C000014F44F5F49ABCE01DF91CF910C941F15A7
:102C100087E390E090932F0C80932E0C20E030E01F
:102C20004AE755E160E870E080E39CE00C94FA1B11
:102C3000FC01611104C091A986A1891730F413AA7F
:102C400086A181ABCF010C941F1508950F931F939C
:102C5000CF93DF93EC018C01065B1F4FC8010E94EC
:102C6000341BC8010E94291B892B89F00E94561D24
:102C70009370BC017E5F9E014FE955E1CE01885BF8
:102C80009F4FDF91CF911F910F910C94FA1BDF9111
:102C9000CF911F910F910895FC010097B9F0218504
:102CA00032852115310559F4A281B381438D548DAC
:102CB0009A968D919C919B978417950738F0858DF6
:102CC00098E0899F200D311D112402C020E032E3DD
:102CD000C901089508950895FC01009731F4611524
:102CE0007105F9F080E095E013C0458D42954F7075
:102CF000A281B3819A962D913C919B97429FC001EE
:102D0000439F900D11246115710511F4638D748D2D
:102D10009B01209530952817390718F0680F791F07
:102D200002C06FEF7FEFCB010895CF92DF92EF9259
:102D3000FF920F931F93CF93DF93EC018B01CA8017
:102D4000DB800E944C167C01C8010E944C16F601E3
:102D5000E85AFF4F20813181C217D30719F00217BB
:102D6000130761F4AC01405C5F4FE416F50630F4E4
:102D7000AC01405451094E155F0530F0E816F906D4
:102D800010F49E0101C09801C901DF91CF911F91FC
:102D90000F91FF90EF90DF90CF900895CF93DF9346
:102DA000EC0188E089831A821B822B8D3C8D8AA5D9
:102DB0009BA52817390741F0FE01E85AFF4F808193
:102DC00091810E944C1602C080E090E027E02883A9
:102DD00022E02C839E838D83DF91CF9108951F93F2
:102DE000CF93DF93EC01162F888580FF1EC0EC8106
:102DF000FD813097D1F0D093420CC093410C82E01A
:102E00008887CE0106960995992787FD90950297A8
:102E1000029710F0133839F4BE01CE01DF91CF9143
:102E20001F910C94191781E08887DF91CF911F9132
:102E30000895CF92DF92EF92FF920F931F93CF935B
:102E4000DF93EC016B01E090410CF090420C00919B
:102E5000430C1091440CF80103C00190F081E02D67
:102E6000EC17FD0719F03097C1F746C0209709F419
:102E700043C08885882309F118860BC0C017D10785
:102E800029F0AE0167E8C8010E94EF16F801008141
:102E900011810115110591F7EC81FD81309769F0E1
:102EA000CC15DD0551F0D093420CC093410C40E0AD
:102EB00050E063E8CE0106960995E091430CF0914D
:102EC000440CCE17DF0791F4888199819093440CCC
:102ED0008093430C0DC0808191818C179D0729F44C
:102EE000888199819183808303C0FC01309799F791
:102EF000F092420CE092410CDF91CF911F910F9123
:102F0000FF90EF90DF90CF9008951F93CF93DF93C2
:102F10001092450CC091430CD091440C11E00EC0AE
:102F20008985882341F01887198640E050E062E8DF
:102F3000CE010E94EF160990D881C02D209781F70D
:102F4000DF91CF911F9108958091460C982F9F5F3C
:102F50009093460C08956091410C7091420C0C9432
:102F600019178AE88093460C1092470C1092480C6F
:102F70001092FA151092440C1092430C1092420CCD
:102F80001092410C08958091450C81110E94851783
:102F90007091480C772309F452C0E091470C2E2F12
:102FA00030E085E0E89FF0011124E75BF34F60819A
:102FB0006093710C418152815093730C4093720C59
:102FC000838194819093750C8093740C2F5F3F4F95
:102FD000277033272093470C71507093480C00974B
:102FE00039F58091430C9091440C17C08091450CA9
:102FF00081110E9485174091720C5091730C609161
:10300000710C8091760C9091770C0E94EF16E091F4
:10301000760CF091770C808191819093770C80935E
:10302000760C8091760C9091770C892BF9F607C07D
:10303000613819F421E0FC0120870E94EF162091ED
:10304000450C8091480C30E0280F311DC9010895CE
:103050002091450C8091480C30E0280F311DC901AA
:1030600008952091480C2830E1F0E091470CE20FE0
:10307000E770E093780C35E0E39FF0011124E75B03
:10308000F34F60835283418394838383822F8F5FC6
:103090008093480C9091FA15981730F48093FA15A4
:1030A00003C021E030E002C020E030E0C901089513
:1030B000CF93DF93C091410CD091420C0E94EF1648
:1030C000D093420CC093410CDF91CF910895AB0196
:1030D0003091430C2091440CE32FF22F03C0019058
:1030E000F081E02DE817F90791F03097C1F70097CC
:1030F00071F0FC01308321839093440C8093430C46
:1031000021E020871782168261E80C9458180895F0
:10311000009749F0FC0120852150223020F421E065
:1031200021872093450C089521E030E0FC01808543
:10313000811102C020E030E0C9010895CF93DF93F0
:10314000EC014A815B8160E070E08C819D810E948E
:10315000CA5D4A815B8128813981429FC001439FBA
:10316000900D529F900D1124AC0160E070E08E81B3
:103170009F81DF91CF910C94CA5DFC018281938184
:1031800020E030E019C0A481B581A20FB31F4C919B
:10319000411110C081E08C9340815181249FC00176
:1031A000259F900D349F900D112426813781280F83
:1031B000391F07C02F5F3F4F2817390721F720E03D
:1031C00030E0C9010895FC01268137814281538195
:1031D00080E090E018C02617370781F4A481B581FC
:1031E000A80FB91F2C91121614F421502C930480AF
:1031F000F581E02DE80FF91F80810895A081B1814C
:103200002A0F3B1F01968417950729F78FEF089522
:10321000FC01268137816217730790F0A081B1818C
:1032200042815381A49FC001A59F900DB49F900D32
:103230001124820F931F21E030E06817790710F006
:1032400020E030E0C9010895CF93DF93EC017B8348
:103250006A830E941E4B99838883DF91CF910895E2
:10326000FC018081918122813381820F931F9183A0
:1032700080830895CF93DF93EC010E941E4B9983C6
:103280008883DF91CF910895CF93DF93EC010E9463
:103290001E4B28813981AC01421B530B4F5F5F4F9E
:1032A00021E030E08A819B818417950710F020E0AF
:1032B00030E0C901DF91CF910895CF93DF93FC01F6
:1032C000C281D38180819181C80FD91F0E941E4B7A
:1032D000C81BD90BCE01DF91CF910895FC0111825B
:1032E00010820895FC01808191810895FB01208165
:1032F0003181FC01318320830895DC01ED91FC9143
:10330000309711F405C0FC01808191810097D9F7B5
:10331000CF010895DC01ED91FC911197309779F080
:1033200020813181232B09F408C0DF010190F08155
:10333000E02D80819181892BC1F71D921C92CF01D4
:103340000895DC01ED91FC911197309721F02081D7
:1033500031812D933C93CF010895DC01ED91FC91D7
:103360003097A9F0A0E0B0E001C0F90120813181DF
:10337000E617F70741F4109709F4DC012D933C930D
:10338000118210820895DF012115310571F708952A
:103390000F931F93CF93DF93EC018B010E94AD1924
:1033A00088819981F8019183808319830883DF9153
:1033B000CF911F910F9108950F931F93CF93DF9398
:1033C0008C01EB010E94AD1919821882C8010E947C
:1033D0007D19009711F4F80101C0FC01D183C0836D
:1033E000DF91CF911F910F910895DC01ED91FC9138
:1033F00020E030E005C02F5F3F4F0190F081E02DCD
:103400003097C9F7C9010895FB01309719F4BA0143
:103410000C94C81980819181DA018D939C9351831A
:1034200040830895009721F0FC012081318102C082
:1034300020E030E0C90108958091790C90917A0CD8
:10344000892B29F410927C0C10927B0C08950E9419
:103450001E4BE091790CF0917A0C228133814081EE
:103460005181240F351F281B390B0CC04281538119
:1034700060817181460F571F481B590B4217530734
:1034800008F49A010480F581E02D309779F7280F30
:10349000391F30937C0C20937B0C08958EE392E0CF
:1034A0000C948818EF92FF920F931F93CF93DF93A2
:1034B0008C01FC0180819181009729F08A3591056A
:1034C00009F064C068C010927A0C1092790C8AE5F9
:1034D00090E0F8019183808381E064C00480F581ED
:1034E000E02D309709F4EFCF8681978184179507F7
:1034F000A9F3E093790CF0937A0C0FC016968D9196
:103500009C9117978417950739F414968D919C9187
:1035100015979583848301C0FD01A481B58110971F
:1035200069F7D5CF623899F6C091790CD0917A0CB1
:10353000E12CF12C28C0CE010E944419892BF1F016
:10354000AE0168E88E819F810E943118892BA1F419
:103550001F821E828C819D81E114F10421F0F7010C
:103560009583848304C090937A0C8093790C1D8298
:103570001C820E941C1AD8CF0E944E1A9C818D81F9
:103580007E01C92FD82F2097B1F6A1CFF801118263
:10359000108283E007C0673829F6E091790CF0913A
:1035A0007A0C9FCFDF91CF911F910F91FF90EF90F9
:1035B0000895CF93DF93EC010E944E1A8E819F8174
:1035C0003091790C20917A0C892B61F0E32FF22F46
:1035D00007C0EC17FD0709F411C00480F581E02D48
:1035E0003097B9F78091410C9091420C9F838E8364
:1035F0003C832D83D0937A0CC093790CDF91CF91CB
:103600000C941C1ACF93DF93EC010E942419CE0175
:10361000DF91CF910C94D91ACF93DF93EC010E94E4
:103620003019CE01DF91CF910C94D91ACF93DF934B
:10363000EC010E943A19CE01DF91CF910C94D91A76
:10364000FC0120813181260F371F318320830C94A8
:103650001C1A21E030E0FC0186819781892B11F052
:1036600020E030E0C9010895FC012281338180818E
:103670009181280F391FC9010895FC018081918132
:10368000089521E030E08091790C90917A0C892B9B
:1036900011F420E030E0C90108958091790C9091F7
:1036A0007A0C892B29F020917B0C30917C0C02C084
:1036B00020E030E0C9010895CF93DF93EC01E09161
:1036C000790CF0917A0C8E179F0741F48C819D81C3
:1036D00090937A0C8093790C12C0FC01309731F0F2
:1036E000848195818C179D07C1F705C01D821C82BE
:1036F0001F821E8207C08C819D81958384830E94D6
:103700001C1AF4CFDF91CF910895EF92FF920F939F
:103710001F93CF93DF938C017A01FC01808191810B
:10372000009729F08B34910509F047C04DC08EE712
:103730009CE00E947219EC0109C06C817D81CE0170
:1037400002960E94021B0990D881C02D2097A9F7EC
:1037500081E080937D0C8BE490E0F801918380837D
:1037600031C08EE79CE00E947219EC0123C0CE01AB
:103770000296E816F906D9F4BE018EE79CE00E9495
:10378000AD19E090410CF090420C8A859B85909396
:10379000420C8093410CEC85FD85309719F08E85A5
:1037A0009F850995F092420CE092410CD4CF09908C
:1037B000D881C02D2097D9F6CECFF8011182108282
:1037C00083E005C081E003C06838E1F7CACFDF912C
:1037D000CF911F910F91FF90EF90089510927D0C63
:1037E0008EE79CE00E946E1960E070E088E492E051
:1037F0000C9467180F931F93CF93DF93EC01009104
:10380000410C1091420C1B870A875D874C873F87CC
:103810002E8780917D0C882379F088E492E0909344
:10382000420C8093410CCE0102960E94021B109321
:10383000420C0093410C02C07D836C83BE018EE775
:103840009CE00E94AD19BE018EE79CE0DF91CF9114
:103850001F910F910C94DC190F931F93CF93DF935B
:10386000EC0180917D0C882391F00091410C109126
:10387000420C88E492E09093420C8093410CCE017C
:1038800002960E940C1B1093420C0093410CBE0147
:103890008EE79CE00E94AD19BE018EE79CE0DF91AF
:1038A000CF911F910F910C94DC190F931F93CF931D
:1038B000DF93EC0180917D0C882391F00091410C05
:1038C0001091420C88E492E09093420C8093410C5A
:1038D000CE0102960E94161B1093420C0093410CDD
:1038E000BE018EE79CE00E94AD19BE018EE79CE010
:1038F000DF91CF911F910F910C94DC19CF93DF933F
:10390000EC0180917D0C882329F0CE0102960E9463
:103910005C1B04C01F821E8219861886BE018EE7BA
:103920009CE0DF91CF910C94AD19CF93DF93EC0124
:1039300080917D0C882331F0CE010296DF91CF91EA
:103940000C94291B8EE79CE00E94721906C08C170C
:103950009D0741F0FC01808191810097C1F721E032
:1039600030E002C020E030E0C901DF91CF9108953E
:10397000CF93DF93EC014C835D836E837F830E9442
:103980004B4B688379838A839B83DF91CF91089522
:103990000F931F93FC0140815181628173810481E7
:1039A000158126813781400F511F621F731F40838D
:1039B0005183628373831F910F910895CF93DF9397
:1039C000EC010E944B4B688379838A839B83DF9150
:1039D000CF910895CF92DF92EF92FF920F931F93B2
:1039E000CF93DF93EC010E944B4B0C811D812E8104
:1039F0003F81C880D980EA80FB800C0D1D1D2E1DE3
:103A00003F1D601B710B820B930B21E030E06F3F79
:103A10007F4F8F4F9F4710F020E030E0C901DF91CA
:103A2000CF911F910F91FF90EF90DF90CF9008956D
:103A3000CF92DF92EF92FF920F931F93FC01C4800D
:103A4000D580E680F78080819181A281B381C80E04
:103A5000D91EEA1EFB1E0E944B4B97018601061BD6
:103A6000170B280B390BB801C9011F910F91FF905B
:103A7000EF90DF90CF9008950F931F93CF93DF9334
:103A8000EC010E944B4B8B019C0188819981AA819A
:103A9000BB81081B190B2A0B3B0BB801C901DF9135
:103AA000CF911F910F9108950C94975D0C94935DA5
:103AB0004F925F926F927F928F929F92AF92BF923E
:103AC000CF92DF92EF92FF920F931F93CF93DF93EA
:103AD0004C01C0E0D0E0612C712C8FEDE82E81E02C
:103AE000F82E9DEDC92E91E0D92E2AEDA22E21E0CF
:103AF000B22E01C0E201F401E60DF71D108100E0D5
:103B000081812801480E511C4114510479F4D7FDDC
:103B100010C02E018FEF481A580ACD2B09F5BF921D
:103B2000AF920E94F55D0F900F901AC01C161D06F3
:103B300054F06114710449F0DF92CF920E94F55D58
:103B40000F900F9002C0CFEFDFEF5F924F92FF9286
:103B5000EF920E94F55D0F900F900F900F902E0145
:103B600082E0680E711C80E16816710419F6DF911D
:103B7000CF911F910F91FF90EF90DF90CF90BF906A
:103B8000AF909F908F907F906F905F904F9008952F
:103B9000CF92DF92EF92FF920F931F93CF93DF9319
:103BA000EC0100E010E034EEE32E31E0F32E42EEC3
:103BB000C42E41E0D42E06C0DF92CF920E94F55D64
:103BC0000F900F9089911F928F93FF92EF920E9416
:103BD000F55D0F5F1F4F0F900F900F900F90083003
:103BE000110551F7DF91CF911F910F91FF90EF9049
:103BF000DF90CF90089580E38093840C0895CF9355
:103C0000DF932091840C30E0C0E3D0E0C21BD30BE3
:103C10002957334FAE01B9010E94AF5DCE01DF914C
:103C2000CF910895CF92DF92EF92FF920F931F935F
:103C3000CF93DF936C01E090820CF090830C609145
:103C4000840C70E08701005D1F4F061B170B0138C5
:103C50001105F0F4C0E3D0E0C61BD70BCB018957A8
:103C6000934FAE01BC01C6010E94AF5DCC0DDD1DBE
:103C70002091850C3091860C8091800C9091810C64
:103C8000280F391FA701B901CE010E94AF5D02C004
:103C900000E010E0C801DF91CF911F910F91FF90DC
:103CA000EF90DF90CF9008959091840C980F9093AF
:103CB000840C08954091820C5091830C9C0148170C
:103CC000590798F08091800C9091810C820F931F7E
:103CD0009093810C8093800C421B530B5093830C68
:103CE0004093820C21E030E002C020E030E0C901C6
:103CF00008959093830C8093820C08952091800CFA
:103D00003091810C2954334FC90108952091840CBE
:103D100030E02957334FC901089521E030E0809108
:103D2000850C9091860C875B9C4011F420E030E07C
:103D3000C90108950E948D1E892B69F027EB3CE094
:103D40006091850C7091860C4091820C5091830C8F
:103D5000C9010C94AF5D2091800C3091810C21152C
:103D60003105B9F08091820C9091830CC096E7EBFD
:103D7000FCE005C0DF01A20FB31F4C914193AF01DE
:103D800047585C4048175907ACF31092810C1092C9
:103D9000800C08958091850C9091860C08958091F7
:103DA000820C9091830C08959091840C80E3891B80
:103DB000089580E39091840C891B2091820C3091AE
:103DC000830C280F311DC90108951F93CF93DF93F2
:103DD000EC011091840C812F90E08C179D076CF002
:103DE0000E94D91E8C0F9D1F8138910530F41C1B39
:103DF0001093840C21E030E002C020E030E0C901E3
:103E0000DF91CF911F910895CF93DF93EBE1F6E11E
:103E10001192119286E1EB34F807D1F7C0E0D0E0BF
:103E2000CE0123E0880F991F2A95E1F761E875E03C
:103E300085509A4E0E944C542196C430D10581F78A
:103E4000DF91CF9108951092810C1092800C109206
:103E5000830C1092820C80E38093840C87EB9CE0AF
:103E60009093860C8093850C0C94041F0F931F93E2
:103E7000CF93DF938C01EB010E94231F1093860CDC
:103E80000093850CD093830CC093820CDF91CF916B
:103E90001F910F9108950F931F93CF93DF9300D03D
:103EA00000D0CDB7DEB76B837C8389839A830E9471
:103EB000231F6B81062F7C81172F89819A810138FE
:103EC000110510F000E810E0A801BC018091850CFC
:103ED0009091860C0E94AF5D1093830C0093820C2E
:103EE000C8010F900F900F900F90DF91CF911F910D
:103EF0000F91089520E3EBE1F6E1DC0101900D92D2
:103F00002A95E1F780E2EBEFF5E1DB0101900D92FC
:103F10008A95E1F7089520E3FC01ABE1B6E1019059
:103F20000D922A95E1F780E2FB01ABEFB5E101903C
:103F30000D928A95E1F7089582E592E00E949E181D
:103F40008AE592E00C949E18CF93DF930E948D1E19
:103F5000892BC1F08AE592E00E94BD18EC01009720
:103F600019F4C0E0D0E022C00E94CF1E998388835C
:103F70000E94CA1E9B838A83CE0104960E94FF1D65
:103F80008CAB14C082E592E00E94BD18EC01009752
:103F900041F302960E94121E99838883BE016E54DB
:103FA0007F4FCE018E579F4F0E947A1FCE01DF9127
:103FB000CF910895BC016E547F4F8E579F4F0C9444
:103FC0007A1FCF93DF93EC01BC0182E592E00E945F
:103FD0000819BE01892B19F082E592E009C08AE533
:103FE00092E00E940819892B39F0BE018AE592E01F
:103FF000DF91CF910C94E318DF91CF9108950F9347
:104000001F93CF93DF931F92CDB7DEB78C01BC0116
:1040100082E592E00E940819892B99F0F8016191DC
:104020007191CF010E944B1FB8016E547F4FC801A0
:104030008E579F4F0F90DF91CF911F910F910C944E
:104040008B1FB8018AE592E00E940819892BF9F0CC
:104050000E94231FF80160817181828193810E94F7
:104060004B1FF80184A990E00E94E51EF80144A9C5
:1040700049830E94861EB8016C5F7F4F498150E0E2
:104080000F90DF91CF911F910F910C94AF5D0F9026
:10409000DF91CF911F910F910895CF93DF93EC01A2
:1040A000BC0182E592E00E940819892B11F022964A
:1040B0000DC0BE018AE592E00E940819892B21F00B
:1040C0000A80DB81C02D02C0C0E0D0E0CE01DF91CC
:1040D000CF910895FC018081918108959C0148E071
:1040E000649F200D311D11242E503109C9010895FE
:1040F000FC01E60FF11DE60FF11DEE57FF4F808129
:104100009181089508959C0141505109460F571F10
:10411000FB010EC0B081A0E08181BD01680F711D5F
:10412000260F371F2617370710F42F5F3F4F3296A1
:10413000E417F50778F3E417F50749F4908180E078
:10414000280F391F2817390710F42F5F3F4FC90177
:1041500008950F931F93CF93DF9300D0CDB7DEB7B1
:104160000091F21030915F1620E010E0201B310B1F
:1041700090916016290F311D3A83298329813A8154
:1041800040E250E063E676E1F901E80FF11DCF016E
:104190000E94832049815A81B8016D57794E0E944F
:1041A0008320009719F0382F292F02C02FEF3FEFFF
:1041B000C9010F900F90DF91CF911F910F9108953A
:1041C0002091F210822F90E08896FC01E55AF94E7A
:1041D000418138E0439FA0011124495F5F4F62E0B5
:1041E00034C0E80FF91FE55AF94E3081332319F036
:1041F000313019F427C06F5F28C0307C303829F087
:10420000303C49F03034F1F403C06093F11009C040
:104210006093F11023C06093F110809173168F3F6B
:10422000E9F030E040E050E0285D3F4F4F4F5F4FF6
:10423000260F311D411D511D62E084E00E946F3147
:1042400082E0089531813E5F630FE62FF0E04E1764
:104250005F073CF66093F11080E0089581E00895D7
:10426000FC015381560F50935216872F9927428194
:10427000480F40935116A181A0935016E081E0931E
:104280004F16242F30E02817390748F48A2F8F5F04
:1042900080935016811103C0EF5FE0934F16852F76
:1042A00090E077278617970788F44F5F4093511661
:1042B00041110CC0809150168F5F80935016811170
:1042C00005C080914F168F5F80934F160895AB0104
:1042D000BC0180E090E00E948320382F292FC90183
:1042E000089548E250E06BE576E180E090E00E94BE
:1042F0008320009719F0382F292F02C02FEF3FEFAE
:10430000C90108958AE30C94A92086E00C94A920A1
:1043100081E10C94A9200E94DB4680E0E82FF0E0C8
:10432000EE0FFF1FEC5FF74E118210828F5F883017
:10433000A8F380E09CE2989FF0011124EC5AF84E1B
:1043400015A28F5F8430B8F380E094E09093F6106C
:104350008093F51080E099E1989FF0011124EA5EC6
:10436000F74E118A108A8F5F8C30B0F38093F4106F
:104370000895CF93DF932091F5103091F610CCE2A1
:104380002F5F3F4F21154DE7340710F020E030E15B
:10439000F22FE32F40E050E015C0C49FD001C59F2D
:1043A000B00D1124AC5AB84E9596DC919597DD234B
:1043B00039F050960D90BC91A02DAE17BF0701F3B8
:1043C0004F5F5F4F4430510541F73093F610209313
:1043D000F5101092F41020E0C0E0D0E04CE21BC0D9
:1043E000429FD0011124AC5AB84E95963C919597B6
:1043F000311104C02093F410ED0111C0373051F495
:10440000209739F096965C9196973EA1351708F063
:1044100001C0ED012F5F243018F32093F410209792
:10442000A9F122E02DA32091F710288F2091F810F8
:10443000298F2091F9102A8F2091FA102B8F1C8A36
:104440001D8A1E8A1F8A20E330E03F8F2E8F39A3FA
:1044500028A321E030E03D8F2C8F1FA221E02EA366
:1044600023E02CA31AA240E14BA32091F510309138
:10447000F610322723273227398B288B7B8B6A8BC8
:10448000FC01DE0101900D924A95E1F7CE01DF912A
:10449000CF910895CF93DF932091F5103091F610CE
:1044A0002F5F3F4F21154DE7340710F020E030E13A
:1044B000522F432FA6E2B8E1C0E008C0ED91FC9175
:1044C0001197CF5F5996E417F50751F3CC30B1F748
:1044D0003093F6102093F51040E059E114C0E42F1A
:1044E000EF5F549FE0011124CA5ED74E28893989B5
:1044F000232B41F44093F4109E01209749F420E0CF
:1045000030E025C04E2F4C3050F34093F410F7CFDD
:104510004091F5105091F610542745275427598B98
:10452000488B7B8B6A8B009741F4EC2FFD2F80E149
:10453000DF011D928A95E9F707C040E1FC01DE0129
:1045400001900D924A95E1F7809159198C8BC90120
:10455000DF91CF91089540E013C0E42FF0E0542F95
:104560005F5FEE0FFF1FEC5FF74E20813181281750
:10457000390729F44093F410118210820895452FD1
:10458000483058F34093F410089540E012C0E42FEF
:10459000F0E0542F5F5FEE0FFF1FEC5FF74E2081BE
:1045A0003181232B29F44093F41091838083089563
:1045B000452F483060F34093F41008959F92AF92D6
:1045C000BF92CF92DF92EF92FF920F931F93CF9300
:1045D000DF93C0915217D0915317843009F46CC304
:1045E00027E936E1309351172093501730934E1638
:1045F00020934D16833061F48DA18F70833009F0C4
:1046000071C08C8D9D8D892B11F00C946D2B8AC0FF
:10461000823009F08BC010924C1610924B161092FB
:104620001518109214188091FA108F5F8093FA1069
:10463000811113C08091F9108F5F8093F91081115F
:104640000CC08091F8108F5F8093F810811105C025
:104650008091F7108F5F8093F7102DA1273011F014
:10466000253051F48EA18F5F8EA3883711F00C9402
:104670006D2B1DA20C946D2B222311F40C946D2B29
:104680008C8D9D8D892B09F449C08EA1982F915056
:104690009EA381110C946D2B3FA1383031F0822FF5
:1046A0008150823048F4353039F41DA280E880937F
:1046B0004B170E947F2ED6C6353040F483E090E041
:1046C000032E01C0880F0A94EAF701C080E38EA38D
:1046D0003F5F3FA3822F8F708330D1F040F4813051
:1046E00009F4B5C4823011F00C946D2B0AC08630E9
:1046F00009F453C6883009F450C6843009F0EDC778
:104700004CC6E091F210F0E0ED57F94E1586A6C4C4
:1047100084E080934B170E947F2EDBC62F702330DE
:1047200009F0DBC788E080934B1791C6853019F5F7
:10473000E0914E17F0914F1780899189892B09F4E8
:10474000CCC710925317109252178BE896E19093B2
:1047500051178093501790934E1680934D161092D8
:1047600015181092141810924C1610924B1688E0DF
:1047700080934B179FC280915B16807F803609F033
:10478000ACC790915F1680E020916016820F911D5A
:1047900020914B1630914C162817390708F49DC705
:1047A000889690934C1680934B16809163168F3F9A
:1047B00009F493C783E796E10E942142892B09F00F
:1047C00016C183E796E10E946543892B09F00FC16A
:1047D000209173162F3F09F48FC02E3F29F480914A
:1047E0007416803809F488C0809163168E3F29F4CE
:1047F00080916416803809F47FC08091631690918F
:104800006416892B59F58091651690916616892B4F
:1048100029F58091671690916816892BF9F480919B
:10482000691690916A16892BC9F480916B16909144
:104830006C16892B99F480916D1690916E16892BC8
:1048400069F480916F1690917016892B39F48091DC
:10485000711690917216892B09F44EC080917316CF
:1048600090917416892B51F580917516909176165A
:10487000892B21F58091771690917816892BF1F488
:104880008091791690917A16892BC1F480917B16CC
:1048900090917C16892B91F480917D1690917E16D3
:1048A000892B61F480917F1690918016892B31F4C9
:1048B00080918116909182160197F1F080914B16AC
:1048C00090914C168130954038F020E035E040E082
:1048D00050E060E082E009C080916216823040F4CE
:1048E00020E030E0A90160E083E00E946F31FDC666
:1048F000815080936216F9C6809163168E3F09F04D
:10490000ECC680916416803809F0E7C68091631682
:1049100090916416892B59F58091651690916616D1
:10492000892B29F58091671690916816892BF9F4E7
:104930008091691690916A16892BC9F480916B1643
:1049400090916C16892B99F480916D1690916E164A
:10495000892B69F480916F1690917016892B39F428
:104960008091711690917216892B09F4B6C68091C8
:10497000731690917416892B59F580917516909144
:104980007616892B29F58091771690917816892BC8
:10499000F9F48091791690917A16892BC9F4809157
:1049A0007B1690917C16892B99F480917D169091BD
:1049B0007E16892B69F480917F1690918016892B41
:1049C00039F48091811690918216019709F485C679
:1049D0002F3F09F482C683E796E10E94F1418111DD
:1049E0007CC620E030E0A90162E081E07ECF81E674
:1049F00096E190934D1780934C171092F2101092FD
:104A0000F310E0914C17F0914D1780818B3209F42F
:104A10005EC048F4863009F4B5C1813109F4BAC0EA
:104A2000882381F07AC08A3309F481C020F48C3263
:104A300009F073C052C68B3309F44FC68C3309F0AA
:104A40006CC01FC08091F31080FD67C081608093AF
:104A5000F3100E94E020813009F43FC608F022C024
:104A60008091F210E82FF0E0ED57F94EF0934D17DA
:104A7000E0934C17885F918168E0969F800D112428
:104A800049C08091F31081FF04C086FD46C0806458
:104A900001C082608093F3100E94E020813009F40D
:104AA0001CC620F0823009F0ACCF1FC68091F210F6
:104AB000E82FF0E0ED57F94EF0934D17E0934C17C7
:104AC000885F918178E0979F800D112423C08091A9
:104AD000F31082FD22C084608093F3108091F21065
:104AE000282F30E0F901ED57F94E9381992341F0D9
:104AF000265D3F4F442737FD4095542F60E015C099
:104B0000F0934D17E0934C17885F9181E8E09E9FEA
:104B1000800D11248093F21074CF9F012B553641E4
:104B2000442737FD4095542F61E084E0DECE0E949B
:104B30008221019609F0D1C5E091F210F0E0ED5725
:104B4000F94E80818638D1F038F48138B9F0853853
:104B5000A9F0803899F40FC0883839F018F08B39F3
:104B600069F406C00E9498320DC00E947D350AC0CB
:104B70000E941E1207C00E94063104C010924C16FB
:104B800010924B1680914B1690914C16892B09F47C
:104B9000A4C5ABC580914B1690914C16C0979093CD
:104BA0004C1680934B168BE896E1909351178093A7
:104BB0005017E091F210F0E0ED57F94E86819781A1
:104BC000892B69F40091F21010E00D57194EF8018D
:104BD000E280F380E114F10409F47FC506C00E946D
:104BE0008821019609F079C5EDCF86E198E190938F
:104BF0004F1780934E173FC0888999890097B1F16C
:104C0000E816F90699F58A899B89009731F0F80131
:104C1000208131812817390749F588819981892BAD
:104C2000E1F48A819B81892BC1F48C819D81892B40
:104C3000A1F48E819F81892B81F488859985892BA8
:104C400061F48A859B85892B41F48C859D85892B10
:104C500021F48E859F85892BC1F040E150E0BE0193
:104C600083E696E10E94A25D009779F06996D09361
:104C70004F17C0934E17C0914E17D0914F17F9E1BF
:104C8000C234DF0708F4B8CF28C51092531710922A
:104C9000521782E080934B178BE896E1909351175F
:104CA0008093501790934E1680934D1610921518BE
:104CB000109214180E947F2E80911418909115184C
:104CC000009709F40AC59C01205D3F4F30934C16B4
:104CD00020934B16089690935F16285220936016E7
:104CE000E0914E17F0914F1724892093621621E12D
:104CF00020936116A091F210B0E0AD57B94E9827FD
:104D00008927982715969C938E93149717961C9233
:104D10001E9216978089918911969C938E93828911
:104D2000938913969C938E93129780E1A3E7B6E143
:104D300001900D928A95E1F763E776E183E696E1CB
:104D40000E94E04487E996E19093511780935017B1
:104D5000C091F210D0E0CD57D94E0E9488218095A5
:104D600090959F838E83E091F210F0E0ED57F94E1D
:104D700086819781892B09F0A6C48FEF9FEF9783D7
:104D80008683A1C40E948521019609F0A6C40091E2
:104D9000F21010E00D57194EF801E280F380E11493
:104DA000F10409F49AC4A080B180A114B10409F4FB
:104DB00094C479E7C72E77E1D72EC4E5D7E1F60191
:104DC00090809920A1F088899989E816F90679F4EC
:104DD0008A899B89A816B90651F440E150E0BE01CA
:104DE00083E696E10E94A25D009709F44EC1AC965D
:104DF000FCE2CF0ED11C28E1C430D20701F7F80144
:104E000085858F738230B9F4F092FC10E092FB102C
:104E100020E00DC0E22FF0E0EE0FFF1FEC5FF74E39
:104E2000808191812F5FE816F90609F453C028307C
:104E300088F32093F410E091F210F0E0ED57F94E72
:104E4000858582FD4AC484E185878CE390E0909358
:104E50004C1680934B1680E58487878193859783D2
:104E60003681928596833287258191859583218726
:104E700094819093F4104085448390878F5F83875B
:104E800081110CC0832F8F5F8287811107C0822F11
:104E90008F5F8187811102C09F5F908780819181A0
:104EA0009093FC108093FB10228133813183208307
:104EB0009383828380E1E3E6F6E1A3E7B6E1019024
:104EC0000D928A95E1F763E776E183E696E10E9429
:104ED000E044DAC31092F41020E0C0E0D0E03CE2FD
:104EE00020C0822F90E0389FF001399FF00D1124EF
:104EF000EC5AF84E45A1411104C02093F410EF0183
:104F000014C0473069F4209721F056A14EA14517EF
:104F100038F4389FE001399FD00D1124CC5AD84E77
:104F20002F5F2430F0F22093F410209709F4D5C3BA
:104F3000D0935317C093521783E08EA38CA31AA269
:104F400084E08BA31FA2F80182819381998B888BC7
:104F5000808191819B8B8A8B80E1E3E6F6E1DE0123
:104F600001900D928A95E1F781E08DA38091F71071
:104F7000888F8091F810898F8091F9108A8F8091A5
:104F8000FA108B8F81E090E09D8F8C8FF8018781E4
:104F90008F8B86818E8B85818D8B84818C8B81E03C
:104FA00090E00E948E5CE091F210F0E0ED57F94E37
:104FB0008485282F207F30E0213531050CF447C04F
:104FC00082958F7090E00597880F991F880F991F21
:104FD0005091FD1040E032C0F901E55AF94E54AD50
:104FE000511105C04093F4101092FD1030C05130A3
:104FF00011F44F5F23C05230C9F465AD6430B1F491
:105000004093F4105093FD1096AD80E027AD822BB5
:105010009093FC108093FB108133910510F080E396
:1050200090E09F8F8E8F99A388A311C0F901E85655
:10503000F94E2081211101C006C0420F242F30E01B
:10504000281739074CF24093F4105093FD10E0916B
:10505000F210F0E0ED57F94E80E18587E091F21013
:10506000F0E0ED57F94E85858260858782E0848B7C
:1050700084E0858B168A80E3878B80E490E09093B0
:105080004C1680934B1680E6C2C2D0935317C09340
:10509000521710924B17F801258522FF03C01DA25D
:1050A00080E24DC2F801348532953F70330F330FE3
:1050B0003093F41080914B1690914C168897831B77
:1050C000910990934C1680934B16392D3F703230D6
:1050D00029F4322F3F73323139F41FC0313021F4BB
:1050E000322F3F733230C9F0892B19F4822F83702D
:1050F000A1F0F80194818C8998130CC095818D8959
:10510000981308C096818E89981304C097818F895F
:10511000981719F021FD9BCF67C224FF4BC06C8DFF
:105120007D8D6115710509F445C0CE0148960E9438
:105130003021E091F210F0E0ED57F94E308580918A
:105140004F16381337C0218580915016281332C06E
:1051500092858091511698132DC0838540915216E7
:10516000841328C0388F298F9A8F8B8F8FA181113C
:105170001AC02AA18CA19EA1891B922F9695969563
:105180009695891B280F2AA387FD81959BA1392F0E
:1051900036953695931B980F9BA3822F86958695FF
:1051A0008695890F8CA381E080934B178CA18EA3E9
:1051B0001D8E1C8E4DA1842F8F70843009F4C4C1C4
:1051C00040F48230A9F108F0BAC0813009F085C2FC
:1051D0000CC0863009F400C208F4DAC1873009F443
:1051E00003C2883009F079C2A4C180914B1780FFB7
:1051F00014C083E08DA380E480934B171D8E1C8E1A
:1052000080914B1690914C16009709F41CC122E432
:1052100020934B170E948E5C16C1E091F210F0E0D3
:10522000ED57F94E85858F73823009F056C20FCF46
:1052300080914B1780FF78C0E091F210F0E0ED57BD
:10524000F94E85858F73823109F06EC08485282FD1
:10525000207F30E0213531050CF44EC082958F70EF
:1052600090E00597880F991F880F991F5091FD10A6
:1052700040E039C0D901A55AB94EDC965C91DC9763
:10528000511105C04093F4101092FD1035C05130FB
:1052900011F44F5F28C05230F1F4DD966C91DD9728
:1052A0006430C9F44093F4105093FD10DE969C9145
:1052B000DE9780E0DF962C91822B9093FC108093F8
:1052C000FB108133910510F080E390E09F8F8E8F6B
:1052D00099A388A311C0D901A856B94E2C912111C8
:1052E00001C006C0420F242F30E02817390714F2FE
:1052F0004093F4105093FD1083E08DA384818C8B38
:1053000085818D8B86818E8B87818F8B81E090E06C
:105310000E948E5C82E480934B171D8E1C8E10922F
:105320004C1610924B168FC080E280934B170E9450
:105330007F2EE0915217F091531715A27CCDE0918A
:10534000F210F0E0ED57F94E858580FF2DC044FD49
:105350002BC08C8D9D8D892B09F0BFC180914B1680
:1053600090914C1601960E948E5C20914B17822FD3
:10537000806180934B1780914B1690914C16892B2E
:1053800019F0226120934B170E947F2E81E090E05C
:105390009D8F8C8F88E08DA31FA2E091F210F0E02A
:1053A000ED57F94E81E126C185FF1AC0928980E050
:1053B0002389BC01622B9B0180915017909151175A
:1053C000820F931F909351178093501780914B1623
:1053D00090914C16821B930B90934C1680934B1616
:1053E00080914B1690914C16009749F044FD07C0F0
:1053F00020914B17226020934B170E948E5CE09106
:10540000F210F0E0ED57F94E968580E02785820F87
:10541000911D9093FC108093FB1028A139A12817AF
:10542000390710F0892B21F43093FC102093FB10E6
:105430008091FB109091FC109F8F8E8F80914B1765
:10544000837009F44AC110921518109214180E9422
:105450007F2E80914B1785FF0CC01092151810926B
:1054600014181DA2E091F210F0E0ED57F94E84E11E
:10547000C1C084FF0AC0109215181092141881E060
:1054800090E09D8F8C8F84E086CF2091141830910E
:10549000151821153105E1F080FF02C01D8E1C8E0C
:1054A0008C8D9D8D009781F48E8D9F8D8217930733
:1054B00020F49093151880931418809114189091EB
:1054C00015189D8F8C8F04C0909315188093141815
:1054D0001FA280914D1690914E1690935117809374
:1054E00050178091141890911518892B81F08C8D8C
:1054F0009D8D009761F0CC9690934C1680934B163F
:10550000E091F210F0E0ED57F94E88E110C0809183
:105510004B1781FFE2C08CE390E090934C16809390
:105520004B16E091F210F0E0ED57F94E80E18587DF
:1055300068C080914B1780FFD0C01DA280E180938E
:105540004B170E947F2EC9C080914B1690914C162C
:10555000009711F00E948E5CE091F210F0E0ED57A0
:10556000F94E958580914B1790FF0BC080FF06C0C8
:1055700087E08DA31EA21D8E1C8E1DC086E08DA30C
:105580001AC080FF22C085E08DA31D8E1C8EA5C091
:1055900080914B1690914C16009711F00E948E5CF2
:1055A000E091F210F0E0ED57F94E858580FF0DC0D7
:1055B00087E08DA31EA281E090E00E948E5C80E1D6
:1055C00080934B170E947F2E0FC080914B169091B5
:1055D0004C16892B49F481C080914B1780FF7DC008
:1055E00087E08DA31EA279C0E091F210F0E0ED57A4
:1055F000F94E80E185878CE390E090934C16809380
:105600004B16E091F210F0E0ED57F94E80E58487FB
:10561000E091F210F0E0ED57F94E8C8980878D898A
:1056200081878E8982878F898387888D8483898DFE
:1056300085838A8D86838B8D878386E08093611630
:1056400088899989918380838A899B8993838283BE
:1056500080E1FE01A3E7B6E101900D928A95E1F7A2
:1056600063E776E183E696E10E94E0448DA1E09154
:10567000F210F0E0ED57F94E84FF03C0178616864E
:1056800003C0168680E3878780915919809362163C
:1056900080914B1690914C169C0128523109309301
:1056A0005F16885280936016C091F210D0E0CD57FB
:1056B000D94E1B8A1A8A198A188A0E9485218095D8
:1056C0009095998B888B80E680935B1610925C1680
:1056D00010925E1610925D1608C010924C16109231
:1056E0004B161092F2101092F31010924B17DF919C
:1056F000CF911F910F91FF90EF90DF90CF90BF90CF
:10570000AF909F900895382F292FC90108950E94C6
:105710003C5D0895E0914D16F0914E164BE457E133
:105720004E1B5F0B9B01461757070CF49A0112168C
:10573000130664F420931418309315188E179F07DE
:1057400029F0A901BC01CF010C94AF5D089583E25B
:1057500091E10E94291B892B21F083E291E10C94B5
:10576000161B0895E091FE10F091FF10309709F09C
:10577000099480E008959093FF108093FE1008959F
:105780002091410C3091420C60E0E1E0F1E112C067
:10579000408151814817590759F44281538142177A
:1057A000530731F460932C11118210820C94AB22B8
:1057B00034966F5F683060F360932C11089540E079
:1057C000E1E0F1E114C0542F5F5F20813181232B90
:1057D00061F440932D11918380832091410C30918D
:1057E000420C338322830C94C5223496452F4830D3
:1057F00050F340932D1108952091410C3091420CAB
:10580000FC0131A720A773A762A708952091410C3E
:105810003091420CFC01368B258B708F678B08957D
:10582000CF93DF93EA010E944A22FC01009741F0E6
:105830008091410C9091420C968B858BD08FC78BB9
:10584000CF01DF91CF9108950F931F93CF93DF93F3
:10585000CDB7DEB760970FB6F894DEBF0FBECDBFF1
:105860008C01AB018FEF92E09A8389831C821B82AB
:105870001E821D8218861F821A8619861C861B8628
:105880001E861D8680E091E0988B8F87B801CE013F
:1058900001960E94102CFC01009711F0118B008BD7
:1058A000CF0160960FB6F894DEBF0FBECDBFDF917B
:1058B000CF911F910F91089540E050E062E082E6A1
:1058C00092E00E94581810924C1610924B161092AB
:1058D000F21008950F931F93CF93DF9380914B168F
:1058E00090914C16009709F4C8C08130954008F09B
:1058F000B5C08091731690917416892B59F58091DB
:10590000751690917616892B29F5809177169091CE
:105910007816892BF9F48091791690917A16892B53
:10592000C9F480917B1690917C16892B99F4809113
:105930007D1690917E16892B69F480917F16909147
:105940008016892B39F48091811690918216892BCB
:1059500009F484C0809173168F3F09F484C083E7F3
:1059600096E10E94F141811115C083E796E10E9402
:105970000C44009759F40E9445418C01009761F452
:10598000E091DA02F091DB02099568C08C010D5EAE
:105990001F4F02C003E716E1C8010E94B540EC01A9
:1059A0000097A1F520E040E060E070E0C8010E94AF
:1059B0001D40EC01009709F451C083E696E10E9476
:1059C0002142AE014F5F5F4F60E070E0892B19F01C
:1059D00083E696E102C080E090E00E94B3346091DB
:1059E000621970916319809164199091651928EE7C
:1059F00033E040E050E00E941A5DBA01A901CE01F7
:105A000081960E94B81C81E08BA72DC08DA58823AC
:105A1000A1F1823059F483E08DA745E050E060E0C9
:105A200070E0CE0149960E94B81C1BA660916219D5
:105A300070916319809164199091651928EE33E093
:105A400040E050E00E941A5DBA01A901CE018196A2
:105A50000E94B81CCE0141960E94B22B10924C16A7
:105A600010924B160AC080E090E00E94B22B109278
:105A70004C1610924B161092F210DF91CF911F919D
:105A80000F910895EF92FF920F931F93CF93DF939F
:105A90007C01EA01FC0180819181009729F08C3022
:105AA000934009F0E8C0ECC080E024E0829FF00160
:105AB0001124EF5FFE4E118210828F5F8830A8F3B1
:105AC000809300118091410C9091420C909322118F
:105AD000809321110E94A4178093421960E470E022
