:100000000C9434010C9453010C9453010C9453013F
:100010000C9453010C9453010C9453010C94530110
:100020000C9453010C9453010C9453010C94530100
:100030000C9453010C9453010C9453010C945301F0
:100040000C945F2E0C9453010C9453010C945301A7
:100050000C94D22E0C9449270C9453010C94530108
:100060000C9453010C94394F0C9453010C942D4F64
:100070000C9453010C9453010C9453010C945301B0
:100080000C946B500C9453010C9453010C94530139
:100090000C94774F0C9453010C946B4F0C945301B8
:1000A0000C9453010C9453010C9453010C94530180
:1000B0000C9453010C9453010C9453010C94530170
:1000C0000C9453010C9453010C945301436F6E66CE
:1000D00069677572696E672073656E736F72732ED0
:1000E0002E2E2000646F6E65210A00554450206357
:1000F0006C69656E742070726F63657373207374BE
:1001000061727465640A004372656174656420619C
:1001100020636F6E6E656374696F6E2077697468B3
:1001200020746865207365727665722000206C6F9C
:1001300063616C2F72656D6F746520706F727420CF
:1001400025752F25750A00444154412073656E645E
:1001500020746F202564202748656C6C6F2025640F
:10016000270A00436C69656E742049507636206119
:1001700064647265737365733A20000A003A3A004A
:100180003A002578003A002530327800436F6E74CB
:10019000696B6920322E3520737461727465642E28
:1001A000204E6F64652069642025750A004D414327
:1001B00020253032783A253032783A253032783A74
:1001C000253032783A253032783A253032783A255F
:1001D0003032783A253032780A0025732025732C86
:1001E000206368616E6E656C20636865636B207266
:1001F00061746520256420487A2C20726164696FDF
:10020000206368616E6E656C2025640A0054656E1B
:10021000746174697665206C696E6B2D6C6F6361B7
:100220006C204950763620616464726573732000D7
:1002300025303278253032783A0025303278253032
:1002400032780A0052696D65207374617274656456
:100250002077697468206164647265737320002577
:10026000642E0025640A000011241FBECFEFD1E2E6
:10027000DEBFCDBF13E0A0E0B2E0EEEBF6EB00E0B6
:100280000BBF02C007900D92A03CB107D9F717E150
:10029000A0ECB3E001C01D92A732B107E1F70E94C4
:1002A00098560C945D5B0C9400007F928F929F9205
:1002B000AF92BF92CF92DF92EF92FF920F931F9374
:1002C000CF93DF93CDB7DEB7A0970FB6F894DEBF1C
:1002D0000FBECDBF7C01FC0180819181823B9105E5
:1002E00009F401C18C3C910509F45CC1892B09F02A
:1002F000F5C08CEC90E09F938F930E94D85781E0DB
:100300000E9407290E944D0382E00E94072980E98C
:100310000E9498030F900F90882319F084E00E94A8
:1003200007298FEF0E949E0382E00E940E2984EE2F
:1003300090E09F938F930E94D85740E050E065E88B
:100340008091EC039091ED030E94370582EB90E0E1
:10035000F701918380830F900F90BEC0F8019080C9
:10036000719780818823B1F0F1E0F91598F07C9CB9
:10037000C0017D9C900D112482569D4E0E94440820
:10038000BF92AF920E94D8570F900F90911002C069
:10039000F8018082FFEFCF1ADF0A0F5D1F4F83E065
:1003A000C816D104D9F68AEA9AEA9A8B898B1C8AF4
:1003B0001B8A1E8A1D8A188E1F8A1A8E198E1C8E01
:1003C0001B8E1E8E1D8E18A21F8E63E97FE0CE014C
:1003D00041960E94FC218FEF9FEF98A38F8FCE0153
:1003E00041960E94440840E050E066E17EE280E0F1
:1003F00090E00E9474149093C1038093C00322E2A2
:100400003DE3FC01318B208B87E091E09F938F933C
:100410000E94D8578091C0039091C1030E94440864
:10042000E091C003F091C1038289938998278927BD
:1004300098279F938F938089918998278927982758
:100440009F938F938DE291E09F938F930E94D85753
:1004500060E870E082EC93E00E948A060FB6F894A0
:10046000DEBF0FBECDBF8CEC90E0F701918380839F
:1004700033C080918B1081FF17C0809190109091B4
:100480009110E0918B0FF0918C0FE80FF91F108203
:100490009F938F938DE193E09F938F930E94C15719
:1004A0000F900F900F900F9082EC93E00E94B10696
:1004B000892BC9F282EC93E00E9494060E944208C4
:1004C000BC016F77772720E030E04BEE52E08AECFA
:1004D00093E00E948207C7CF81E069C0F7011182D3
:1004E000108283E064C00AEA1AEA1A8309831C8234
:1004F0001B821E821D8218861F821A8619861C8600
:100500001B861E861D86188A1F8663E97FE0CE0142
:1005100001960E94FC2121E040E050E0BA01CE01AA
:1005200001960E9412201093DD030093DC031092C9
:10053000DF031092DE031092E1031092E0031092A9
:10054000E3031092E2031092E5031092E403109289
:10055000E7031092E6031092E9031092E80380E0AB
:1005600091E09093EB038093EA038BEE90E09F93EE
:100570008F930E94D85783E691E09F938F930E94B8
:10058000D8570EEA12E10F900F900F900F90C12CE8
:10059000D12C81E2782E9BE7A92E91E0B92E8824F8
:1005A0008394DCCE8091821268137ECF62CFA096B6
:1005B0000FB6F894DEBF0FBECDBFDF91CF911F9174
:1005C0000F91FF90EF90DF90CF90BF90AF909F90F2
:1005D0008F907F900895EF92FF920F931F93CF9388
:1005E000DF93CDB7DEB76E970FB6F894DEBF0FBEC0
:1005F000CDBF8091DA039091DB0301969093DB03EA
:100600008093DA039F938F938091EB031F928F93D4
:1006100087E491E09F938F930E94D85782E00E94D5
:100620005C25F82EE92E81E00E945C25EF92FF9276
:100630009F938F938DE293E09F938F93EE24E394A7
:10064000F12CEC0EFD1EFF92EF920E940158F70173
:1006500001900020E9F7AF01415051094E195F099F
:1006600006E11EE22CED33E0B7018091C0039091CA
:10067000C1030E943C170FB6F894DEBF0FBECDBF7A
:100680006E960FB6F894DEBF0FBECDBFDF91CF914F
:100690001F910F91FF90EF900895E9EBF0E08081BA
:1006A0008C7F808380E28093B8000895CF93DF939E
:1006B00000D0CDB7DEB7909164009F77909364002F
:1006C0006A8389830E944D0394EA9093BC008981D8
:1006D0006A819091BC0097FFFCCF4091B900487FA0
:1006E00050E0611103C028E030E002C020E130E0BA
:1006F00042175307A9F48093BB0084E88093BC00A1
:100700008091BC0087FFFCCF8091B900887F883141
:1007100049F08091B900887F803421F08EEF03C0CA
:100720008FEF01C080E00F900F90DF91CF9108957F
:1007300060E00C94560361E00C9456038093BB0078
:1007400084E88093BC008091BC0087FFFCCF80913F
:10075000B900887F883211F08FEF089580E0089506
:10076000662311F024EC01C024E82093BC0022E2AF
:1007700033E003C021503109C1F04091BC0047FF74
:10078000F9CF4091B900487F50E0662319F020E589
:1007900030E002C028E530E04217530731F42091E1
:1007A000BB00FC01208380E008958FEF089561E095
:1007B0000C94B00360E00C94B00384E98093BC0017
:1007C0008091BC0084FDFCCF8091BC008D7F809324
:1007D000BC008091640080688093640087B18C7F46
:1007E00087B988B1836088B908951F93CF93DF9349
:1007F000EC01162F888580FF1EC0EC81FD813097AB
:10080000D1F0D093ED03C093EC0382E08887CE0152
:1008100006960995992787FD90950297029710F003
:10082000133839F4BE01CE01DF91CF911F910C94A2
:100830001F0481E08887DF91CF911F910895CF92A7
:10084000DF92EF92FF920F931F93CF93DF93EC0110
:100850006B01E090EC03F090ED030091EE0310913A
:10086000EF03F80103C00190F081E02DEC17FD07C4
:1008700019F03097C1F746C0209709F443C0888526
:10088000882309F118860BC0C017D10729F0AE01E3
:1008900067E8C8010E94F503F80100811181011584
:1008A000110591F7EC81FD81309769F0CC15DD05DC
:1008B00051F0D093ED03C093EC0340E050E063E8C7
:1008C000CE0106960995E091EE03F091EF03CE1765
:1008D000DF0791F4888199819093EF038093EE0371
:1008E0000DC0808191818C179D0729F488819981A1
:1008F0009183808303C0FC01309799F7F092ED0358
:10090000E092EC03DF91CF911F910F91FF90EF9058
:10091000DF90CF9008951F93CF93DF931092F00351
:10092000C091EE03D091EF0311E00EC089858823BA
:1009300041F01887198640E050E062E8CE010E943D
:10094000F5030990D881C02D209781F7DF91CF91D1
:100950001F9108958091F103982F9F5F9093F10369
:1009600008956091EC037091ED030C941F048AE8E4
:100970008093F1031092F2031092F30310928A0F06
:100980001092EF031092EE031092ED031092EC031D
:1009900008958091F00381110E948B047091F303FC
:1009A000772309F452C0E091F2032E2F30E085E066
:1009B000E89FF0011124EC50FC4F608160931C040F
:1009C0004181528150931E0440931D048381948180
:1009D0009093200480931F042F5F3F4F277033278D
:1009E0002093F20371507093F303009739F58091CF
:1009F000EE039091EF0317C08091F00381110E94E4
:100A00008B0440911D0450911E0460911C04809140
:100A10002104909122040E94F503E0912104F091B9
:100A200022048081918190932204809321048091FB
:100A3000210490912204892BF9F607C0613819F43A
:100A400021E0FC0120870E94F5032091F0038091B2
:100A5000F30330E0280F311DC90108952091F00300
:100A60008091F30330E0280F311DC90108952091D2
:100A7000F3032830E1F0E091F203E20FE770E09336
:100A8000230435E0E39FF0011124EC50FC4F608318
:100A90005283418394838383822F8F5F8093F303F8
:100AA00090918A0F981730F480938A0F03C021E049
:100AB00030E002C020E030E0C9010895CF93DF9319
:100AC000C091EC03D091ED030E94F503D093ED03A8
:100AD000C093EC03DF91CF910895AB013091EE0309
:100AE0002091EF03E32FF22F03C00190F081E02D5E
:100AF000E817F90791F03097C1F7009771F0FC0102
:100B0000308321839093EF038093EE0321E02087CD
:100B10001782168261E80C945E050895009749F0EB
:100B2000FC0120852150223020F421E021872093F0
:100B3000F003089521E030E0FC018085811102C0BE
:100B400020E030E0C90108958091240490912504AB
:100B5000892B29F4109227041092260408950E94EC
:100B6000AA27E0912404F091250422813381408159
:100B70005181240F351F281B390B0CC04281538132
:100B800060817181460F571F481B590B421753074D
:100B900008F49A010480F581E02D309779F7280F49
:100BA000391F309327042093260408958AE092E0A9
:100BB0000C948E05EF92FF920F931F93CF93DF93C8
:100BC0008C01FC0180819181009729F08A35910583
:100BD00009F064C068C010922504109224048AE5CC
:100BE00090E0F8019183808381E064C00480F58106
:100BF000E02D309709F4EFCF868197818417950710
:100C0000A9F3E0932404F09325040FC016968D9168
:100C10009C9117978417950739F414968D919C91A0
:100C200015979583848301C0FD01A481B581109738
:100C300069F7D5CF623899F6C0912404D091250484
:100C4000E12CF12C28C0CE010E94BB41892BF1F090
:100C5000AE0168E88E819F810E943705892BA1F43F
:100C60001F821E828C819D81E114F10421F0F70125
:100C70009583848304C090932504809324041D826B
:100C80001C820E94A405D8CF0E94D6059C818D812C
:100C90007E01C92FD82F2097B1F6A1CFF80111827C
:100CA000108283E007C0673829F6E0912404F091B0
:100CB00025049FCFDF91CF911F910F91FF90EF906F
:100CC0000895CF93DF93EC010E94D6058E819F811A
:100CD0003091240420912504892B61F0E32FF22F19
:100CE00007C0EC17FD0709F411C00480F581E02D61
:100CF0003097B9F78091EC039091ED039F838E8339
:100D00003C832D83D0932504C0932404DF91CF919D
:100D10000C94A405CF93DF93EC010E949B41CE017C
:100D2000DF91CF910C946106CF93DF93EC010E9489
:100D3000A741CE01DF91CF910C946106CF93DF9351
:100D4000EC010E94B141CE01DF91CF910C9461067C
:100D5000FC0120813181260F371F318320830C94C1
:100D6000A40521E030E0FC0186819781892B11F0F8
:100D700020E030E0C9010895FC01228133818081A7
:100D80009181280F391FC9010895FC01808191814B
:100D9000089521E030E08091240490912504892B6E
:100DA00011F420E030E0C90108958091240490916D
:100DB0002504892B29F0209126043091270402C0B4
:100DC00020E030E0C9010895CF93DF93EC01E0917A
:100DD0002404F09125048E179F0741F48C819D8196
:100DE000909325048093240412C0FC01309731F0C5
:100DF000848195818C179D07C1F705C01D821C82D7
:100E00001F821E8207C08C819D81958384830E94EE
:100E1000A405F4CFDF91CF910895EF92FF920F9345
:100E20001F93CF93DF938C017A01FC018081918124
:100E3000009729F08B34910509F047C04DC089E235
:100E400094E00E94E941EC0109C06C817D81CE01F2
:100E500002960E948A060990D881C02D2097A9F792
:100E600081E0809328048BE490E0F80191838083F3
:100E700031C089E294E00E94E941EC0123C0CE0137
:100E80000296E816F906D9F4BE0189E294E00E94C0
:100E90002442E090EC03F090ED038A859B859093CB
:100EA000ED038093EC03EC85FD85309719F08E857A
:100EB0009F850995F092ED03E092EC03D4CF099061
:100EC000D881C02D2097D9F6CECFF801118210829B
:100ED00083E005C081E003C06838E1F7CACFDF9145
:100EE000CF911F910F91FF90EF90089510922804D9
:100EF00089E294E00E94E54160E070E084E192E0E4
:100F00000C946D050F931F93CF93DF93EC01009129
:100F1000EC031091ED031B870A875D874C873F87A1
:100F20002E8780912804882379F084E192E09093C1
:100F3000ED038093EC03CE0102960E948A06109383
:100F4000ED030093EC0302C07D836C83BE0189E254
:100F500094E00E942442BE0189E294E0DF91CF91A7
:100F60001F910F910C9453420F931F93CF93DF93D4
:100F7000EC0180912804882391F00091EC031091FA
:100F8000ED0384E192E09093ED038093EC03CE01B6
:100F900002960E9494061093ED030093EC03BE01A9
:100FA00089E294E00E942442BE0189E294E0DF914C
:100FB000CF911F910F910C9453420F931F93CF9396
:100FC000DF93EC0180912804882391F00091EC03D9
:100FD0001091ED0384E192E09093ED038093EC0394
:100FE000CE0102960E949E061093ED030093EC033F
:100FF000BE0189E294E00E942442BE0189E294E0AD
:10100000DF91CF911F910F910C945342CF93DF93B7
:10101000EC0180912804882329F0CE0102960E94D9
:10102000E40604C01F821E8219861886BE0189E26A
:1010300094E0DF91CF910C942442CF93DF93EC01A5
:1010400080912804882331F0CE010296DF91CF9160
:101050000C94B10689E294E00E94E94106C08C1725
:101060009D0741F0FC01808191810097C1F721E04B
:1010700030E002C020E030E0C901DF91CF91089557
:101080000C9487570C9483574F925F926F927F9284
:101090008F929F92AF92BF92CF92DF92EF92FF9288
:1010A0000F931F93CF93DF934C01C0E0D0E0612CEE
:1010B000712C82E8E82E81E0F82E90E8C92E91E0AC
:1010C000D92E2DE7A22E21E0B22E01C0E201F401BB
:1010D000E60DF71D108100E081812801480E511CAA
:1010E0004114510479F4D7FD10C02E018FEF481A36
:1010F000580ACD2B09F5BF92AF920E94D8570F9096
:101100000F901AC01C161D0654F06114710449F0AA
:10111000DF92CF920E94D8570F900F9002C0CFEF6E
:10112000DFEF5F924F92FF92EF920E94D8570F909D
:101130000F900F900F902E0182E0680E711C80E1DD
:101140006816710419F6DF91CF911F910F91FF90EE
:10115000EF90DF90CF90BF90AF909F908F907F9057
:101160006F905F904F900895CF92DF92EF92FF9231
:101170000F931F93CF93DF93EC0100E010E037E86B
:10118000E32E31E0F32E45E8C42E41E0D42E06C014
:10119000DF92CF920E94D8570F900F9089911F92A3
:1011A0008F93FF92EF920E94D8570F5F1F4F0F90BF
:1011B0000F900F900F900830110551F7DF91CF91EC
:1011C0001F910F91FF90EF90DF90CF9008959C01B9
:1011D00041505109460F571FFB010EC0B081A0E0DE
:1011E0008181BD01680F711D260F371F2617370734
:1011F00010F42F5F3F4F3296E417F50778F3E417AA
:10120000F50749F4908180E0280F391F2817390726
:1012100010F42F5F3F4FC90108950F931F93CF9391
:10122000DF9300D0CDB7DEB700912C0430919F0F33
:1012300020E010E0201B310B9091A00F290F311DF1
:101240003A83298329813A8140E250E063EA7FE0D2
:10125000F901E80FF11DCF010E94E70849815A8189
:10126000B8016D53704F0E94E708009719F0382FAE
:10127000292F02C02FEF3FEFC9010F900F90DF9190
:10128000CF911F910F91089520912C04822F90E00F
:101290008896FC01E556F04F418138E0439FA0015C
:1012A0001124495F5F4F62E034C0E80FF91FE55633
:1012B000F04F3081332319F0313019F427C06F5FBC
:1012C00028C0307C303829F0303C49F03034F1F41B
:1012D00003C060932B0409C060932B0423C0609368
:1012E0002B048091B30F8F3FE9F030E040E050E0F5
:1012F000285D3F4F4F4F5F4F260F311D411D511D40
:1013000062E084E00E94E81782E0089531813E5F48
:10131000630FE62FF0E04E175F073CF660932B0457
:1013200080E0089581E00895FC015381560F5093A9
:10133000920F872F99274281480F4093910FA181E7
:10134000A093900FE081E0938F0F242F30E02817B7
:10135000390748F48A2F8F5F8093900F811103C063
:10136000EF5FE0938F0F852F90E077278617970721
:1013700088F44F5F4093910F41110CC08091900F02
:101380008F5F8093900F811105C080918F0F8F5FC9
:1013900080938F0F0895AB01BC0180E090E00E9424
:1013A000E708382F292FC901089548E250E06BE97A
:1013B0007FE080E090E00E94E708009719F0382F66
:1013C000292F02C02FEF3FEFC90108958AE30C9443
:1013D0000D0986E00C940D0981E10C940D090E9421
:1013E0001A2480E0E82FF0E0EE0FFF1FEC5BFE4ECA
:1013F000118210828F5F8830A8F380E09CE2989F72
:10140000F0011124EC56FF4E15A28F5F8430B8F323
:1014100080E094E09093300480932F0480E099E181
:10142000989FF0011124EA5AFE4E118A108A8F5FAC
:101430008C30B0F380932E040895CF93DF932091E6
:101440002F0430913004CCE22F5F3F4F21154DE740
:10145000340710F020E030E1F22FE32F40E050E0BD
:1014600015C0C49FD001C59FB00D1124AC56BF4E0E
:101470009596DC919597DD2339F050960D90BC91AF
:10148000A02DAE17BF0701F34F5F5F4F44305105EA
:1014900041F73093300420932F0410922E0420E063
:1014A000C0E0D0E04CE21BC0429FD0011124AC56FA
:1014B000BF4E95963C919597311104C020932E0410
:1014C000ED0111C0373051F4209739F096965C91B8
:1014D00096973EA1351708F001C0ED012F5F24302B
:1014E00018F320932E042097A9F122E02DA3209138
:1014F0003104288F20913204298F209133042A8FC0
:10150000209134042B8F1C8A1D8A1E8A1F8A20E397
:1015100030E03F8F2E8F39A328A321E030E03D8FAC
:101520002C8F1FA221E02EA323E02CA31AA240E1BE
:101530004BA320912F0430913004322723273227E8
:10154000398B288B7B8B6A8BFC01DE0101900D921D
:101550004A95E1F7CE01DF91CF910895CF93DF93C4
:1015600020912F04309130042F5F3F4F21154DE71C
:10157000340710F020E030E1522F432FA6E6B1E10E
:10158000C0E008C0ED91FC911197CF5F5996E41728
:10159000F50751F3CC30B1F73093300420932F048A
:1015A00040E059E114C0E42FEF5F549FE0011124A3
:1015B000CA5ADE4E28893989232B41F440932E04E0
:1015C0009E01209749F420E030E025C04E2F4C309A
:1015D00050F340932E04F7CF40912F0450913004E4
:1015E000542745275427598B488B7B8B6A8B009750
:1015F00041F4EC2FFD2F80E1DF011D928A95E9F780
:1016000007C040E1FC01DE0101900D924A95E1F72F
:1016100080918F128C8BC901DF91CF91089540E0AA
:1016200013C0E42FF0E0542F5F5FEE0FFF1FEC5B61
:10163000FE4E208131812817390729F440932E046A
:10164000118210820895452F483058F340932E049C
:10165000089540E012C0E42FF0E0542F5F5FEE0FDA
:10166000FF1FEC5BFE4E20813181232B29F4409338
:101670002E04918380830895452F483060F3409372
:101680002E0408959F92AF92BF92CF92DF92EF9275
:10169000FF920F931F93CF93DF93C0919210D0913D
:1016A0009310843009F46CC327ED3FE03093911020
:1016B0002093901030938E0F20938D0F833061F420
:1016C0008DA18F70833009F071C08C8D9D8D892B19
:1016D00011F00C94D1138AC0823009F08BC01092A3
:1016E0008C0F10928B0F1092551110925411809103
:1016F00034048F5F80933404811113C080913304CC
:101700008F5F8093330481110CC0809132048F5F0E
:1017100080933204811105C0809131048F5F8093E2
:1017200031042DA1273011F0253051F48EA18F5FA7
:101730008EA3883711F00C94D1131DA20C94D113F1
:10174000222311F40C94D1138C8D9D8D892B09F4D7
:1017500049C08EA1982F91509EA381110C94D11352
:101760003FA1383031F0822F8150823048F435303B
:1017700039F41DA280E880938B100E94D916D6C63A
:10178000353040F483E090E0032E01C0880F0A94C6
:10179000EAF701C080E38EA33F5F3FA3822F8F70E3
:1017A0008330D1F040F4813009F4B5C4823011F0B7
:1017B0000C94D1130AC0863009F453C6883009F45A
:1017C00050C6843009F0EDC74CC6E0912C04F0E01F
:1017D000ED53F04F1586A6C484E080938B100E94D1
:1017E000D916DBC62F70233009F0DBC788E0809361
:1017F0008B1091C6853019F5E0918E10F0918F1005
:1018000080899189892B09F4CCC71092931010928A
:1018100092108BEC9FE09093911080939010909396
:101820008E0F80938D0F10925511109254111092BB
:101830008C0F10928B0F88E080938B109FC2809149
:101840009B0F807F803609F0ACC790919F0F80E09E
:101850002091A00F820F911D20918B0F30918C0F42
:101860002817390708F49DC7889690938C0F8093AA
:101870008B0F8091A30F8F3F09F493C783EB9FE0F9
:101880000E94601F892B09F016C183EB9FE00E9424
:10189000A420892B09F00FC12091B30F2F3F09F429
:1018A0008FC02E3F29F48091B40F803809F488C08E
:1018B0008091A30F8E3F29F48091A40F803809F402
:1018C0007FC08091A30F9091A40F892B59F580912F
:1018D000A50F9091A60F892B29F58091A70F9091C4
:1018E000A80F892BF9F48091A90F9091AA0F892B49
:1018F000C9F48091AB0F9091AC0F892B99F4809132
:10190000AD0F9091AE0F892B69F48091AF0F90913C
:10191000B00F892B39F48091B10F9091B20F892BC0
:1019200009F44EC08091B30F9091B40F892B51F5FB
:101930008091B50F9091B60F892B21F58091B70F4B
:101940009091B80F892BF1F48091B90F9091BA0F53
:10195000892BC1F48091BB0F9091BC0F892B91F41E
:101960008091BD0F9091BE0F892B61F48091BF0FC4
:101970009091C00F892B31F48091C10F9091C20FCB
:101980000197F1F080918B0F90918C0F81309540F1
:1019900038F020E035E040E050E060E082E009C04F
:1019A0008091A20F823040F420E030E0A90160E095
:1019B00083E00E94E817FDC681508093A20FF9C60C
:1019C0008091A30F8E3F09F0ECC68091A40F803860
:1019D00009F0E7C68091A30F9091A40F892B59F5C8
:1019E0008091A50F9091A60F892B29F58091A70FC3
:1019F0009091A80F892BF9F48091A90F9091AA0FCB
:101A0000892BC9F48091AB0F9091AC0F892B99F47D
:101A10008091AD0F9091AE0F892B69F48091AF0F3B
:101A20009091B00F892B39F48091B10F9091B20F42
:101A3000892B09F4B6C68091B30F9091B40F892B0E
:101A400059F58091B50F9091B60F892B29F58091AA
:101A5000B70F9091B80F892BF9F48091B90F90913D
:101A6000BA0F892BC9F48091BB0F9091BC0F892BC1
:101A700099F48091BD0F9091BE0F892B69F48091EC
:101A8000BF0F9091C00F892B39F48091C10F9091B5
:101A9000C20F019709F485C62F3F09F482C683EB74
:101AA0009FE00E94301F81117CC620E030E0A90138
:101AB00062E081E07ECF81EA9FE090938D10809379
:101AC0008C1010922C0410922D04E0918C10F09147
:101AD0008D1080818B3209F45EC048F4863009F4A1
:101AE000B5C1813109F4BAC0882381F07AC08A3344
:101AF00009F481C020F48C3209F073C052C68B33D4
:101B000009F44FC68C3309F06CC01FC080912D04BE
:101B100080FD67C0816080932D040E94440981305C
:101B200009F43FC608F022C080912C04E82FF0E0B1
:101B3000ED53F04FF0938D10E0938C10885F9181FE
:101B400068E0969F800D112449C080912D0481FF8B
:101B500004C086FD46C0806401C0826080932D046D
:101B60000E944409813009F41CC620F0823009F03B
:101B7000ACCF1FC680912C04E82FF0E0ED53F04F5E
:101B8000F0938D10E0938C10885F918178E0979F9F
:101B9000800D112423C080912D0482FD22C0846019
:101BA00080932D0480912C04282F30E0F901ED530F
:101BB000F04F9381992341F0265D3F4F442737FD35
:101BC0004095542F60E015C0F0938D10E0938C1079
:101BD000885F9181E8E09E9F800D112480932C0402
:101BE00074CF9F012B593F40442737FD4095542F18
:101BF00061E084E0DECE0E94E609019609F0D1C5DD
:101C0000E0912C04F0E0ED53F04F80818638D1F064
:101C100038F48138B9F08538A9F0803899F40FC0CC
:101C2000883839F018F08B3969F406C00E94111910
:101C30000DC00E94F61B0AC00E94B23B07C00E9462
:101C40007F1704C010928C0F10928B0F80918B0F16
:101C500090918C0F892B09F4A4C5ABC580918B0F93
:101C600090918C0FC09790938C0F80938B0F8BEC7F
:101C70009FE09093911080939010E0912C04F0E0FD
:101C8000ED53F04F86819781892B69F400912C04E4
:101C900010E00D53104FF801E280F380E114F104DD
:101CA00009F47FC506C00E94EC09019609F079C5C8
:101CB000EDCF86E591E190938F1080938E103FC019
:101CC000888999890097B1F1E816F90699F58A890A
:101CD0009B89009731F0F80120813181281739075D
:101CE00049F588819981892BE1F48A819B81892B2F
:101CF000C1F48C819D81892BA1F48E819F81892BD8
:101D000081F488859985892B61F48A859B85892B47
:101D100041F48C859D85892B21F48E859F85892BA7
:101D2000C1F040E150E0BE0183EA9FE00E9492577B
:101D3000009779F06996D0938F10C0938E10C09160
:101D40008E10D0918F10F2E1C238DF0708F4B8CFBF
:101D500028C5109293101092921082E080938B10FD
:101D60008BEC9FE0909391108093901090938E0F46
:101D700080938D0F10925511109254110E94D91614
:101D80008091541190915511009709F40AC59C0156
:101D9000205D3F4F30938C0F20938B0F08969093CC
:101DA0009F0F28522093A00FE0918E10F0918F107A
:101DB00024892093A20F21E12093A10FA0912C044C
:101DC000B0E0AD53B04F98278927982715969C937C
:101DD0008E93149717961C921E921697808991895C
:101DE00011969C938E938289938913969C938E93DC
:101DF000129780E1A3EBBFE001900D928A95E1F785
:101E000063EB7FE083EA9FE00E941F2287ED9FE063
:101E10009093911080939010C0912C04D0E0CD53FA
:101E2000D04F0E94EC09809590959F838E83E0911E
:101E30002C04F0E0ED53F04F86819781892B09F057
:101E4000A6C48FEF9FEF97838683A1C40E94E90900
:101E5000019609F0A6C400912C0410E00D53104F18
:101E6000F801E280F380E114F10409F49AC4A0803F
:101E7000B180A114B10409F494C479EBC72E70E1C8
:101E8000D72EC4E9D0E1F60190809920A1F088898D
:101E90009989E816F90679F48A899B89A816B90602
:101EA00051F440E150E0BE0183EA9FE00E94925766
:101EB000009709F44EC1AC96FCE2CF0ED11C21E193
:101EC000C434D20701F7F80185858F738230B9F4E5
:101ED000F0923604E092350420E00DC0E22FF0E0ED
:101EE000EE0FFF1FEC5BFE4E808191812F5FE816A5
:101EF000F90609F453C0283088F320932E04E091AA
:101F00002C04F0E0ED53F04F858582FD4AC484E156
:101F100085878CE390E090938C0F80938B0F80E506
:101F200084878781938597833681928596833287CC
:101F30002581918595832187948190932E044085F6
:101F4000448390878F5F838781110CC0832F8F5FBD
:101F50008287811107C0822F8F5F8187811102C024
:101F60009F5F9087808191819093360480933504A0
:101F700022813381318320839383828380E1E3EA6A
:101F8000FFE0A3EBBFE001900D928A95E1F763EBD0
:101F90007FE083EA9FE00E941F22DAC310922E04A2
:101FA00020E0C0E0D0E03CE220C0822F90E0389FEB
:101FB000F001399FF00D1124EC56FF4E45A141115F
:101FC00004C020932E04EF0114C0473069F4209719
:101FD00021F056A14EA1451738F4389FE001399FF2
:101FE000D00D1124CC56DF4E2F5F2430F0F2209319
:101FF0002E04209709F4D5C3D0939310C093921068
:1020000083E08EA38CA31AA284E08BA31FA2F80105
:1020100082819381998B888B808191819B8B8A8B24
:1020200080E1E3EAFFE0DE0101900D928A95E1F79D
:1020300081E08DA380913104888F80913204898F53
:10204000809133048A8F809134048B8F81E090E0FB
:102050009D8F8C8FF80187818F8B86818E8B8581F8
:102060008D8B84818C8B81E090E00E947E56E09184
:102070002C04F0E0ED53F04F8485282F207F30E0D2
:10208000213531050CF447C082958F7090E005979B
:10209000880F991F880F991F5091370440E032C074
:1020A000F901E556F04F54AD511105C040932E048F
:1020B0001092370430C0513011F44F5F23C05230BA
:1020C000C9F465AD6430B1F440932E0450933704E5
:1020D00096AD80E027AD822B909336048093350433
:1020E0008133910510F080E390E09F8F8E8F99A34C
:1020F00088A311C0F901E852F04F2081211101C0DD
:1021000006C0420F242F30E0281739074CF24093C5
:102110002E0450933704E0912C04F0E0ED53F04F7F
:1021200080E18587E0912C04F0E0ED53F04F858548
:102130008260858782E0848B84E0858B168A80E3C9
:10214000878B80E490E090938C0F80938B0F80E6D8
:10215000C2C2D0939310C093921010928B10F801CA
:10216000258522FF03C01DA280E24DC2F8013485FF
:1021700032953F70330F330F30932E0480918B0FC5
:1021800090918C0F8897831B910990938C0F80936B
:102190008B0F392D3F70323029F4322F3F7332319B
:1021A00039F41FC0313021F4322F3F733230C9F07F
:1021B000892B19F4822F8370A1F0F80194818C8906
:1021C00098130CC095818D89981308C096818E89CB
:1021D000981304C097818F89981719F021FD9BCF20
:1021E00067C224FF4BC06C8D7D8D6115710509F4AC
:1021F00045C0CE0148960E949409E0912C04F0E07D
:10220000ED53F04F308580918F0F381337C0218503
:102210008091900F281332C092858091910F98136E
:102220002DC083854091920F841328C0388F298F49
:102230009A8F8B8F8FA181111AC02AA18CA19EA188
:10224000891B922F969596959695891B280F2AA300
:1022500087FD81959BA1392F36953695931B980F55
:102260009BA3822F869586958695890F8CA381E006
:1022700080938B108CA18EA31D8E1C8E4DA1842F5C
:102280008F70843009F4C4C140F48230A9F108F0A1
:10229000BAC0813009F085C20CC0863009F400C292
:1022A00008F4DAC1873009F403C2883009F079C232
:1022B000A4C180918B1080FF14C083E08DA380E4C3
:1022C00080938B101D8E1C8E80918B0F90918C0FA4
:1022D000009709F41CC122E420938B100E947E56C3
:1022E00016C1E0912C04F0E0ED53F04F85858F731B
:1022F000823009F056C20FCF80918B1080FF78C0DA
:10230000E0912C04F0E0ED53F04F85858F7382311E
:1023100009F06EC08485282F207F30E021353105FB
:102320000CF44EC082958F7090E00597880F991F2E
:10233000880F991F5091370440E039C0D901A55644
:10234000B04FDC965C91DC97511105C040932E0490
:102350001092370435C0513011F44F5F28C052300D
:10236000F1F4DD966C91DD976430C9F440932E044E
:1023700050933704DE969C91DE9780E0DF962C9197
:10238000822B90933604809335048133910510F0AD
:1023900080E390E09F8F8E8F99A388A311C0D9010D
:1023A000A852B04F2C91211101C006C0420F242F1A
:1023B00030E02817390714F240932E045093370465
:1023C00083E08DA384818C8B85818D8B86818E8B20
:1023D00087818F8B81E090E00E947E5682E480931B
:1023E0008B101D8E1C8E10928C0F10928B0F8FC035
:1023F00080E280938B100E94D916E0919210F091A8
:10240000931015A27CCDE0912C04F0E0ED53F04F39
:10241000858580FF2DC044FD2BC08C8D9D8D892B23
:1024200009F0BFC180918B0F90918C0F01960E9493
:102430007E5620918B10822F806180938B1080912B
:102440008B0F90918C0F892B19F0226120938B10A8
:102450000E94D91681E090E09D8F8C8F88E08DA33B
:102460001FA2E0912C04F0E0ED53F04F81E126C172
:1024700085FF1AC0928980E02389BC01622B9B01F1
:102480008091901090919110820F931F90939110D2
:102490008093901080918B0F90918C0F821B930BE7
:1024A00090938C0F80938B0F80918B0F90918C0F5A
:1024B000009749F044FD07C020918B1022602093C3
:1024C0008B100E947E56E0912C04F0E0ED53F04F0B
:1024D000968580E02785820F911D90933604809326
:1024E000350428A139A12817390710F0892B21F4C8
:1024F000309336042093350480913504909136044E
:102500009F8F8E8F80918B10837009F44AC1109237
:102510005511109254110E94D91680918B1085FF8D
:102520000CC010925511109254111DA2E0912C0470
:10253000F0E0ED53F04F84E1C1C084FF0AC0109277
:1025400055111092541181E090E09D8F8C8F84E0A2
:1025500086CF209154113091551121153105E1F0AC
:1025600080FF02C01D8E1C8E8C8D9D8D009781F486
:102570008E8D9F8D8217930720F490935511809331
:10258000541180915411909155119D8F8C8F04C0DE
:1025900090935511809354111FA280918D0F9091AB
:1025A0008E0F909391108093901080915411909180
:1025B0005511892B81F08C8D9D8D009761F0CC9603
:1025C00090938C0F80938B0FE0912C04F0E0ED53EF
:1025D000F04F88E110C080918B1081FFE2C08CE346
:1025E00090E090938C0F80938B0FE0912C04F0E09F
:1025F000ED53F04F80E1858768C080918B1080FF9C
:10260000D0C01DA280E180938B100E94D916C9C052
:1026100080918B0F90918C0F009711F00E947E5645
:10262000E0912C04F0E0ED53F04F958580918B10F4
:1026300090FF0BC080FF06C087E08DA31EA21D8EF9
:102640001C8E1DC086E08DA31AC080FF22C085E0CD
:102650008DA31D8E1C8EA5C080918B0F90918C0F29
:10266000009711F00E947E56E0912C04F0E0ED53AB
:10267000F04F858580FF0DC087E08DA31EA281E00D
:1026800090E00E947E5680E180938B100E94D916C4
:102690000FC080918B0F90918C0F892B49F481C0D2
:1026A00080918B1080FF7DC087E08DA31EA279C032
:1026B000E0912C04F0E0ED53F04F80E185878CE34E
:1026C00090E090938C0F80938B0FE0912C04F0E0BE
:1026D000ED53F04F80E58487E0912C04F0E0ED535A
:1026E000F04F8C8980878D8981878E8982878F8939
:1026F0008387888D8483898D85838A8D86838B8D5E
:10270000878386E08093A10F88899989918380834C
:102710008A899B899383828380E1FE01A3EBBFE0DA
:1027200001900D928A95E1F763EB7FE083EA9FE0E9
:102730000E941F228DA1E0912C04F0E0ED53F04F98
:1027400084FF03C01786168603C0168680E387873A
:1027500080918F128093A20F80918B0F90918C0F9C
:102760009C012852310930939F0F88528093A00F0B
:10277000C0912C04D0E0CD53D04F1B8A1A8A198AFD
:10278000188A0E94E90980959095998B888B80E63C
:1027900080939B0F10929C0F10929E0F10929D0F92
:1027A00008C010928C0F10928B0F10922C04109274
:1027B0002D0410928B10DF91CF911F910F91FF90FC
:1027C000EF90DF90CF90BF90AF909F900895382FFB
:1027D000292FC90108950E942C570895E0918D0F6B
:1027E000F0918E0F4BE850E14E1B5F0B9B0146179B
:1027F00057070CF49A011216130664F4209354112F
:10280000309355118E179F0729F0A901BC01CF0104
:102810000C949F5708958DE594E00E94B106892B92
:1028200021F08DE594E00C949E060895E091380423
:10283000F0913904309709F0099480E0089590935D
:1028400039048093380408952091EC033091ED030E
:1028500060E0EBE3F4E012C0408151814817590772
:1028600059F4428153814217530731F4609366044F
:10287000118210820C940F0B34966F5F683060F3F6
:1028800060936604089540E0EBE3F4E014C0542F35
:102890005F5F20813181232B61F440936704918332
:1028A00080832091EC033091ED03338322830C94D9
:1028B000290B3496452F483050F340936704089510
:1028C0002091EC033091ED03FC0131A720A773A701
:1028D00062A708952091EC033091ED03FC01368B43
:1028E000258B708F678B0895CF93DF93EA010E9449
:1028F000AE0AFC01009741F08091EC039091ED034A
:10290000968B858BD08FC78BCF01DF91CF910895A8
:102910000F931F93CF93DF93CDB7DEB760970FB6BA
:10292000F894DEBF0FBECDBF8C01AB018FEF92E0FC
:102930009A8389831C821B821E821D8218861F82B5
:102940001A8619861C861B861E861D8680E091E0ED
:10295000988B8F87B801CE0101960E947414FC01F8
:10296000009711F0118B008BCF0160960FB6F89491
:10297000DEBF0FBECDBFDF91CF911F910F910895A4
:1029800040E050E062E08EE192E00E945E0510922D
:102990008C0F10928B0F10922C0408950F931F939D
:1029A000CF93DF9380918B0F90918C0F009709F458
:1029B000C3C08130954008F0B0C08091B30F9091B2
:1029C000B40F892B59F58091B50F9091B60F892BD3
:1029D00029F58091B70F9091B80F892BF9F4809168
:1029E000B90F9091BA0F892BC9F48091BB0F9091C8
:1029F000BC0F892B99F48091BD0F9091BE0F892B4C
:102A000069F48091BF0F9091C00F892B39F48091A8
:102A1000C10F9091C20F892B09F47FC08091B30F31
:102A20008F3F09F47FC083EB9FE00E94301F81112C
:102A300010C083EB9FE00E944B21009731F40E946D
:102A4000841E8C01009739F468C08C010D5E1F4F05
:102A500002C003EB1FE0C8010E94F41DEC010097C7
:102A6000A1F520E040E060E070E0C8010E945C1D3C
:102A7000EC01009709F451C083EA9FE00E94601FB7
:102A8000AE014F5F5F4F60E070E0892B19F083EA81
:102A90009FE002C080E090E00E942C1B60919812A1
:102AA0007091991280919A1290919B1228EE33E0C6
:102AB00040E050E00E940A57BA01A901CE01819678
:102AC0000E94CF4281E08BA72DC08DA58823A1F164
:102AD000823059F483E08DA745E050E060E070E07B
:102AE000CE0149960E94CF421BA660919812709128
:102AF000991280919A1290919B1228EE33E040E057
:102B000050E00E940A57BA01A901CE0181960E94A5
:102B1000CF42CE0141960E94161410928C0F109253
:102B20008B0F0AC080E090E00E94161410928C0F68
:102B300010928B0F10922C04DF91CF911F910F9167
:102B40000895EF92FF920F931F93CF93DF937C0131
:102B5000EA01FC0180819181009729F08C3093403B
:102B600009F0E3C0E7C080E024E0829FF001112477
:102B7000E55CFB4F118210828F5F8830A8F3809351
:102B80003A048091EC039091ED0390935C04809360
:102B90005B040E94AA048093821260E470E08DE5D9
:102BA00094E00E948A060E94EF090E945B338CE049
:102BB00093E0F7019183808381E0CDC0109265049A
:102BC0000BE314E016C0F801828193818C179D07F6
:102BD00049F4808191810E940F0BF80111821082CB
:102BE000138212820C5F1F4F809165048F5F809368
:102BF000650480916504883030F3E9EBF0E183816E
:102C000094818C179D0719F4148213821082BC964C
:102C100021E1E936F20799F7E6E5F1E18589968940
:102C20008C179D0711F4118A108A799682E1E23897
:102C3000F807A1F7BCCF94E0CD35D90729F0CB5CDC
:102C4000D34109F0B4CF30C08DE594E00E94B106C5
:102C5000892BA9F3109265041CE221C01E9FF0018C
:102C60001124EC56FF4E85A18823A1F08DE594E058
:102C70000E949E0680916504189FC00111248C5605
:102C80009F4E909393108093921082E00E94420B8B
:102C90000E94CE14809165048F5F80936504E0915B
:102CA0006504E430D8F2CBCF8BEC93E10E94B106FF
:102CB000892B09F47CCF0E94C12234C0209709F4EB
:102CC00076CFD0939310C093921083E00E94420B72
:102CD0000E94CE140E940B146ACF209709F467CF8C
:102CE000D0938F10C0938E1085E00E94420B1AC0C3
:102CF00080918B0F90918C0F892B09F458CF809184
:102D0000A10F863029F48091D00F81FD0E940B1411
:102D100081E00E94420B80918B0F90918C0F892B48
:102D200009F445CF0E94CE1442CFF70111821082E0
:102D300083E011C06230E1F238F4662309F4BECFBB
:102D4000613009F034CFC9CF673809F437CF68381C
:102D500009F02DCF70CFDF91CF911F910F91FF9090
:102D6000EF900895AC0161E08EE192E00C9437059C
:102D7000AC0160E08EE192E00C9437050F931F9355
:102D8000CF93DF938A010E941D0AEC01009759F04E
:102D90008091EC039091ED0399A788A71BA70AA740
:102DA000CE010E94B816CE01DF91CF911F910F91F5
:102DB0000895CF93DF93A0919210B0919310109744
:102DC00019F0ED01A89605C0C0918E10D0918F101A
:102DD000659680918B1086FF22C01092680440E0B7
:102DE000EBE3F4E016C02081318150968D919C91E7
:102DF00051972817390759F482819381009739F048
:102E000040936804998388831B821A8206C0349693
:102E10004F5F483040F3409368040E940B14888150
:102E20009981009741F04A815B8160918212DF9124
:102E3000CF910C945E05DF91CF91089590938F1000
:102E400080938E104093541150935511EBECFFE09A
:102E50009A01413F510514F020EF30E0A901CF0164
:102E60000E949F5784E00E94420B0E94CE14109251
:102E70005511109254110895CF92DF92EF92FF9264
:102E80000F931F93CF93DF93CDB7DEB760970FB645
:102E9000F894DEBF0FBECDBF7C0180E1F701DE01FB
:102EA000119601900D928A95E1F7F701C288D388B7
:102EB00080E1F901D70101900D928A95E1F7F701C0
:102EC000138B028BC7010E941E1780E1FE01319611
:102ED000D70101900D928A95E1F7F701D38AC28A52
:102EE00060960FB6F894DEBF0FBECDBFDF91CF91D5
:102EF0001F910F91FF90EF90DF90CF9008958091F8
:102F00008F128093A20F8091B30F8F3F81F480E1E5
:102F1000E3EAFFE0A3EBBFE001900D928A95E1F7B1
:102F200063EB7FE083EA9FE00E941F221BC080E1E9
:102F3000E3EAFFE0A9E6B4E001900D928A95E1F79B
:102F400080E1E3EBFFE0A3EABFE001900D928A95F8
:102F5000E1F780E1E9E6F4E0A3EBBFE001900D9238
:102F60008A95E1F760912C046623F1F08AE380935F
:102F7000A10F70E040918B0F50918C0F461B570BA7
:102F800050938C0F40938B0FCA01889790939F0F9B
:102F9000842F88528093A00F4C5251096953704F6F
:102FA00087EC9FE00E94A85710922C0481E8809340
:102FB000C30F1092C40F1092C60F1092C50F0E943B
:102FC000E609809590959093C60F8093C50F08955C
:102FD000CF92DF92EF92FF920F931F93CF93DF93E5
:102FE000082F162F69017A0110922C048091A10FED
:102FF0008A3321F48091C30F87FFAEC080E1E3EBF9
:10300000FFE0A9E6B4E001900D928A95E1F72091E6
:103010008B0F30918C0F205D3F4F213085E03807BA
:1030200028F430938C0F20938B0F06C080E095E03E
:1030300090938C0F80938B0F40918B0F50918C0F3E
:10304000405351096BE97FE08BEC9FE00E94A85749
:1030500080E680939B0F10929C0F10929E0F10920F
:103060009D0F8AE38093A10F80918F128093A20F0E
:103070008091A30F9091A40F892B59F58091A50FF2
:103080009091A60F892B29F58091A70F9091A80FF9
:10309000892BF9F48091A90F9091AA0F892BC9F47B
:1030A0008091AB0F9091AC0F892B99F48091AD0F6B
:1030B0009091AE0F892B69F42091AF0F3091B00F32
:1030C000232B39F42091B10F3091B20F232B09F447
:1030D00043C080E1E3EAFFE0A3EBBFE001900D9283
:1030E0008A95E1F7809169048F3F21F40430A1F5BE
:1030F000123091F569E674E083EA9FE00E941F2296
:10310000C0912C04D0E0FE01ED53F04F00831183F9
:10311000C701B6010E94EB13C953D04F688379836E
:103120008A839B8380918B0F90918C0F9C012852F6
:10313000310930939F0F88528093A00FC0912C04C7
:10314000D0E0CD53D04F1B821A820E94E6098095B1
:1031500090959B838A8304C010928C0F10928B0FE2
:10316000DF91CF911F910F91FF90EF90DF90CF9063
:103170000895CF92DF92FF920F931F93CF93DF9327
:103180001F92CDB7DEB7F62E890120E620939B0F64
:1031900010929C0F10929E0F10929D0F2AE3209385
:1031A000A10F20918F122093A20F98012C5F3F4F07
:1031B00030939F0F202F2C5F2093A00F20E1FC0164
:1031C000A3EBBFE001900D922A95E1F763EB7FE05E
:1031D00083EA9FE049830E941F22C0902C04D12CD7
:1031E00083EC9FE0C80ED91EF601F082498141832D
:1031F000138212820E94E60980959095F6019383CE
:103200008283045D1F4F10938C0F00938B0F0F90E0
:10321000DF91CF911F910F91FF90DF90CF900C9491
:10322000CE14CF92DF92EF92FF920F931F93CF9322
:10323000DF938091A20F8F3F09F001C280912C048F
:1032400090E0FC01E953F04F24812F3F09F4F7C1CE
:10325000FC01ED53F04F81818111F1C110927A048C
:103260001092790484E180937B0482E0D82E98E068
:10327000C92E83C0E556F04F8181882309F4DFC150
:103280008081813009F068C0F0937A04E09379047A
:103290008091A30F9091A40F892B59F58091A50FD0
:1032A0009091A60F892B29F58091A70F9091A80FD7
:1032B000892BF9F48091A90F9091AA0F892BC9F459
:1032C0008091AB0F9091AC0F892B99F48091AD0F49
:1032D0009091AE0F892B69F48091AF0F9091B00F50
:1032E000892B39F48091B10F9091B20F892B09F499
:1032F000A6C183EA9FE00E94F41DEC0190937D0437
:1033000080937C04E0907904F0907A04009751F463
:10331000B7016E5F7F4F22E040E083EA9FE00E94AA
:103320005C1D1AC08C010F5E1F4F22E0E20EF11CE3
:1033300048E050E0B801C7010E949257009741F061
:10334000F701D8018C2D01900D928A95E1F703C009
:103350008DA5811101C0DDA680917B04E0912C0434
:10336000F0E0BC96E80FF11DE556F04F9181A8E022
:103370009A9F800D112480937B0480912C0490E00F
:103380008C9620917B04FC01E20FF11D20918B0FA4
:1033900030918C0FE217F30708F46CCF8156904FF1
:1033A0000E94601F90937F0480937E04009709F42D
:1033B00046C12091A30F3091A40F232B09F098C090
:1033C0002091A50F3091A60F232B09F091C02091D9
:1033D000A70F3091A80F232B09F08AC02091A90FC5
:1033E0003091AA0F232B09F083C02091AB0F3091AD
:1033F000AC0F232B09F07CC02091AD0F3091AE0FA4
:10340000232B09F075C02091AF0F3091B00F232B03
:1034100009F06EC02091B10F3091B20F232B09F04B
:1034200067C02091B30F2F3F09F009C12091B40F5D
:10343000223009F004C12091B50F3091B60F232B33
:1034400009F0FDC02091B70F3091B80F232B09F080
:10345000F6C02091B90F3091BA0F232B09F0EFC0BD
:103460002091BB0F3091BC0F232B09F0E8C02091B5
:10347000BD0F2111E4C02091BE0F213009F0DFC043
:103480002091BF0F2F3F09F0DAC0FC0121892223D0
:1034900061F18FEF92E09093B40F8093B30F10928D
:1034A000B60F1092B50F1092B80F1092B70F10927E
:1034B000BA0F1092B90F1092BC0F1092BB0F10925E
:1034C000BE0F1092BD0F1092C00F1092BF0F80E080
:1034D00091E09093C20F8093C10F63EB7FE083EA8A
:1034E0009FE00E941F2280E259C00E94D923A7C0FA
:1034F00083EA9FE00E94601F892B09F0A0C08091A1
:10350000B30F8F3F49F58091B40F823029F5809138
:10351000B50F9091B60F892BF9F48091B70F909168
:10352000B80F892BC9F48091B90F9091BA0F892BEC
:1035300099F48091BB0F9091BC0F892B69F4809115
:10354000BD0F811109C08091BE0F813029F4809197
:10355000BF0F8F3F09F40CC083EB9FE00E94601FF8
:1035600020917E0430917F042817390709F067C045
:1035700080E1E3EAFFE0A3EBBFE001900D928A95C2
:10358000E1F7E0912C04F0E080E1E553F04FA3EA8D
:10359000BFE001900D928A95E1F780E610922C042D
:1035A00090E690939B0F10929C0F10929E0F10929A
:1035B0009D0F10929F0F98E29093A00F9AE3909323
:1035C000A10F9FEF9093A20F98E89093C30F1092D2
:1035D000C40F8093C70FE0917E04F0917F04319671
:1035E00080E1ABECBFE001900D928A95E1F782E0BB
:1035F0008093DB0F8093DC0F88E0E3E9FFE0ADED23
:10360000BFE001900D928A95E1F786E0E5EEFFE0DC
:10361000DF011D928A95E9F71092C60F1092C50F2F
:103620000E94E609809590959093C60F8093C50FF0
:1036300080E590E090938C0F80938B0F04C01092E4
:103640008C0F10928B0FDF91CF911F910F91FF90F4
:10365000EF90DF90CF900895CF93DF93EC0110921D
:103660002C0480E680939B0F10929C0F10929E0F6B
:1036700010929D0F8AE38093A10F8FEF8093A20F8A
:103680006115710539F58093B30F92E09093B40FF3
:103690001092B60F1092B50F1092B80F1092B70F8C
:1036A0001092BA0F1092B90F1092BC0F1092BB0F6C
:1036B0001092BD0F91E09093BE0F8093BF0FFA015F
:1036C00085858093C00F868597859093C20F8093E0
:1036D000C10F08C080E1FB01A3EBBFE001900D9298
:1036E0008A95E1F787E88093C30F1092C40F109278
:1036F000C70F1092C80F1092C90F1092CA0F80E125
:10370000FA01ABECBFE001900D928A95E1F71092BF
:103710009F0FCA010E94601F892B79F5209749F0FD
:1037200080E1FE01A3EABFE001900D928A95E1F7E6
:1037300006C063EB7FE083EA9FE00E941F2288E2DD
:103740008093A00FC0912C04D0E0C552D04F81E0EF
:10375000888382E0898388E0E3E9FFE0DE01129656
:1037600001900D928A95E1F72A9686E0FE0111926A
:103770008A95E9F780E590E025C01092A40F109299
:10378000A30F1092A60F1092A50F1092A80F1092DF
:10379000A70F1092AA0F1092A90F1092AC0F1092BF
:1037A000AB0F1092AE0F1092AD0F1092B00F10929F
:1037B000AF0F1092B20F1092B10F88E18093A00F5B
:1037C00080E490E090938C0F80938B0FC0912C0439
:1037D000D0E0CD53D04F1B821A820E94E60980951B
:1037E00090959B838A83DF91CF910895DF92EF922A
:1037F000FF920F931F93CF93DF9380912C0490E05F
:103800009C01245D3F4FF901E556F04F0081409146
:10381000A20F4F3F09F0F0C0DC01AD53B04F11963D
:103820008C918111E9C084818F3F09F4E5C040E4A7
:10383000D42ED02206FF05C08091B30F8F3F09F42C
:10384000DBC040918B0F50918C0F64E180E090E0E1
:1038500016C0A556B04F11967C911197711107C0F3
:1038600090937A048093790460937B04C5C0CC91D3
:10387000C23009F4CD01A8E07A9F600D1124D9016E
:10388000A60FB11DA417B50720F390937A04809377
:10389000790460937B04CF0104960E94601F90938B
:1038A0007F0480937E04009739F0FC012189211167
:1038B000A3C00E94D923A0C080912C0490E085531E
:1038C000904F0E94F41DEC0190937D0480937C0442
:1038D000009709F491C0E0907904F0907A04E11423
:1038E000F10451F0BC016F5E7F4F48E050E0C7012A
:1038F00002960E94925701C080E0102F10789DA57B
:1039000091112AC0E114F10409F476C0DE01519648
:10391000F701329688E001900D928A95E1F7DD205B
:10392000C1F081E08DA71BA6609194127091951251
:10393000809196129091971228EE33E040E050E08B
:103940000E940A57BA01A901CE0149960E94CF42AE
:103950004EC082E08DA74BC005FD08C0882331F022
:10396000913009F049C082E08DA746C0E114F1040E
:1039700009F447C0DE015196F701329698E00190B4
:103980000D929A95E1F7DD20B9F081E08DA7609165
:10399000941270919512809196129091971228EE40
:1039A00033E040E050E00E940A57BA01A901CE017D
:1039B00049960E94CF4206C0EF2821F0882311F0DB
:1039C00082E08DA7E0917C04F0917D0484A588239A
:1039D00071F011110CC083EA9FE00E94661E909363
:1039E000810480938004009711F00E94611EE09191
:1039F0007C04F0917D0414A710928C0F10928B0F11
:103A000003C0DD20F9F2C1CFDF91CF911F910F915B
:103A1000FF90EF90DF9008958F929F92AF92BF92A8
:103A2000CF92DF92EF92FF920F93CF93DF935A01E1
:103A30004901F70111821082649F6001659FD00CDB
:103A40001124C80ED91E069506950695EC0116C0E0
:103A50008881882371F0402F50E0B401CE01019697
:103A60000E949257009741F4F701D183C08380E010
:103A700010C0F701D183C083CA0DDB1DCC15DD0555
:103A800038F3F70180819181892B11F081E001C029
:103A900082E0DF91CF910F91FF90EF90DF90CF9078
:103AA000BF90AF909F908F900895009721F0FC01F8
:103AB00010820C94273308959F92AF92BF92CF92B9
:103AC000DF92EF92FF920F931F93CF93DF936C01DE
:103AD0005B01142F922E86E9E82E84E0F82E00E890
:103AE00096014EE250E065E087E094E10E940C1DF3
:103AF00090E08130910509F049C080919604909141
:103B00009704DC0121E02D9320E1F60101900D9254
:103B10002A95E1F7DC015196A114B10439F088E04F
:103B2000F50101900D928A95E1F704C088E01D929D
:103B30008A95E9F7E0919604F091970414A795A669
:103B400040E050E0BA01CF0149960E94CF428091F7
:103B500096049091970440E050E0BA0181960E944B
:103B6000CF428091960490919704FC0113A60E9485
:103B70002733C0919604D09197040E94AA279AA750
:103B800089A7209196043091970421C00297E9F407
:103B90000E94AA27C0E0D0E0A7E0B4E12C91222344
:103BA00049F099962D913C919A972817390710F46E
:103BB000C901ED019E96F4E1AD3EBF0778F3209771
:103BC00021F0CE010E94551D86CF20E030E0C901D2
:103BD000DF91CF911F910F91FF90EF90DF90CF90E9
:103BE000BF90AF909F900895EF92FF920F9326E9B8
:103BF000E22E24E0F22E00E89C014EE250E065E067
:103C000087E094E10E940C1D811105C0209196046B
:103C10003091970402C020E030E0C9010F91FF907D
:103C2000EF9008958F929F92AF92BF92CF92DF92C2
:103C3000EF92FF920F93CF93DF936C014A015B01E8
:103C400034E9E32E34E0F32E00E89C014AE150E031
:103C500062E083ED93E10E940C1D813019F5C09163
:103C60009404D0919504DE018D9390E1F6010190CA
:103C70000D929A95E1F781149104A104B10461F0C9
:103C8000B501A401CE0141960E94CF42E091940477
:103C9000F0919504118E01C0898F20919404309188
:103CA000950402C020E030E0C901DF91CF910F916F
:103CB000FF90EF90DF90CF90BF90AF909F908F904C
:103CC0000895009711F0FC0110820895EF92FF9281
:103CD0000F9344E9E42E44E0F42E00E89C014AE10D
:103CE00050E062E083ED93E10E940C1D811105C05C
:103CF000209194043091950402C020E030E0C90185
:103D00000F91FF90EF9008951092990410929804EB
:103D100083ED93E11CC0FC012081222399F00196E0
:103D20000E94F41D20919404309195042F5F3F4F21
:103D3000009721F0FC0185A5811119C030939904E9
:103D40002093980480919404909195044A969093BE
:103D50009504809394048091940490919504F4E1E7
:103D600087309F07C0F22091980430919904C901CF
:103D700008953F924F925F926F927F928F929F929F
:103D8000AF92BF92CF92DF92EF92FF920F931F9369
:103D9000CF93DF93EC01962E342E822E270138012B
:103DA0005AE9E52E54E0F52E062F9C014CE150E037
:103DB00063E087E793E10E940C1D8130C9F42091F4
:103DC0009A0430919B04D9018D9380E1FE0101900A
:103DD0000D928A95E1F7F901918A328A838E438A9E
:103DE000548A658A768AA78AB08EC18ED28E02C026
:103DF00020E030E0C901DF91CF911F910F91FF903A
:103E0000EF90DF90CF90BF90AF909F908F907F907A
:103E10006F905F904F903F900895009711F0FC01D4
:103E200010820895EF92FF920F937AE9E72E74E0E3
:103E3000F72E062F9C014CE150E063E087E793E109
:103E40000E940C1D811105C020919A0430919B04A1
:103E500002C020E030E0C9010F91FF90EF9008957B
:103E60000F931F93CF93DF938C0187E793E1909398
:103E70009B0480939A0414C08881882361F0498947
:103E800046954695469550E0B801CE0101960E94B0
:103E90009257009779F06C96D0939B04C0939A0444
:103EA000C0919A04D0919B0483E1CB3CD80720F3C6
:103EB00080E001C081E0DF91CF911F910F910895C3
:103EC000EF92FF920F93E2E9EE2EE4E0FE2E00E87F
:103ED0009C0141E250E063E08DE992E10E940C1DFB
:103EE000811105C0209192043091930402C020E01A
:103EF00030E0C9010F91FF90EF9008954EEB52E131
:103F0000EDE9F2E1682F772767FD70951EC090817B
:103F10009923C1F08F3F39F0DA015097AC91B0E0AE
:103F2000A617B70779F4DA0190979C919E3F51F458
:103F3000DA015F979C91903829F4E0939204F09312
:103F400093040EC04F5D5F4FB1969F0193E1E03047
:103F5000F907E8F2F0939304E093920420E030E054
:103F6000C90108954EEB52E1EDE9F2E1682F7727A0
:103F700067FD70951FC090819923C9F08F3F39F07C
:103F8000DA015097AC91B0E0A617B70781F4DA01D7
:103F900090979C919E3F09F005C0DA015F979C9134
:103FA000903829F0E0939204F09393040EC04F5D93
:103FB0005F4FB1969F0193E1E030F907E0F2F09393
:103FC0009304E093920420E030E0C9010895EF9259
:103FD000FF920F93CF93DF93EC01FCE9EF2EF4E017
:103FE000FF2E00E89C0141E150E065E082E293E1B0
:103FF0000E940C1D813069F440919C0450919D04F5
:10400000DA018D9380E1FE0101900D928A95E1F72E
:1040100002C040E050E0CA01DF91CF910F91FF90C4
:10402000EF9008958F929F92AF92BF92CF92DF92BE
:10403000EF92FF920F931F93CF93DF936C014A018E
:104040005B01122FA2E9EA2EA4E0FA2E00E89C01FF
:1040500041E250E063E08DE992E10E940C1D813065
:1040600009F05DC0C0919204D0919304DE018D935C
:1040700090E1F60101900D929A95E1F7198A1A8B59
:1040800081149104A104B10411F48B8B07C01B8A25
:10409000B501A401CE0144960E94CF420E9442087D
:1040A000BC016F77772780919204909193044C968E
:1040B0000E949B41E0919204F091930410A28FEF33
:1040C0008093820492E0909383041092850410926E
:1040D000840410928704109286041092890410922E
:1040E000880410928B0410928A0410928C0491E040
:1040F00090938D0480938E04F601858580938F04C0
:1041000086859785909391048093900482E894E04B
:104110000E94E71F209192043091930402C020E096
:1041200030E0C901DF91CF911F910F91FF90EF9087
:10413000DF90CF90BF90AF909F908F9008950097A1
:1041400011F0FC0110820895EF92FF920F93BCE9E9
:10415000EB2EB4E0FB2E00E89C0141E150E065E06D
:1041600082E293E10E940C1D811105C020919C0404
:1041700030919D0402C020E030E0C9010F91FF9012
:10418000EF900895CF93DF93EC01009799F18FEFB3
:104190008093820492E0909383041092850410929D
:1041A000840410928704109286041092890410925D
:1041B000880410928B0410928A0410928C0491E06F
:1041C00090938D0480938E048E8580938F048F85C9
:1041D0009889909391048093900482E894E00E94DF
:1041E000A42090939D0480939C04009711F00E945A
:1041F0009F201882DF91CF910895EF92FF920F9345
:10420000CF93DF93EC010EE9E02E04E0F02E00E8FE
:104210009C0141E150E062E080E093E10E940C1DCE
:10422000813069F440919E0450919F04DA018D938E
:1042300080E1FE0101900D928A95E1F702C040E015
:1042400050E0CA01DF91CF910F91FF90EF90089558
:10425000009711F0FC0110820895EF92FF920F93E6
:104260002EE9E22E24E0F22E00E89C0141E150E02C
:1042700062E080E093E10E940C1D811105C0209155
:104280009E0430919F0402C020E030E0C9010F91EC
:10429000FF90EF900895CF92DF92EF92FF920F93ED
:1042A0001F93CF93DF937C018DEE94E19093A10453
:1042B0008093A004C12C00E010E01AC088818823FC
:1042C00091F0D988DC1478F04D2D469546954695A9
:1042D000BE016F5F7F4F50E0C7010E949257009769
:1042E00011F4CD2C8E01AE96D093A104C093A004FE
:1042F000C091A004D091A10485E1C33DD807F0F29C
:10430000C801DF91CF911F910F91FF90EF90DF9047
:10431000CF9008959F92AF92BF92CF92DF92EF928B
:10432000FF920F931F93CF93DF936C01162F5A01C7
:10433000922E30EAE32E34E0F32E062F9C014EE25B
:1043400050E065E08DEE94E10E940C1D8130B1F4E7
:10435000C091A004D091A104DE018D9380E1F6010B
:1043600001900D928A95E1F7198B80E1F501DE014C
:10437000539601900D928A95E1F79A8A8091A00454
:104380009091A104DF91CF911F910F91FF90EF9039
:10439000DF90CF90BF90AF909F900895FC01108266
:1043A00008950F931F93CF93DF938C018DEE94E1CB
:1043B0009093A1048093A00412C08881882351F0B7
:1043C00040E150E0B801CE0143960E949257009719
:1043D00009F41882AE96D093A104C093A004C091B2
:1043E000A004D091A10485E1C33DD80730F3DF914B
:1043F000CF911F910F910895DC01189628E0FB01E1
:1044000001900D922A95E1F7FC01208532E02327E7
:1044100020870895FC01DB0180E031919D91282FD8
:10442000285F391304C0822F2038B9F708959327E5
:1044300097FD04C08F5F990F8213FACF0895BF9242
:10444000CF92DF92EF92FF920F931F93CF93DF9360
:10445000EC016B01FB0180818E3F21F4818180386A
:1044600019F432C08F3F81F18DE992E1909393046A
:1044700080939204E12CF12CB12C1DC0F8018081B5
:10448000882399F08189813081F481818E3F19F4EC
:104490008281803851F0B8016F5F7F4FC6010E9462
:1044A0000A228B1510F07801B82E0F5D1F4F109364
:1044B0009304009392040091920410919304F3E109
:1044C00000301F07D8F204C081E00E947E1F7C01EB
:1044D000E114F10489F4198218821B821A821D8268
:1044E0001C821F821E82198618861B861A861D86CC
:1044F0001C861F861E8608C080E1F7013196DE010A
:1045000001900D928A95E1F7DF91CF911F910F9164
:10451000FF90EF90DF90CF90BF900895CF93DF93FF
:10452000EC0198A180919C12981730F5AE014F5F75
:104530005F4F60E070E080E090E00E942C1B88A15B
:104540008F5F88A3609198127091991280919A124E
:1045500090919B1228EE33E040E050E00E940A5711
:10456000B9017695762F662777956795CE014C969B
:10457000DF91CF910C949B4181E0898BDF91CF91AA
:104580000895CF92DF92EF92FF921F93CF93DF9324
:104590008DE992E130C08081882341F183898111C6
:1045A0000DC0CF0144960E940143892B39F08091C0
:1045B0009204909193040E94C22018C0E09192044A
:1045C000F09193048189811111C090A180919C1276
:1045D000891760F0CF014C960E94BB41892B31F0C6
:1045E00080919204909193040E948E228091920473
:1045F0009091930481969093930480939204E09118
:104600009204F091930423E1E030F20720F283ED6D
:1046100093E117C08081882379F0818D81110CC0CE
:10462000CF0141960E940143892B31F0809194047F
:10463000909195040E94611E80919404909195043C
:104640004A969093950480939404E0919404F09199
:10465000950484E1E730F807E8F287E094E190936D
:10466000970480939604C2E058EEC52E53E0D52EF1
:10467000E12CF12CD4E011E088C0FC012081222340
:1046800009F47AC025A52130F9F030F0233041F14A
:10469000243009F071C031C0FC0123A5233008F09B
:1046A0003FC081960E940143892B09F465C0E091C7
:1046B0009604F091970483A58F5F83A7AF014F5FA6
:1046C0005F4F60E070E03FC049960E940143892B34
:1046D00009F452C0E0919604F0919704C5A74CC02C
:1046E00049960E940143892B09F446C0E091960443
:1046F000F0919704D5A713A722C0FC0123A523306E
:1047000090F001960E94661E909395048093940405
:10471000009711F00E94611E809196049091970479
:104720000E94551D29C081960E940143892B21F1C9
:10473000E0919604F091970483A58F5F83A7BF0152
:104740006F5F7F4FAB0180E090E00E942C1B609177
:1047500098127091991280919A1290919B12A701D0
:1047600096010E940A578091960490919704BA018D
:10477000A90181960E94CF4280919604909197045E
:104780008E969093970480939604809196049091CE
:104790009704F4E18D3E9F0708F46FCF8BEC93E113
:1047A000DF91CF911F91FF90EF90DF90CF900C940D
:1047B0009406FC0121812E3F19F42281203829F032
:1047C0000E94C22021E030E002C020E030E0C901B8
:1047D0000895CF92DF92EF92FF920F931F930E9462
:1047E0004208182F0E944208C0909012D090911257
:1047F000E0909212F0909312312F20E0820F931FDD
:10480000BC0180E090E0A70196010E940A578B014D
:104810009C01F694E794D794C7940C0D1D1D2E1D92
:104820003F1DB801C9011F910F91FF90EF90DF90DC
:10483000CF9008952F923F924F925F926F927F9206
:104840008F929F92AF92BF92CF92DF92EF92FF92A0
:104850000F931F93CF93DF9386EEE7E0F4E1DF0140
:10486000C82F1D92CA95E9F794E3E3EDF3E1DF0168
:104870001D929A95E9F794E5E7E7F3E1EF011992C4
:104880009A95E9F7EBE8F2E19CEEDF011D929A952B
:10489000E9F7ADEEB4E1ED0119928A95E9F780E010
:1048A00095E0A0E0B0E080839183A283B38380E4AD
:1048B00080938F1280EC97E2A9E0B0E08093901291
:1048C00090939112A0939212B09393120E94E923B5
:1048D000609394127093951280939612909397120E
:1048E00080E197E2A0E0B0E0809398129093991253
:1048F000A0939A12B0939B1281E080939C1272E86D
:10490000472E74E0572E8EEF90E8F201918380835A
:10491000E4E86E2EE4E07E2ED3011D921C92F6E8B0
:104920008F2EF4E09F2EE40119821882C8E8D4E0AB
:1049300019821882A12CB12C6501E12CF12C870180
:1049400020E040E060E4C2010E94B91E63E97FE01C
:10495000C2010E94FC2121E040E050E0BA01C20106
:104960000E94122022242A94A2E03A2EF2013182DF
:104970002082D3011D921C92F401118210821982AF
:104980001882BAE8AB2EB4E0BB2ED5011D921C9262
:104990001CE8C12E14E0D12EF601118210820EE81F
:1049A000E02E04E0F02ED7011D921C9200E914E0E5
:1049B00080E091E0F80191838083C2010E94E71FAB
:1049C000D2012D923C92F30111821082D4011D92EA
:1049D0001C9219821882E50119821882F60111824F
:1049E0001082D7011D921C9280E092E0E801998329
:1049F0008883C2010E94E71F6CE070E08BEC93E1BA
:104A0000DF91CF911F910F91FF90EF90DF90CF90AA
:104A1000BF90AF909F908F907F906F905F904F90DE
:104A20003F902F900C948A06206820937A00482BA0
:104A300040937C0060937B0081E08093A2041092FD
:104A4000A30480E090E00895EAE7F0E080818F77AA
:104A500080831092A2041092A30408958091A2046E
:104A6000882359F081E08093A30480917A008064C8
:104A700080937A0020E030E002C02FEF3FEFC901C1
:104A800008959091A304992399F090917A0096FD4E
:104A90000FC01092A30490917C008295880F807EB5
:104AA000892B80937C00209178003091790002C09E
:104AB0002FEF3FEFC9010895833099F020F4813042
:104AC00051F060F41DC0853091F070F0863091F0A7
:104AD0008730C1F412C0E1E0F0E014C0E2E0F0E0A1
:104AE00011C0E3E0F0E00EC0E4E0F0E00BC0E5E070
:104AF000F0E008C0E6E0F0E005C0E7E0F0E002C06A
:104B0000E0E0F0E027E030E040E450E060E070E01A
:104B1000CF010E9414250E942E2580E090E00E9483
:104B200041259C012F3F8FEF3807B9F3C901089544
:104B300046E063E080E00E94A94F63E070E080E01F
:104B400090E00C94DD28CF92DF92EF92FF920F93CA
:104B50001F93CF93DF93CDB7DEB728970FB6F894A6
:104B6000DEBF0FBECDBF88E08E010F5F1F4FF80183
:104B7000282F11922A95E9F7EBEDF5E1D801019084
:104B80000D928A95E1F7C8010E94012F84E492E01A
:104B90009F938F930E94D8576E0138E0C30ED11CAB
:104BA0000F900F902FE5E22E22E0F22E0DC0F801BB
:104BB00081918F011F928F93FF92EF920E94D8579D
:104BC0000F900F900F900F900C151D0581F78885A1
:104BD0001F928F9383E692E09F938F930E94D85702
:104BE000E091B602F091B70209957091741660E0F9
:104BF000809175167B01E80EF11C98E0D92E8E018C
:104C00000F5F1F4FF8012D2D11922A95E9F764E7E8
:104C100076E1C8010E94E92E88851F928F938F81CB
:104C20001F928F938E811F928F938D811F928F93EE
:104C30008C811F928F938B811F928F938A811F92F9
:104C40008F9389811F928F938DEA91E09F938F9329
:104C50000E94D857A801B7018DEC9BEA0E947E2BD9
:104C60008AE10E94622BEBEDF5E1A3E9BFE0019040
:104C70000D92DA94E1F70E940C45E091E502F09183
:104C8000E6020995E091F702F091F8020995E091AA
:104C90000503F091060309950091EF021091F002CF
:104CA000F80109950FB6F894DEBF0FBECDBF892B72
:104CB00041F0F8010995BC0180E890E00E94F656A9
:104CC00002C060E870E01F928AE18F937F936F9338
:104CD0008091E4028F938091E3028F938091F6029A
:104CE0008F938091F5028F938AED91E09F938F933C
:104CF0000E94D85760E070E08EE192E00E946D055E
:104D00008DE092E09F938F930E94D8578FEF0E947F
:104D10007E1F7C010FB6F894DEBF0FBECDBF00E052
:104D200010E080E3C82E82E0D82EF701E00FF11FDB
:104D300082811F928F9381811F928F93DF92CF92F6
:104D40000E94D8570E5F1F4F0F900F900F900F903B
:104D50000F900F900E30110541F7F70180891F92D7
:104D60008F9387851F928F938AE392E09F938F930F
:104D70000E94D8570F900F900F900F900F900F90A8
:104D800028960FB6F894DEBF0FBECDBFDF91CF914E
:104D90001F910F91FF90EF90DF90CF900895CF93E8
:104DA000DF9300D000D01F92CDB7DEB78FB78D83D1
:104DB000F89444E050E0BE016F5F7F4F80E090E0E8
:104DC0000E94F02889819A818D3A9E4D19F48B8139
:104DD0009C8102C080E090E09093A5048093A4049D
:104DE0008D818FBF0F900F900F900F900F90DF91DC
:104DF000CF910895CF93DF9300D000D01F92CDB70D
:104E0000DEB72DEA3EED3A8329839C838B838FB7EF
:104E10008D83F89444E050E0BE016F5F7F4F80E0E7
:104E200090E00E94E9288D818FBF0F900F900F9026
:104E30000F900F90DF91CF9108954091D715509129
:104E4000D8156091D9157091DA1590E0A0E0B0E026
:104E5000480F591F6A1F7B1F4093D7155093D815D1
:104E60006093D9157093DA154091D3155091D415EC
:104E70006091D5157091D615480F591F6A1F7B1F79
:104E80004093D3155093D4156093D5157093D615D0
:104E900008951F920F920FB60F9211240BB60F9226
:104EA0002F933F934F935F936F937F938F939F9332
:104EB000AF93BF93EF93FF938091A7049091A804C1
:104EC00001969093A8048093A7048091A6048F5F15
:104ED0008093A6048038A9F41092A6048091D71577
:104EE0009091D815A091D915B091DA150196A11D10
:104EF000B11D8093D7159093D815A093D915B09371
:104F0000DA150E94C906892B11F00E94D605FF917F
:104F1000EF91BF91AF919F918F917F916F915F9131
:104F20004F913F912F910F900BBE0F900FBE0F909E
:104F30001F901895F8941092B60016BC8CE387BDAC
:104F400082E084BD95E095BD95B395BB80936E00DE
:104F5000789408952091A7043091A8048091A70423
:104F60009091A80428173907A9F7C901089507C027
:104F700022E330E0000021503109E1F7019700976A
:104F8000B9F708950F931F93CF93DF93EC010E941D
:104F9000AA278C010E94AA27801B910B8C179D07C2
:104FA000C8F3DF91CF911F910F91089508950F934A
:104FB0001F930091D7151091D8152091D9153091D4
:104FC000DA158091D7159091D815A091D915B09187
:104FD000DA15081719072A073B0759F7B801C9015D
:104FE0001F910F91089588E090E020E030E04AE0C2
:104FF00050E060E170E0A5E6B0E00C9A1498FA0188
:105000003197F1F70C98149AFB013197F1F7049955
:105010002068FD013197F1F7019719F03695279532
:10502000ECCFC9010895CF92DF92EF92FF920F93D8
:105030001F93CF93DF931F92CDB7DEB70C981498D0
:105040008FB78983F8940C9A149889E993E00197B3
:10505000F1F70C98149A80E890E00197F1F720B1ED
:1050600083EF92E00197F1F724FD70C0B8E0A3E36D
:105070002EE630E042E150E06AE070E0E5E7F0E083
:105080000C9A1498A0FF07C0CB010197F1F70C9878
:10509000149ACF0106C0C9010197F1F70C98149A30
:1050A000CA010197F1F7B15011F0A695E9CF0E941E
:1050B000F3276C0103EE15E178010E94F327D70175
:1050C0008E937D01BDEDEB16B5E1FB06B1F70E94B5
:1050D000F32729812FBFCA94CD28D1F548E050E0AD
:1050E00021E030E0B9017695679520FF05C02CE8F6
:1050F00030E02627372701C09B014150510991F725
:10510000D8014E918D01242748E050E0B9017695F1
:10511000679520FF05C02CE830E02627372701C01F
:105120009B014150510991F7B5E10D3D1B0741F736
:105130002817390769F41092DB158AE18093DC1592
:105140008CE48093DD1521E030E00BC089818FBFB6
:1051500088E0EBEDF5E1DF011D928A95E9F720E0AB
:1051600030E0C9010F90DF91CF911F910F91FF9017
:10517000EF90DF90CF900895CF93C82F8091A9042E
:10518000811109C080EC0E9430508DE00E943050A7
:1051900081E08093A9048C2F0E943050CA3029F4FA
:1051A00080EC0E9430501092A9042C2F332727FD49
:1051B00030958C2F932FCF91089568E072E580E0B1
:1051C0000E94275088E292E090932417809323173F
:1051D00008959C01CB01F999FECFB9010C94815A35
:1051E0009C01CB01F999FECFB9010C94715A9091B1
:1051F000AA048091AB0489270C9456500E943D501C
:105200001092AA041092AB0408950C94445090910B
:10521000AB04982B9093AB040C94F7288095909155
:10522000AB0498239093AB040C94F7289091AA04B4
:1052300098279093AA040C94F7280C941629CF93DE
:10524000C091AA048091AB04C827C0958C2F0E94FE
:10525000162980E991E00E94B7278C2FCF910C94FA
:1052600016298091AC048091AC0490E0089540E050
:105270006FE181E00E94C32D21E030E0813021F018
:10528000813111F020E030E0C901089540E06FE184
:1052900081E00C94C32D40E06FE181E00E94C32DBA
:1052A000982F8151823038F09F3129F0913019F0D8
:1052B00081E0923009F480E008950E944B29882310
:1052C000E1F308952F988DE090E00197F1F723E046
:1052D00040E06FE182E00E94DA2D83E090E00197E8
:1052E000F1F70895109272160E945D290E946229BA
:1052F0002F9A81E0809371160895CF93DF93C82F82
:105300000E945D290E944629D82FC81779F1C8301C
:1053100019F40E94622923C0C93121F4863181F435
:1053200029E005C0C63161F4893151F426E040E03E
:105330006FE182E00E94DA2DE3E0F0E03197F1F7CF
:105340002C2F40E06FE182E00E94DA2DD83019F472
:10535000E9E6F1E002C0E3E0F0E03197F1F70E9406
:1053600046298C1719F023E430E002C020E430E035
:10537000C901DF91CF91089580917216882371F051
:105380008091AE04811104C00E944B29811104C098
:1053900081E08093310502C00E94722981E090E093
:1053A00008951F9909C0282F803108F02FE040E0B0
:1053B0006FE085E00C94DA2D0895809171168823B2
:1053C00039F02F988FEA92E00197F1F71092711659
:1053D0000E945D291F9B04C081E08093721608958E
:1053E00086E10E947D29F8CF8091721681110AC052
:1053F0008091AE04882321F081E08093300502C0C3
:105400000E94DD2981E090E008950F931F93CF93D0
:10541000DF938091AE04811128C0809172168111B2
:1054200005C00E94F42901E010E002C000E010E095
:1054300021E047E060E888E00E94DA2D89E191E010
:105440000197F1F747E060E881E00E94C32D8823CF
:10545000C9F346E060E481E00E94C32DC82FD0E08C
:10546000012B29F00E94BC2902C0C1E0D0E0CE018E
:10547000DF91CF911F910F9108958091300588237E
:1054800021F00E94DD29109230058091310588239A
:1054900021F00E947229109231051092AE040895F5
:1054A0000F931F93AB0121E02093AE040091BC1633
:1054B0001091BD162091BE163091BF160F5F1F4F81
:1054C0002F4F3F4F0093BC161093BD162093BE166E
:1054D0003093BF16262F2E5F27FD09C02FEA34E038
:1054E000BC01C9010E949F5700E010E002C00FEF0D
:1054F0001FEF0E943D2AC8011F910F9108958093CC
:10550000AD0408950E9446298250813130F4E82F7D
:10551000F0E0E653FD4F8081089581E00895CF9338
:10552000DF9300D01F92CDB7DEB7309166001092A6
:10553000700010926F008091B60080628093B60078
:1055400081E08093B1008FE890E00197F1F78FB789
:105550008B83F89420E841E050E86FEF409381009E
:105560008091B6008B71E1F75093B20010928500E4
:105570001092840067BBB89BFECF8091840090910D
:1055800085009A8389831092810089819A81873F5F
:10559000934760F4809166008E3719F18091660020
:1055A0008F3FF9F0809166008F5F10C089819A81EA
:1055B0008D32904878F080916600813891F080912A
:1055C0006600882371F080916600815080936600A8
:1055D00080E001C081E0215029F0882309F4BECF8A
:1055E00001C080E09091660090937316811102C013
:1055F00030936600309366001092B1008091B6003F
:105600008F7D8093B6008B818FBF0F900F900F908E
:10561000DF91CF9108956FE08EE00E94A82D22E0E7
:1056200044E060EF8CE20E94DA2D25E041E06EE07C
:105630008CE20E94DA2D60E88FE20E94A82D86E0BD
:105640000E948D2D682F8DE20E94A82D21E047E059
:1056500060E885E00C94DA2DCF93DF93CDEFD3E0B3
:10566000CE010197F1F70E94702D1092EE15109265
:10567000ED151092EC1516982F988DE090E001979B
:10568000F1F7169A23E040E06FE182E00E94DA2D04
:105690002197F1F78DE10E948D2D8EE10E948D2DD5
:1056A0000E940B2B60E070E086E392E00E946D05A3
:1056B0000E94DD2981E090E0DF91CF9108958091F3
:1056C00032050895CF93DF931F92CDB7DEB789835C
:1056D0000E945D29898180933205282F40E06FE187
:1056E00088E00F90DF91CF910C94DA2D0E94622B0D
:1056F0001F9903C086E00C947D290895EF92FF92D4
:105700001F93CF93DF9300D0CDB7DEB7162F7A016A
:10571000682F82E27A8399830E94A82D9981692F4C
:1057200083E20E94A82D612F80E20E94A82D7A8139
:10573000672F81E20E94A82DE114F10479F1F701AD
:1057400060818BE20E94A82DF70161818AE20E94AC
:10575000A82DF701628189E20E94A82DF7016381DB
:1057600088E20E94A82DF701648187E20E94A82D9B
:10577000F701658186E20E94A82DF701668185E226
:105780000E94A82DF701678184E20F900F90DF91AE
:10579000CF911F91FF90EF900C94A82D0F900F9038
:1057A000DF91CF911F91FF90EF90089586E392E0F3
:1057B0000E948E0581E08093AC0481E090E0089522
:1057C0001F93CF93DF932091ED1512E8129F900164
:1057D0001124D901A251BA4E4C91442309F490C02E
:1057E00047FF15C01C928091AC169091AD16A09108
:1057F000AE16B091AF160196A11DB11D8093AC16E7
:105800009093AD16A093AE16B093AF1679C0433007
:10581000A8F41C928091A8169091A916A091AA169E
:10582000B091AB160196A11DB11D8093A81690935F
:10583000A916A093AA16B093AB1662C0C42FD0E0ED
:1058400022976C177D07A8F41C928091A416909162
:10585000A516A091A616B091A7160196A11DB11D7F
:105860008093A4169093A516A093A616B093A7169E
:1058700047C021513A4E50E0B9010E949F57E09134
:10588000ED151E9FF0011124E251FA4EDF01A058E0
:10589000BF4F8C918093E31510821092ED1580918B
:1058A000EE1581110E94D62B87E00E948D2D8093EA
:1058B000E4159091E715992311F0891710F480935E
:1058C000E7158093EE161092EF168091E315809302
:1058D000EC161092ED164091C0165091C1166091D1
:1058E000C2167091C3164F5F5F4F6F4F7F4F40934B
:1058F000C0165093C1166093C2167093C31602C0AF
:10590000C0E0D0E0CE01DF91CF911F910895CF93F9
:10591000DF93EC0188819981009721F0883B9440C6
:10592000D9F420C088EB94E09983888319C0109241
:10593000AC040E9493440E94EE4360E870E00E9431
:10594000E02B1816190674F70E94E943E091E9026A
:10595000F091EA020995E6CF1982188283E005C02A
:1059600081E003C06238E1F7E2CFDF91CF91089583
:1059700091E09093AE040E94D1290C943D2A1F9986
:1059800005C040E06FE085E00C94C32D80E10895F0
:105990000F931F93CF93DF93182F81E08093AE0472
:1059A0000091721680917116882319F02F98109229
:1059B00071160E945D291F9B54C02091F2163091F0
:1059C000F316232B49F00E94BF2CC82F8091F216AA
:1059D00081500E94D12902C0C0E0D0E02F9A2F98B8
:1059E000612F6E5F8FEA94E00E94392E0E945D293C
:1059F00045E060EE82E00E94C32D182F2091F21640
:105A00003091F316232B19F08C2F0E94D12901110C
:105A10000E94DD2980917216811106C023E040E0CA
:105A20006FE182E00E94DA2D0E943D2A1130B9F028
:105A30001330D9F44091B4165091B5166091B61652
:105A40007091B7164F5F5F4F6F4F7F4F4093B41603
:105A50005093B5166093B6167093B71606C010E053
:105A600004C089E10E947D29A8CF812F90E0DF91B9
:105A7000CF911F910F910895CF93DF93EB010E9477
:105A8000502A009729F4CE01DF91CF910C94C82CB5
:105A9000DF91CF910895CF93DF938091721681119A
:105AA00004C00E94F429D1E001C0D0E00E94462940
:105AB000863111F0813129F487E00E948D2DC82FA5
:105AC00008C040E06FE186E00E94C32DC82FCC0FD4
:105AD000C80FD1110E94BC298C2FDF91CF9108955E
