:100000000C944D010C946C010C946C010C946C01DB
:100010000C946C010C946C010C946C010C946C01AC
:100020000C946C010C946C010C946C010C946C019C
:100030000C946C010C946C010C946C010C946C018C
:100040000C94CD490C946C010C946C010C946C01D3
:100050000C94404A0C9487420C946C010C946C01F3
:100060000C946C010C944F500C946C010C94435004
:100070000C946C010C946C010C946C010C946C014C
:100080000C9481510C946C010C946C010C946C01D7
:100090000C948D500C946C010C9481500C946C0158
:1000A0000C946C010C946C010C946C010C946C011C
:1000B0000C946C010C946C010C946C010C946C010C
:1000C0000C946C010C946C010C946C015544502000
:1000D00073657276657220737461727465640A0068
:1000E000637265617465642061206E65772052508B
:1000F0004C206461670A006661696C656420746FF6
:10010000206372656174652061206E6577205250AE
:100110004C204441470A0043726561746564206164
:100120002073657276657220636F6E6E65637469A5
:100130006F6E20776974682072656D6F74652061D9
:100140006464726573732000206C6F63616C2F723E
:10015000656D6F746520706F72742025752F25751D
:100160000A00496E69746961696E6720676C6F6225
:10017000616C207265706169720A00536572766500
:1001800072204950763620616464726573736573BA
:100190003A20000A004441544120726563762027CA
:1001A0002573272066726F6D20002564000A003ACF
:1001B0003A003A002578003A002530327800436F43
:1001C0006E74696B6920322E3520737461727465A8
:1001D000642E204E6F64652069642025750A004DE9
:1001E000414320253032783A253032783A25303272
:1001F000783A253032783A253032783A25303278DC
:100200003A253032783A253032780A002573202595
:10021000732C206368616E6E656C20636865636B28
:10022000207261746520256420487A2C20726164F4
:10023000696F206368616E6E656C2025640A0054E6
:10024000656E746174697665206C696E6B2D6C6F78
:1002500063616C2049507636206164647265737303
:10026000200025303278253032783A002530327837
:10027000253032780A0052696D652073746172749A
:1002800065642077697468206164647265737320A3
:100290000025642E0025640A000011241FBECFEF44
:1002A000D1E2DEBFCDBF13E0A0E0B2E0E6E9F4EBBF
:1002B00000E00BBF02C007900D92A43AB107D9F736
:1002C00016E1A4EAB3E001C01D92A73EB107E1F731
:1002D0000E94CC550C94495A0C9400007F928F9246
:1002E0009F92AF92BF92CF92DF92EF92FF920F93C5
:1002F0001F93CF93DF93CDB7DEB760970FB6F89417
:10030000DEBF0FBECDBF8C01FC018081918189369B
:10031000910509F430C1843A910509F45DC1892B36
:1003200009F024C140E050E065E88091910590918A
:1003300092050E94671389E690E0ABC0CE0101965A
:100340000E945E078FEF9FEF0E942F07FA82E982DB
:100350001C821B821E821D8218861F821A861986A5
:100360001C861B861E861D86188A1F8640E450E068
:10037000BE016F5F7F4F0E942E0580EE90E002C0AD
:1003800087EF90E09F938F930E94F5560F900F9008
:100390008BE791E09F938F930E94F55698ECC92EBE
:1003A00092E1D92E0F900F90E12CF12C21E2822EB8
:1003B00033E9A32E31E0B32E77247394F6019080B5
:1003C000F1E0F91598F08E9CC0018F9C900D1124DE
:1003D00088549D4E0E944418BF92AF920E94F556D9
:1003E0000F900F90911002C0F6017082FFEFEF1A8C
:1003F000FF0A81E2C80ED11C93E0E916F104F1F680
:10040000E091C002F091C10281E090E0099540E0E6
:1004100050E062E27DE380E090E00E94FC26909351
:10042000A5038093A40326E13EE2FC01318B208BDF
:1004300087E191E09F938F930E94F5568091A403EA
:100440009091A5030E944418E091A403F091A503A4
:10045000828993899827892798279F938F938089EA
:1004600091899827892798279F938F9388E491E013
:100470009F938F930E94F55660E877E086EA93E0B9
:100480000E94EE150FB6F894DEBF0FBECDBF84EA12
:1004900090E0F8019183808381E0A3C080919B105C
:1004A00081FFF5CF8091A0109091A110E0919B0F5A
:1004B000F0919C0FE80FF91F10829F938F9385E9AD
:1004C00091E09F938F930E94F5568091C20F1F92E7
:1004D0008F938AEA91E09F938F930E94F5568DEA5D
:1004E00091E09F938F930E94F5568091A403909181
:1004F000A50320E1E3EBFFE0DC0101900D922A95DA
:10050000E1F746E050E06DE173E00E94A629E0913A
:10051000A403F091A5031182108213821282158226
:10052000148217821682118610861386128615860B
:10053000148617861686A6CF86EA93E00E941516C3
:10054000892B09F4A4CF82E691E09F938F930E94B8
:10055000F55686EA93E00E94F8158FEF9FEF0E9410
:100560002F070E94C8070F900F9091CFF8011182BA
:10057000108283E036C08CEC90E09F938F930E94B2
:10058000F5568AEAE82EFE2CFA82E9821C821B824A
:100590001E821D8218861F821A86198680E09FEFB0
:1005A0009C878B878EEF90E09E878D8780E091E01F
:1005B000988B8F8723E040E050E0BA01CE0101968E
:1005C0000E94D43BCE0101960E94223B0F900F90D7
:1005D000892B09F0B3CED4CE809192126813ACCFA0
:1005E0005DCF60960FB6F894DEBF0FBECDBFDF9132
:1005F000CF911F910F91FF90EF90DF90CF90BF9020
:10060000AF909F908F907F900895E9EBF0E080810C
:100610008C7F808380E28093B8000895CF93DF932E
:1006200000D0CDB7DEB7909164009F7790936400BF
:100630006A8389830E94050394EA9093BC008981B0
:100640006A819091BC0097FFFCCF4091B900487F30
:1006500050E0611103C028E030E002C020E130E04A
:1006600042175307A9F48093BB0084E88093BC0031
:100670008091BC0087FFFCCF8091B900887F8831D2
:1006800049F08091B900887F803421F08EEF03C05B
:100690008FEF01C080E00F900F90DF91CF91089510
:1006A00060E00C940E0361E00C940E038093BB0099
:1006B00084E88093BC008091BC0087FFFCCF8091D0
:1006C000B900887F883211F08FEF089580E0089597
:1006D000662311F024EC01C024E82093BC0022E240
:1006E00033E003C021503109C1F04091BC0047FF05
:1006F000F9CF4091B900487F50E0662319F020E51A
:1007000030E002C028E530E04217530731F4209171
:10071000BB00FC01208380E008958FEF089561E025
:100720000C94680360E00C94680384E98093BC0037
:100730008091BC0084FDFCCF8091BC008D7F8093B4
:10074000BC008091640080688093640087B18C7FD6
:1007500087B988B1836088B90895E091C802F091A3
:10076000C9020994E0911103F09112030994E091F8
:100770001303F09114030994E0911503F09116030B
:10078000309709F0099480E090E00895EF92FF928D
:100790000F931F93CF93DF938C017B018091AE0366
:1007A0009091AF039C012F5F3F4F3093AF03209395
:1007B000AE039093800F80937F0F61E073E083E539
:1007C0009FE00E945F4A892B09F04FC08AE092E0C7
:1007D0000E94F313EC01009709F447C00E94901A9D
:1007E0009B838A83892BE1F180917D0F90917E0F0D
:1007F000009709F483E0898718861A861B861D8373
:100800000C83FF82EE828091870F9091880FBE014A
:10081000019729F480EB93E00E94B41404C080EBAC
:1008200093E00E94C81480EB93E00E94E114181634
:10083000190644F582EB93E00E948117892B11F190
:1008400020E030E040E554E060E070E082EB93E0CF
:10085000DF91CF911F910F91FF90EF900C94E616CE
:10086000BE018AE092E00E941914E0910D03F0911C
:100870000E03B701C801DF91CF911F910F91FF9037
:10088000EF900994DF91CF911F910F91FF90EF901E
:1008900008958AE092E00E94D4131092C203089552
:1008A000CF93DF938091C203811118C080EB93E056
:1008B0000E945E14EC01009789F08A819B810E945E
:1008C000EB1A81E08093C203E0910D03F0910E03D7
:1008D000BE0186EA94E0DF91CF910994DF91CF9138
:1008E0000895CF93DF9380EB93E00E945E14EC01B8
:1008F000009749F18A819B810E94CD1ABE0180EB4D
:1009000093E00E949914BE018AE092E00E941914BB
:1009100080EB93E00E94E11418161906A4F4E0910C
:100920001503F09116030995009711F480E290E009
:1009300020E030E040E554E0BC0182EB93E0DF9141
:10094000CF910C94E616DF91CF9108958F929F92EC
:10095000AF92BF92CF92DF92EF92FF920F931F93CD
:10096000CF93DF93EC018B011092C20361307105CC
:1009700081F024F46115710541F012C062307105F7
:1009800021F06330710561F408C088858F5F888726
:1009900007C08A858F5F8A8703C08B858F5F8B87AF
:1009A000CC80DD80AE80BF809884C801019702971B
:1009B00008F03FC0E0911503F091160309957C0102
:1009C000009719F480E2E82EF12C88840E944218E6
:1009D00038852985321768F5282D30E02F5F3F4F85
:1009E0002430310514F023E030E0E29EB001E39EB4
:1009F000700DF29E700D11240E942A568E0D9F1DBF
:100A000020E030E040E554E0BC0182EB93E00E943E
:100A1000E6168A819B81DF91CF911F910F91FF9004
:100A2000EF90DF90CF90BF90AF909F908F900C94FD
:100A3000C61A0E947104292D30E0A801B501C60133
:100A4000DF91CF911F910F91FF90EF90DF90CF90AA
:100A5000BF90AF909F908F900C94EE4A0F931F938E
:100A6000CF93DF938C01EA01413851052CF5FC014D
:100A7000E25AFF4F80E1DF011D928A95E9F7495F55
:100A80005F4F57FF03C0AE01425F5F4FCA0123E0D3
:100A9000959587952A95E1F7AC01CF010E94D35631
:100AA000F801EE58FF4FC083F801ED58FF4F80E486
:100AB000808321E030E002C020E030E0C901DF9116
:100AC000CF911F910F9108950F931F93CF93DF93B1
:100AD000EC018B01898D9A8D009711F00E94233AC9
:100AE00001151105A1F02EA53FA5ADA5B0E00E940E
:100AF0001356AB01BC01C8010E94D4399A8F898F6B
:100B000021E030E0892B29F420E030E002C021E030
:100B100030E0C901DF91CF911F910F9108951F938C
:100B2000CF93DF93182F80913D04882339F0809173
:100B3000B10481111EC0C5E8D4E002C0C1E1D4E017
:100B400084E7FE0111928A95E9F7CE01865A9F4FFC
:100B5000FE01E45AFF4F918380830E945A1418A328
:100B60001A8E198E8FEF9FEF9C8F8B8F9E8F8D8F9C
:100B700002C0C0E0D0E0CE01DF91CF911F91089577
:100B8000CF92DF92EF92FF920F931F93CF93DF9359
:100B90008C017B016A0182E192E00E94F313EC0177
:100BA000009719F1DC011B9680E1F60101900D928E
:100BB0008A95E1F71B830A83F701828993899C8FC9
:100BC0008B8F80E58D8F1E8EDE011496E05BFF4FCC
:100BD00087E001900D928A95E1F7F801E45AFF4F02
:100BE000BE01808191810E94C814CE01DF91CF9116
:100BF0001F910F91FF90EF90DF90CF9008950F938A
:100C00001F93CF93DF938B01845A9F4FFC01808108
:100C100091810E945E14EC010CC040E150E0B801EB
:100C2000CE010B960E94C656009729F00990D881F4
:100C3000C02D209791F7CE01DF91CF911F910F9199
:100C40000895EF92FF920F931F93CF93DF938C0140
:100C5000EB017B018BE0E80EF11CC7010E94933D84
:100C6000C7010E94283A009729F00E94233AF80110
:100C7000128E118EF801E85AFF4F80819181C817BA
:100C8000D90711F411821082F801E45AFF4FBE0116
:100C9000808191810E949914BE0182E192E00E94BC
:100CA000191480E090E0DF91CF911F910F91FF9098
:100CB000EF9008950F931F93CF93DF93EC01FC0106
:100CC000E45AFF4F808191810E945E14BC0107C0ED
:100CD000FB0100811181CE010E942106B80161153E
:100CE0007105B1F7DF91CF911F910F910895CF93C7
:100CF000DF93EC010E94A74CCE010E945A0660E0EF
:100D000070E0CE010E946405CE01C8960E946A1769
:100D1000CE01885B9F4F0E946A171CA618AADF911C
:100D2000CF910895CF92DF92EF92FF920F931F938E
:100D3000CF93DF93EC01FC01E45AFF4F8081918156
:100D40000E945E147C0100E010E018C0D7015B96A1
:100D50008D919C915C97019671F00115110551F0F0
:100D6000EF81F8850480F581E02DB701C801099570
:100D70008C0101C08701F701E080F180E114F104EA
:100D800029F70115110509F460C07E01F8E5EF0EA1
:100D9000F11CD7018D919C9180179107E9F060E0DB
:100DA0000E94930CF70111830083EF81F885008482
:100DB000F185E02DCE010995B801655F7F4FCE0129
:100DC0000E9464058BA1882319F0CE010E945C115A
:100DD00061E0CE010E944E11EF81F8850680F78117
:100DE000E02D60E070E0C80109959C8F8B8FED8D40
:100DF000FE8D8E179F0718F49E8F8D8F26C0D80109
:100E00005B968D919C915C978F3FBFEF9B07A1F004
:100E1000E8A4F9A4E114F104C1F02AA53BA5B901A5
:100E20000E942A566B01C7018E0F9F1FB9010E94B5
:100E30002A566C157D0548F460E0C8010E94930CA9
:100E4000CE010E945A0600E010E0C801DF91CF9168
:100E50001F910F91FF90EF90DF90CF900895209118
:100E60004104222351F08F3F2FEF9207A9F02091E8
:100E7000310430E02817390779F02091B504222396
:100E8000C9F08F3F2FEF920751F02091A50430E079
:100E90002817390779F403C080E090E002C081E0B0
:100EA00090E044E7489F9001499F300D11242F5E48
:100EB0003B4F02C020E030E0C9010895EF92FF925D
:100EC0000F931F93CF93DF937C0180E090E00E940B
:100ED0002F07009729F0FC0101A10E94770602C0AC
:100EE0000FEF1FEF80E00E948F05EC010097D1F11A
:100EF00021E028AB0F5F09A31AA282E08BA38AE14D
:100F000092E098878F83FE01E85AFF4F118210828A
:100F10002F8FDE01199680E1F70101900D928A95DD
:100F2000E1F788E08DA38CE08EA38AE08FA380E0B8
:100F300093E099A788A780E091E09BA78AA72FEF6D
:100F40002DA72FEF3FEF3FA72EA79C8F8B8FEF8111
:100F5000F8850084F185E02DCE01099561E0CE0190
:100F60000E944E11CE01DF91CF911F910F91FF9002
:100F7000EF90089520912402309125022817390717
:100F800019F42AE132E002C020E030E0C9010895FE
:100F9000FC01238D348D82A593A52817390761F4B0
:100FA00081A18F5F81A381E0878F61E0CF010E94E3
:100FB0004E1121E030E002C020E030E0C901089588
:100FC000CF93DF93EC018FEF9FEF9C8F8B8FCE0140
:100FD0000E945A0661E0CE01DF91CF910C944E1130
:100FE000EF92FF920F931F93CF93DF93EC01FB01DE
:100FF000038D148DEB8CFC8C0E949206892B21F4BE
:10100000CE010E94E00743C0EAA5FBA52B8D3C8DD5
:10101000C701BF010E942A567B01C901BF010E947E
:101020002A56E616F70659F08D8D9E8D281739073A
:1010300010F43E8F2D8F61E0CE010E944E110F3FC4
:10104000FFEF1F0719F420E030E023C0EF81F8859F
:101050000680F781E02DB80180E090E009958F3F90
:101060002FEF920781F3E8A5F9A5309781F02AA523
:101070003BA5B9010E942A568B018D8D9E8D8E0F46
:101080009F1FB9010E942A5660177107E0F221E004
:1010900030E0C901DF91CF911F910F91FF90EF9048
:1010A0000895CF93DF938FEF9FEF0E942F07EC01FE
:1010B0000097C1F0FC01E45AFF4F808191810E94AA
:1010C0005E14FC010DC0878D882339F0178EBF0197
:1010D000CE01DF91CF910C94F0070190F081E02DCB
:1010E000309789F7DF91CF9108956F927F928F9219
:1010F0009F92AF92BF92CF92DF92EF92FF920F93A7
:101100001F93CF93DF93CDB7DEB760970FB6F894F8
:10111000DEBF0FBECDBF5C017B01DB0155968C911C
:10112000823009F02FC2FB01D08C8D2D90E00E94FF
:101130002F078C01009709F0D4C0D70152962D914A
:101140003C9153972F3F3F4F09F41CC28D2D0E94B5
:101150008F058C01009709F415C2A501B7010E9403
:10116000C0056C01009709F40DC2F70180899189CF
:101170000E94BA074C01009709F404C2F701E15B31
:10118000FF4F808186FF1DC080E1F701FA96DE01E6
:10119000119601900D928A95E1F763EA7FE0CE0106
:1011A00001960E94BE3DCE0101960E94223B892BF2
:1011B00041F421E040E050E0BA01CE0101960E94E6
:1011C000D43B81E0D801D0968C93D0979C968C9399
:1011D0009C9718969C928E921797F7018489929605
:1011E0008C939297858993968C93939786899496FE
:1011F0008C939497808D90968C93909780A191A1D9
:1012000099969C938E93989782A193A19B969C9379
:101210008E939A97878991968C933801F8E56F0E93
:10122000711CD301CD92DC92D4011896ED91FC9102
:101230001997C8010995F701828DD80195968C936D
:101240009597838D96968C939697848D97968C938D
:101250009797199680E101900D928A95E1F7D80150
:10126000A25ABF4FF701FA9686E101900D928A9536
:10127000E1F7D8011796ED91FC911897D701529696
:101280006D917C9153970680F781E02DC6010995F9
:10129000F801948F838F968F858FD7015D968C91FF
:1012A0005D9785A75E968D919C915F9797A786A77E
:1012B00061E0C8010E944E11B501C8010E94640599
:1012C000F80183A1882309F45DC1D70159969C9147
:1012D000F601868D891708F055C1D3018D919C9137
:1012E00075C040E150E0B70109960E94C6560097CC
:1012F00009F048C1F7014789D80191968C919197DF
:10130000841708F068C05B962D913C915C979A9683
:101310008D919C919B972817390721F44F5F9196E7
:101320004C935BC0C8010E945A06F7018789D80117
:1013300091968C93919781E05F968C935F97179627
:10134000ED91FC9118970190F081E02DC80109956D
:10135000A501B701C8010E94C0056C01009731F4D6
:101360008FEF9FEFF801948F838F0CC1B501C801F7
:101370000E946405D8011796ED91FC911897D7014A
:1013800052966D917C9153970680F781E02D80E015
:1013900090E00995F801948F838F968F858F61E097
:1013A000C8010E944E11D80193968C91882309F4AC
:1013B000E9C0F701918DD6015E968C91891708F0EE
:1013C000E1C0F801E85AFF4F80819181C816D90623
:1013D00009F0D8C0D4C0481728F461E0C8010E94C1
:1013E0004E11D0C0F701828993898F3FFFEF9F078D
:1013F00029F461E0C8010E944E1109C0D8019A96F3
:101400002D913C919B978217930708F4BBC0F8017C
:10141000238D348D82A593A52817390761F4D70150
:1014200052968D919C915397019609F4ABC083A974
:101430008F5F83ABA7C0B501C8010E94FF056C0197
:10144000009709F04CC04801ECE58E0E911CD401C8
:101450008D919C910E94E1140497C1F5F701C28817
:10146000D388D4018D919C910E945E14612C712CC3
:101470004801B8E58B0E911C18C0F4012081318120
:101480008217930781F06114710461F0DC015B96AF
:101490004D915C915C97F301238D348D24173507B2
:1014A00008F001C03C010E94FE14009731F761145E
:1014B000710461F0D3015B968D919C915C97C81685
:1014C000D90620F4B301C8010E942106A501B70185
:1014D000C8010E94C0056C010097E1F453C0F801F7
:1014E00022A533A5DC015B968D919C915C97B90197
:1014F0000E942A56FB01D70152968D919C915397D9
:10150000B9010E942A56E617F70721F4F80183A9CA
:101510008F5F83ABD6011496F701E05BFF4F87E046
:1015200001900D928A95E1F7D70152968D919C9189
:101530005397F601948F838FB601C8010E94F0077C
:10154000892B01F1D80193968C91882391F0F701B2
:10155000918DD6015E968C91891758F4F801E85A5E
:10156000FF4F80819181C816D90619F4C8010E94E5
:101570005C11F701818DD6015E968C9303C0C80182
:101580000E945C1160960FB6F894DEBF0FBECDBF0F
:10159000DF91CF911F910F91FF90EF90DF90CF904F
:1015A000BF90AF909F908F907F906F9008950F9312
:1015B0001F93FB01E80FF91F0381808110E020E0F9
:1015C00030E0382B8181282B8281182BB801C9018A
:1015D0001F910F910895FB01E80FF91F508341837C
:1015E000328323830895CF93DF93CDB7DEB760971F
:1015F0000FB6F894DEBF0FBECDBFE091420AF0E017
:10160000E952F04F118210820097B1F48FEF92E00F
:101610009A8389831C821B821E821D8218861F82E8
:101620001A8619861C861B861E861D8680E09AE116
:10163000988B8F87CE01019622E030E040E050E0A9
:101640006BE970E00E94412B60960FB6F894DEBF04
:101650000FBECDBFDF91CF9108958F929F92AF9231
:10166000BF92CF92DF92EF92FF920F931F93CF938F
:10167000DF93CDB7DEB760970FB6F894DEBF0FBE2D
:10168000CDBF8C015B01E090420AF12C87ED9FE019
:10169000E80EF91ED80190968C919097F7018083FF
:1016A00091968C91919781835C968C915C978283C3
:1016B0005B968C915B978383148292968C9188239E
:1016C00011F080E88483D80193968C919397880FCA
:1016D000880F880FF70184835F968C915F978F5FE7
:1016E0005F968C93858316821782D7011896F8012E
:1016F000399680E101900D928A95E1F7D8018C919D
:10170000882309F448C01796ED91FC91189700843E
:10171000F185E02DC801099542E0F701408F86E090
:10172000818FD8018C91828F11968C91119786951B
:10173000838F11968C91B0E88B9FC0011124848F08
:10174000F8012281F0E12F9F90011124822BD80112
:1017500013969C911397892BF701848F8C91873076
:1017600049F4458F16968C911697868F15968C9115
:10177000878F0DC0823009F0C3C0D701858FF80173
:1017800085815E968C935E9786815F968C9390E2BE
:10179000C92ED12C03C088E1C82ED12CF701EC0D45
:1017A000FD1D84E080838EE081831282D8019596AE
:1017B0008C919597838396968C9196978483979630
:1017C0008C919797858399968C9199978683989613
:1017D0008C91989787839B968C919B9780879A96FC
:1017E0008C919A97818717968D919C911897DC011F
:1017F0001B968C918287D80117968D919C91189792
:10180000DC011A968C9183871486D8019D968C9161
:101810009D9785879F968C919F9786879E968C91A2
:1018200087879601205F3F4FA8014E585F4FDA012E
:101830008C91882309F43FC02E0D3F1D88E0D9010B
:101840008C938EE1818BDA018C91828BD801AD581B
:10185000BF4F8C91838B4801BEE68B0E911CF40127
:101860002081318142815381B6016C5E7F4FC70177
:101870000E94EB0AD4012D913D914D915C91B601EE
:10188000685E7F4FC7010E94EB0AF701EC0DFD1D5A
:10189000148E158E168E178ED6019096AE0DBF1D26
:1018A000F801E25AFF4F80E101900D928A95E1F72D
:1018B0009601205D3F4FA114B104D9F48FEF92E05F
:1018C0009A8389831C821B821E821D8218861F8236
:1018D0001A8619861C861B861E861D8680E09AE164
:1018E000988B8F8741E050E06BE970E0CE01019664
:1018F00005C041E050E06BE970E0C5010E94412B5A
:1019000060960FB6F894DEBF0FBECDBFDF91CF91CA
:101910001F910F91FF90EF90DF90CF90BF90AF900D
:101920009F908F9008950F931F93CF93DF93CDB720
:10193000DEB7A1970FB6F894DEBF0FBECDBF8C0106
:10194000A8ECB2E180E090E02C91FD01719730812C
:101950003323F9F02230E8F4FD01709720812E3F07
:1019600099F021E2289FF001299FF00D1124E854FD
:10197000FD4E80E1DE01119601900D928A95E1F70E
:1019800001151105A9F40BC0FD013F9720812038F6
:1019900041F70196919683309105B1F661C08FEFC2
:1019A0009FEF69A30E942F0769A1009721F458C0F7
:1019B000F801828193812091420A30E02952304F10
:1019C00040917D054F5F40937D05FC0180A1F901A9
:1019D000808311821282438385E0848382E1858340
:1019E000168280E8878380E1FE013196D90118963E
:1019F00001900D928A95E1F786E0F901808F84E0ED
:101A0000818F128E138E148E658F01151105A9F426
:101A10008FEF92E09A8B898B1C8A1B8A1E8A1D8A03
:101A2000188E1F8A1A8E198E1C8E1B8E1E8E1D8E6E
:101A300080E09AE198A38F8F09C080E1F8013B967E
:101A4000DE01519601900D928A95E1F72EE130E08A
:101A500042E050E06BE970E0CE0141960E94412BDC
:101A6000A1960FB6F894DEBF0FBECDBFDF91CF9128
:101A70001F910F910895CF93DF93DB01E091420A0C
:101A8000F0E0E952F04FEC0188A18083118242839B
:101A9000138224E030E043E050E06BE970E0CD01D8
:101AA000DF91CF910C94412B2F923F924F925F92F6
:101AB0006F927F928F929F92AF92BF92CF92DF925E
:101AC000EF92FF920F931F93CF93DF93CDB7DEB7C3
:101AD000CE58D1090FB6F894DEBF0FBECDBF3091FE
:101AE000420A832F90E0FC01ED52F04F218121301A
:101AF00031F008F4A0C1223009F0ADC2B0C188E0D5
:101B00008B8F8CE08C8F8AE08D8F80E1E3EBFFE0A0
:101B1000DE01A858BF4F01900D928A95E1F7CE01E2
:101B200088589F4F0E94B639892B91F421E040E0FC
:101B30006BE47FE0CE0188589F4F0E941E390097CA
:101B400039F048E552E060E070E049960E94A41741
:101B50000091420A20919B0F201B2C5210E0095249
:101B6000104FD8018C91898F11968C911197888F85
:101B700012969C91129780E013963C911397832BB9
:101B80009C8B8B8B14963C911497832F80788D8B34
:101B9000832F8C7390E0F3E095958795FA95E1F7A4
:101BA0008E8B37703F8B15968C918A8F80E1F80170
:101BB0003896DE01119601900D928A95E1F7A8E121
:101BC000EA2EF12CC22ED12C5E01B5E2AB0EB11C77
:101BD00025C1F801EE0DFF1D8081882331F0418081
:101BE000512CE2E04E0E511C03C044244394512C6E
:101BF00042018E0C9F1CC814D9040CF42CC28330F3
:101C000009F458C020F4823009F007C107C08430BD
:101C100009F48DC0883009F000C1D6C0F6E04F1637
:101C200051040CF418C2F801EE0DFF1D828162967A
:101C30008FAF62973381330F9481292F221F222780
:101C4000221F232B63962FAF6397292F2295237092
:101C500064962FAF64979F7065969FAF6597958147
:101C600066969FAF66978730C9F42681C757DF4FC6
:101C70002883C958D040C857DF4F1882C858D04071
:101C80008781C857DF4FA881B981C858D040A82B99
:101C9000CD0168969FAF8EAF6897BFC0823009F0C4
:101CA000DAC1868167968FAF6797878168968FAF15
:101CB0006897B3C0B9E04B1651040CF4CCC1F801DD
:101CC000EE0DFF1D228129AF83818AAFB7016C5FC2
:101CD0007F4FC801C257DF4F2883CE58D0400E94A3
:101CE000D70A6DAB7EAB8FAB98AFC257DF4F288161
:101CF000CE58D040822F90E0079673E09595879557
:101D00007A95E1F7AC01495F5F4F441555050CF03A
:101D1000A2C1213808F09FC1E8E0EE0EF11CE00EF0
:101D2000F11EAC01B701C5010E94D35676C0F0E1A7
:101D30004F16510409F08FC1F801EE0DFF1D83818C
:101D40008B8F84818C8F85818D8F2681C557DF4F46
:101D50002883CB58D040C657DF4F1882CA58D0408E
:101D60008781C657DF4FA881B981CA58D040A82BB8
:101D7000CD019AA389A3B085C357DF4FB883CD584F
:101D8000D040C457DF4F1882CC58D0408185C4570B
:101D9000DF4F28813981CC58D040282BC9019CA322
:101DA0008BA33284212C8385D101A82BCD019A8B62
:101DB000898B85858E8F7684612C8785F301E82B4E
:101DC000CF0198A38F8F29C0F0E24F16510409F07C
:101DD00042C128014E0C5F1CD20112968C911297C1
:101DE00060968FAF609713968C9161968FAF6197D5
:101DF000B701685F7F4FC8010E94D70A2F966CAF6A
:101E00007DAF8EAF9FAF2F97F201709680E1DE011C
:101E1000DB9601900D928A95E1F77401EC14FD04B4
:101E20000CF4D7CEBE016F5F7F4FCE0188589F4F15
:101E30000E94750810C18FEF9FEF0E942F07009737
:101E400009F409C12091C30F2F3F21F460E00E94E3
:101E50004E1101C163EB7FE00E942D0BFCC020E11D
:101E6000E3EBFFE0DE01A859BF4F01900D922A95E8
:101E7000E1F767EDC62E6FE0D62EC80ED91EA090F2
:101E80009B0FA31AB4EDAB0EF601808190E00E9487
:101E90002F077C01009709F4DEC0DC019D965C9061
:101EA000F6012180338026FE03C004E110E002C069
:101EB00004E010E0412CB12C3E01F8E56F0E711CDE
:101EC00020E139C0F601E00FF11F8081882371F114
:101ED0008180912C32E0830E911C853019F0863080
:101EE00041F522C04380D301E22F1D92EA95E9F724
:101EF000842D90E0079653E0959587955A95E1F7E4
:101F0000F8013496EC0DFD1DAC01BF01C301C257B1
:101F1000DF4F2883CE58D0400E94D356C257DF4FA0
:101F20002881CE58D04005C0558003C088248394B2
:101F3000912C080D191D0A151B0524F2CE01885A93
:101F40009F4F0E940D3D8C0151101EC0009709F457
:101F500082C0FC0187A190A5A1A5B2A5892B8A2BDF
:101F60008B2B09F078C083A194A1A5A1B6A187A36A
:101F700090A7A1A7B2A78CE390E0A0E0B0E083A374
:101F800094A3A5A3B6A367C0A9968FADA9978F3FC9
:101F900009F066C01DC0D7019A962D913C919B9780
:101FA000838D948DB9010E942A566B01D7015B96EF
:101FB0008D919C915C97B9010E942A56C616D7064E
:101FC00058F48FEF9FEF948F838F81E0878F43C00A
:101FD00032E0C32ED12C03C0CC24C394D12C0115E4
:101FE000110571F49E0128593F4F442D50E0BE0168
:101FF000685A7F4FC7010E94D24C8C01009759F15B
:10200000F70126A537A5A52DB0E00E941356D801EB
:1020100093966D937D938D939C9396979D96CC927A
:10202000CA94CD28C1F4E85AFF4F8081918100976E
:1020300049F0950142E050E06BE970E00B960E9498
:10204000412B09C027FE07C0432DBE0168597F4FB1
:10205000C7010E943B0D10929C0F10929B0F0BC06A
:10206000BE0168597F4FC7010E94FF05FC01009720
:1020700009F091CFB1CFC257DF4F0FB6F894DEBF52
:102080000FBECDBFDF91CF911F910F91FF90EF90C9
:10209000DF90CF90BF90AF909F908F907F906F9088
:1020A0005F904F903F902F9008958F929F92AF92A4
:1020B000BF92CF92DF92EF92FF92CF93DF93EC012A
:1020C00060E870E080E090E009A804C0660F771F28
:1020D000881F991F0A94D2F728EE33E040E050E0C1
:1020E0000E943E562CAB3DAB4EAB5FAB49015A0153
:1020F000B694A794979487940E944218DC01A50196
:1021000094010E941F562FEF3FEF40E050E00E94E5
:102110003E5669017A01C80CD91CEA1CFB1C4CA96B
:102120005DA96EA97FA94C195D096E097F094CABA9
:102130005DAB6EAB7FAB81E08AAB1BAA9E014EEF1D
:1021400050E1B601CE01C896DF91CF91FF90EF909C
:10215000DF90CF90BF90AF909F908F900C94E61639
:102160000E94714C0E94510880917E0590917F05DC
:10217000019690937F0580937E058FEF9FEF0E94DD
:102180002F07892B71F480917E0590917F05CC9764
:1021900040F010927F0510927E0580E090E00E9452
:1021A000F30A80E895E00C941817CF93DF93EC01C5
:1021B00080919005811111C081E00E94403B892BE4
:1021C00061F49E0145ED50E160E870E0CE01885B6E
:1021D0009F4FDF91CF910C94E616FE01E85AFF4F16
:1021E00080819181009719F06DA50E94930CCE011A
:1021F000885B9F4FDF91CF910C946A17CF93DF9349
:10220000EC018091900581110FC081E00E94403B5C
:10221000892B21F081E08093900506C09E014EEF4E
:1022200050E160E870E012C08AA98823A9F09BA958
:102230008FA1981728F460E070E0CE010E942D0B6A
:102240001AAA6CA97DA99E014EEF50E1CE01C89655
:10225000DF91CF910C94E61649A9242F30E05EA1BE
:102260008DA190E0850F911D2817390714F44F5F59
:1022700049ABCE01DF91CF910C94551087E390E0EC
:1022800090937F0580937E0520E030E040EB50E1A5
:1022900060E870E080E895E00C94E616FC016111BE
:1022A00004C091A986A1891730F413AA86A181AB35
:1022B000CF010C94551008950F931F93CF93DF9384
:1022C000EC018C01065B1F4FC8010E942016C8015B
:1022D0000E941516892B89F00E9442189370BC0148
:1022E0007E5F9E0145ED50E1CE01885B9F4FDF91FF
:1022F000CF911F910F910C94E616DF91CF911F9112
:102300000F910895FC010097B9F0218532852115C0
:10231000310559F4A281B381438D548D9A968D91E4
:102320009C919B978417950738F0858D98E0899F3D
:10233000200D311D112402C020E032E3C9010895AF
:1023400008950895FC01009731F461157105F9F0C5
:1023500080E095E013C0458D42954F70A281B38116
:102360009A962D913C919B97429FC001439F900D5F
:1023700011246115710511F4638D748D9B012095F5
:1023800030952817390718F0680F791F02C06FEFD2
:102390007FEFCB010895CF92DF92EF92FF920F93E0
:1023A0001F93CF93DF93EC018B01CA80DB800E94E7
:1023B00082117C01C8010E948211F601E85AFF4F88
:1023C00020813181C217D30719F00217130761F476
:1023D000AC01405C5F4FE416F50630F4AC014054AC
:1023E00051094E155F0530F0E816F90610F49E010C
:1023F00001C09801C901DF91CF911F910F91FF900A
:10240000EF90DF90CF900895CF93DF93EC0188E0B9
:1024100089831A821B822B8D3C8D8AA59BA5281748
:10242000390741F0FE01E85AFF4F808191810E94F7
:10243000821102C080E090E027E0288322E02C8314
:102440009E838D83DF91CF9108951F93CF93DF9368
:10245000EC01162F888580FF1EC0EC81FD8130972E
:10246000D1F0D0939205C093910582E08887CE0188
:1024700006960995992787FD90950297029710F087
:10248000133839F4BE01CE01DF91CF911F910C9426
:102490004F1281E08887DF91CF911F910895CF92ED
:1024A000DF92EF92FF920F931F93CF93DF93EC0194
:1024B0006B01E0909105F0909205009193051091C9
:1024C0009405F80103C00190F081E02DEC17FD07A1
:1024D00019F03097C1F746C0209709F443C08885AA
:1024E000882309F118860BC0C017D10729F0AE0167
:1024F00067E8C8010E942512F801008111810115C9
:10250000110591F7EC81FD81309769F0CC15DD055F
:1025100051F0D0939205C093910540E050E063E8FC
:10252000CE0106960995E0919305F0919405CE179A
:10253000DF0791F4888199819093940580939305A6
:102540000DC0808191818C179D0729F48881998124
:102550009183808303C0FC01309799F7F092920534
:10256000E0929105DF91CF911F910F91FF90EF9035
:10257000DF90CF9008951F93CF93DF93109295052E
:10258000C0919305D091940511E00EC089858823F0
:1025900041F01887198640E050E062E8CE010E94C1
:1025A00025120990D881C02D209781F7DF91CF9116
:1025B0001F91089580919605982F9F5F909396059F
:1025C000089560919105709192050C944F128AE8DC
:1025D00080939605109297051092980510924A0FD5
:1025E0001092940510929305109292051092910505
:1025F00008958091950581110E94BB1270919805F4
:10260000772309F452C0E09197052E2F30E085E042
:10261000E89FF0011124E756FA4F60816093C105ED
:10262000418152815093C3054093C20583819481B7
:102630009093C5058093C4052F5F3F4F27703327C4
:1026400020939705715070939805009739F5809104
:1026500093059091940517C08091950581110E9472
:10266000BB124091C2055091C3056091C105809194
:10267000C6059091C7050E942512E091C605F0910C
:10268000C705808191819093C7058093C60580918D
:10269000C6059091C705892BF9F607C0613819F472
:1026A00021E0FC0120870E94251220919505809150
:1026B000980530E0280F311DC90108952091950536
:1026C0008091980530E0280F311DC90108952091AF
:1026D00098052830E1F0E0919705E20FE770E0936C
:1026E000C80535E0E39FF0011124E756FA4F6083F7
:1026F0005283418394838383822F8F5F80939805D5
:1027000090914A0F981730F480934A0F03C021E04C
:1027100030E002C020E030E0C9010895CF93DF939C
:10272000C0919105D09192050E942512D0939205F7
:10273000C0939105DF91CF910895AB01309193053E
:1027400020919405E32FF22F03C00190F081E02D3A
:10275000E817F90791F03097C1F7009771F0FC0185
:1027600030832183909394058093930521E0208703
:102770001782168261E80C948E130895009749F031
:10278000FC0120852150223020F421E02187209374
:102790009505089521E030E0FC018085811102C09B
:1027A00020E030E0C9010895CF93DF93EC014A8126
:1027B0005B8160E070E08C819D810E94EE564A81D1
:1027C0005B8128813981429FC001439F900D529FB8
:1027D000900D1124AC0160E070E08E819F81DF914B
:1027E000CF910C94EE56FC018281938120E030E081
:1027F00019C0A481B581A20FB31F4C91411110C023
:1028000081E08C9340815181249FC001259F900DD0
:10281000349F900D112426813781280F391F07C05E
:102820002F5F3F4F2817390721F720E030E0C9011B
:102830000895FC01268137814281538180E090E038
:1028400018C02617370781F4A481B581A80FB91FD6
:102850002C91121614F421502C930480F581E02D54
:10286000E80FF91F80810895A081B1812A0F3B1FD5
:1028700001968417950729F78FEF0895FC012681AB
:1028800037816217730790F0A081B1814281538133
:10289000A49FC001A59F900DB49F900D1124820F9D
:1028A000931F21E030E06817790710F020E030E056
:1028B000C9010895FC01118210820895FC018081F4
:1028C00091810895FB0120813181FC0131832083B6
:1028D0000895DC01ED91FC91309711F405C0FC01E5
:1028E000808191810097D9F7CF010895DC01ED91A6
:1028F000FC911197309779F020813181232B09F4D5
:1029000008C0DF010190F081E02D80819181892B49
:10291000C1F71D921C92CF010895DC01ED91FC914D
:102920001197309721F0208131812D933C93CF0175
:102930000895DC01ED91FC913097A9F0A0E0B0E0A2
:1029400001C0F90120813181E617F70741F41097A2
:1029500009F4DC012D933C93118210820895DF016C
:102960002115310571F708950F931F93CF93DF93CE
:10297000EC018B010E94991488819981F80191835F
:10298000808319830883DF91CF911F910F91089560
:102990000F931F93CF93DF938C01EB010E94991447
:1029A00019821882C8010E946914009711F4F80175
:1029B00001C0FC01D183C083DF91CF911F910F91A2
:1029C0000895DC01ED91FC9120E030E005C02F5F1F
:1029D0003F4F0190F081E02D3097C9F7C90108956C
:1029E000FB01309719F4BA010C94B41480819181E1
:1029F000DA018D939C93518340830895009721F0D1
:102A0000FC012081318102C020E030E0C90108953D
:102A10008091C9059091CA05892B29F41092CC05A3
:102A20001092CB0508950E94E842E091C905F0910B
:102A3000CA052281338140815181240F351F281B13
:102A4000390B0CC04281538160817181460F571F41
:102A5000481B590B4217530708F49A010480F5816B
:102A6000E02D309779F7280F391F3093CC0520934C
:102A7000CB05089586E292E00C94BE13EF92FF928C
:102A80000F931F93CF93DF938C01FC018081918181
:102A9000009729F08A35910509F064C068C010924A
:102AA000CA051092C9058AE590E0F80191838083F8
:102AB00081E064C00480F581E02D309709F4EFCF08
:102AC0008681978184179507A9F3E093C905F09350
:102AD000CA050FC016968D919C911797841795077C
:102AE00039F414968D919C9115979583848301C038
:102AF000FD01A481B581109769F7D5CF623899F6A9
:102B0000C091C905D091CA05E12CF12C28C0CE0195
:102B10000E942B4E892BF1F0AE0168E88E819F81D7
:102B20000E946713892BA1F41F821E828C819D81D4
:102B3000E114F10421F0F7019583848304C090939C
:102B4000CA058093C9051D821C820E940815D8CF32
:102B50000E943A159C818D817E01C92FD82F209724
:102B6000B1F6A1CFF8011182108283E007C0673867
:102B700029F6E091C905F091CA059FCFDF91CF9169
:102B80001F910F91FF90EF900895CF93DF93EC0189
:102B90000E943A158E819F813091C9052091CA0506
:102BA000892B61F0E32FF22F07C0EC17FD0709F422
:102BB00011C00480F581E02D3097B9F7809191051F
:102BC000909192059F838E833C832D83D093CA0579
:102BD000C093C905DF91CF910C940815CF93DF9373
:102BE000EC010E940B4ECE01DF91CF910C94C515E4
:102BF000CF93DF93EC010E94174ECE01DF91CF916E
:102C00000C94C515CF93DF93EC010E94214ECE01A9
:102C1000DF91CF910C94C515FC0120813181260FE5
:102C2000371F318320830C94081521E030E0FC012C
:102C300086819781892B11F020E030E0C901089549
:102C4000FC012281338180819181280F391FC901C4
:102C50000895FC0180819181089521E030E0809108
:102C6000C9059091CA05892B11F420E030E0C90113
:102C700008958091C9059091CA05892B29F020916A
:102C8000CB053091CC0502C020E030E0C9010895A9
:102C9000CF93DF93EC01E091C905F091CA058E173F
:102CA0009F0741F48C819D819093CA058093C9054B
:102CB00012C0FC01309731F0848195818C179D07FB
:102CC000C1F705C01D821C821F821E8207C08C8135
:102CD0009D81958384830E940815F4CFDF91CF9165
:102CE0000895EF92FF920F931F93CF93DF938C0180
:102CF0007A01FC0180819181009729F08B34910544
:102D000009F047C04DC08EEC95E00E945E14EC01C6
:102D100009C06C817D81CE0102960E94EE1509905A
:102D2000D881C02D2097A9F781E08093CD058BE451
:102D300090E0F8019183808331C08EEC95E00E9491
:102D40005E14EC0123C0CE010296E816F906D9F410
:102D5000BE018EEC95E00E949914E0909105F090F0
:102D600092058A859B859093920580939105EC85C9
:102D7000FD85309719F08E859F850995F092920513
:102D8000E0929105D4CF0990D881C02D2097D9F633
:102D9000CECFF8011182108283E005C081E003C02C
:102DA0006838E1F7CACFDF91CF911F910F91FF9063
:102DB000EF9008951092CD058EEC95E00E945A1484
:102DC00060E070E080E392E00C949D130F931F93FA
:102DD000CF93DF93EC0100919105109192051B8731
:102DE0000A875D874C873F872E878091CD05882392
:102DF00079F080E392E09093920580939105CE0163
:102E000002960E94EE15109392050093910502C060
:102E10007D836C83BE018EEC95E00E949914BE0107
:102E20008EEC95E0DF91CF911F910F910C94C81417
:102E30000F931F93CF93DF93EC018091CD058823EF
:102E400091F0009191051091920580E392E09093AA
:102E5000920580939105CE0102960E94F815109379
:102E6000920500939105BE018EEC95E00E949914A5
:102E7000BE018EEC95E0DF91CF911F910F910C94E4
:102E8000C8140F931F93CF93DF93EC018091CD056E
:102E9000882391F0009191051091920580E392E0D2
:102EA0009093920580939105CE0102960E9402169E
:102EB0001093920500939105BE018EEC95E00E945F
:102EC0009914BE018EEC95E0DF91CF911F910F9187
:102ED0000C94C814CF93DF93EC018091CD05882327
:102EE00029F0CE0102960E94481604C01F821E825D
:102EF00019861886BE018EEC95E0DF91CF910C9477
:102F00009914CF93DF93EC018091CD05882331F0A4
:102F1000CE010296DF91CF910C9415168EEC95E0C0
:102F20000E945E1406C08C179D0741F0FC01808151
:102F300091810097C1F721E030E002C020E030E04D
:102F4000C901DF91CF910895CF93DF93EC014C83BA
:102F50005D836E837F830E941543688379838A83B0
:102F60009B83DF91CF9108950F931F93FC014081C4
:102F70005181628173810481158126813781400FDF
:102F8000511F621F731F40835183628373831F919C
:102F90000F910895CF93DF93EC010E94154368834E
:102FA00079838A839B83DF91CF910895CF92DF92BB
:102FB000EF92FF920F931F93CF93DF93EC010E9448
:102FC00015430C811D812E813F81C880D980EA8004
:102FD000FB800C0D1D1D2E1D3F1D601B710B820BF8
:102FE000930B21E030E06F3F7F4F8F4F9F4710F0F2
:102FF00020E030E0C901DF91CF911F910F91FF9048
:10300000EF90DF90CF900895CF92DF92EF92FF92F2
:103010000F931F93FC01C480D580E680F7808081E8
:103020009181A281B381C80ED91EEA1EFB1E0E94A7
:10303000154397018601061B170B280B390BB801A6
:10304000C9011F910F91FF90EF90DF90CF900895ED
:103050000F931F93CF93DF93EC010E9415438B01D5
:103060009C0188819981AA81BB81081B190B2A0BBD
:103070003B0BB801C901DF91CF911F910F910895CA
:103080000C94BB560C94B7564F925F926F927F92FE
:103090008F929F92AF92BF92CF92DF92EF92FF9268
:1030A0000F931F93CF93DF934C01C0E0D0E0612CCE
:1030B000712C84EBE82E81E0F82E92EBC92E91E082
:1030C000D92E2FEAA22E21E0B22E01C0E201F40196
:1030D000E60DF71D108100E081812801480E511C8A
:1030E0004114510479F4D7FD10C02E018FEF481A16
:1030F000580ACD2B09F5BF92AF920E94F5560F905A
:103100000F901AC01C161D0654F06114710449F08A
:10311000DF92CF920E94F5560F900F9002C0CFEF32
:10312000DFEF5F924F92FF92EF920E94F5560F9061
:103130000F900F900F902E0182E0680E711C80E1BD
:103140006816710419F6DF91CF911F910F91FF90CE
:10315000EF90DF90CF90BF90AF909F908F907F9037
:103160006F905F904F900895CF92DF92EF92FF9211
:103170000F931F93CF93DF93EC0100E010E039EB46
:10318000E32E31E0F32E47EBC42E41E0D42E06C0EF
:10319000DF92CF920E94F5560F900F9089911F9267
:1031A0008F93FF92EF920E94F5560F5F1F4F0F9083
:1031B0000F900F900F900830110551F7DF91CF91CC
:1031C0001F910F91FF90EF90DF90CF90089580E3D3
:1031D0008093D4050895CF93DF932091D40530E0F8
:1031E000C0E3D0E0C21BD30B29523A4FAE01B90164
:1031F0000E94D356CE01DF91CF910895CF92DF92F6
:10320000EF92FF920F931F93CF93DF936C01E090A7
:10321000D205F090D3056091D40570E08701005D80
:103220001F4F061B170B01381105F0F4C0E3D0E067
:10323000C61BD70BCB0189529A4FAE01BC01C60108
:103240000E94D356CC0DDD1D2091D5053091D605B9
:103250008091D0059091D105280F391FA701B901A0
:10326000CE010E94D35602C000E010E0C801DF91F9
:10327000CF911F910F91FF90EF90DF90CF90089525
:103280009091D405980F9093D40508954091D2055C
:103290005091D3059C014817590798F08091D005AB
:1032A0009091D105820F931F9093D1058093D00503
:1032B000421B530B5093D3054093D20521E030E0DD
:1032C00002C020E030E0C90108959093D3058093B7
:1032D000D20508952091D0053091D105295F394F4D
:1032E000C90108952091D40530E029523A4FC9010F
:1032F000089521E030E08091D5059091D605875062
:10330000964011F420E030E0C90108950E94791937
:10331000892B69F027E036E06091D5057091D605DC
:103320004091D2055091D305C9010C94D3562091F8
:10333000D0053091D10521153105B9F08091D20524
:103340009091D305C096E7E0F6E005C0DF01A20F3B
:10335000B31F4C914193AF01475D55404817590742
:10336000ACF31092D1051092D00508958091D50547
:103370009091D60508958091D2059091D305089536
:103380009091D40580E3891B089580E39091D40542
:10339000891B2091D2053091D305280F311DC90119
:1033A00008951F93CF93DF93EC011091D405812FE3
:1033B00090E08C179D076CF00E94C5198C0F9D1F23
:1033C0008138910530F41C1B1093D40521E030E0C6
:1033D00002C020E030E0C901DF91CF911F91089534
:1033E000CF93DF93EBE6FFE0119211928FE0EB3980
:1033F000F807D1F7C0E0D0E0CE0123E0880F991F95
:103400002A95E1F761E073E0855B904F0E94574A8F
:103410002196C430D10581F7DF91CF9108951092A4
:10342000D1051092D0051092D3051092D20580E3F9
:103430008093D40587E096E09093D6058093D505D8
:103440000C94F0190F931F93CF93DF938C01EB0132
:103450000E940F1A1093D6050093D505D093D3057B
:10346000C093D205DF91CF911F910F9108950F93D3
:103470001F93CF93DF9300D000D0CDB7DEB76B831F
:103480007C8389839A830E940F1A6B81062F7C812B
:10349000172F89819A810138110510F000E810E09A
:1034A000A801BC018091D5059091D6050E94D35604
:1034B0001093D3050093D205C8010F900F900F9081
:1034C0000F90DF91CF911F910F91089520E3EBE6CC
:1034D000FFE0DC0101900D922A95E1F780E2EBE438
:1034E000FFE0DB0101900D928A95E1F7089520E35A
:1034F000FC01ABE6BFE001900D922A95E1F780E276
:10350000FB01ABE4BFE001900D928A95E1F70895CD
:103510008AE392E00E94D41382E492E00C94D413E4
:10352000CF93DF930E947919892BC1F082E492E056
:103530000E94F313EC01009719F4C0E0D0E022C020
:103540000E94BB19998388830E94B6199B838A8342
:10355000CE0104960E94EB188CAB14C08AE392E073
:103560000E94F313EC01009741F302960E94FE18AB
:1035700099838883BE016E547F4FCE018E579F4F33
:103580000E94661ACE01DF91CF910895BC016E545E
:103590007F4F8E579F4F0C94661ACF93DF93EC01A9
:1035A000BC018AE392E00E943E14BE01892B19F00F
:1035B0008AE392E009C082E492E00E943E14892BE3
:1035C00039F0BE0182E492E0DF91CF910C9419149E
:1035D000DF91CF9108950F931F93CF93DF931F92A5
:1035E000CDB7DEB78C01BC018AE392E00E943E14A5
:1035F000892B99F0F80161917191CF010E94371ADE
:10360000B8016E547F4FC8018E579F4F0F90DF91C6
:10361000CF911F910F910C94771AB80182E492E038
:103620000E943E14892BF9F00E940F1AF801608164
:103630007181828193810E94371AF80184A990E0F8
:103640000E94D119F80144A949830E947219B80156
:103650006C5F7F4F498150E00F90DF91CF911F91B8
:103660000F910C94D3560F90DF91CF911F910F9132
:103670000895CF93DF93EC01BC018AE392E00E94AE
:103680003E14892B11F022960DC0BE0182E492E017
:103690000E943E14892B21F00A80DB81C02D02C0DC
:1036A000C0E0D0E0CE01DF91CF910895FC01808190
:1036B000918108959C0148E0649F200D311D1124E3
:1036C0002E503109C9010895FC01E60FF11DE60FE6
:1036D000F11DEE57FF4F80819181089508959C015F
:1036E00041505109460F571FFB010EC0B081A0E0A9
:1036F0008181BD01680F711D260F371F26173707FF
:1037000010F42F5F3F4F3296E417F50778F3E41774
:10371000F50749F4908180E0280F391F28173907F1
:1037200010F42F5F3F4FC90108950F931F93CF935C
:10373000DF9300D0CDB7DEB70091420A3091AF0FD2
:1037400020E010E0201B310B9091B00F290F311DAC
:103750003A83298329813A8140E250E063EB7FE09C
:10376000F901E80FF11DCF010E946F1B49815A81B9
:10377000B8016D52704F0E946F1B009719F0382FDF
:10378000292F02C02FEF3FEFC9010F900F90DF915B
:10379000CF911F910F9108952091420A822F90E0BE
:1037A0008896FC01E555F04F418138E0439FA00128
:1037B0001124495F5F4F62E034C0E80FF91FE555FF
:1037C000F04F3081332319F0313019F427C06F5F87
:1037D00028C0307C303829F0303C49F03034F1F4E6
:1037E00003C06093410A09C06093410A23C06093FB
:1037F000410A8091C30F8F3FE9F030E040E050E094
:10380000285D3F4F4F4F5F4F260F311D411D511D0A
:1038100062E084E00E94702A82E0089531813E5F78
:10382000630FE62FF0E04E175F073CF66093410A06
:1038300080E0089581E00895FC015381560F509374
:10384000A20F872F99274281480F4093A10FA18192
:10385000A093A00FE081E0939F0F242F30E0281762
:10386000390748F48A2F8F5F8093A00F811103C01E
:10387000EF5FE0939F0F852F90E0772786179707DC
:1038800088F44F5F4093A10F41110CC08091A00FAD
:103890008F5F8093A00F811105C080919F0F8F5F74
:1038A00080939F0F0895AB01BC0180E090E00E94DF
:1038B0006F1B382F292FC901089548E250E06BEAA9
:1038C0007FE080E090E00E946F1B009719F0382F96
:1038D000292F02C02FEF3FEFC90108958AE30C940E
:1038E000951B86E00C94951B81E10C94951B0E941E
:1038F000DC3F80E0E82FF0E0EE0FFF1FEC5AFE4EB9
:10390000118210828F5F8830A8F380E09CE2989F3C
:10391000F0011124EC55FF4E15A28F5F8430B8F3EF
:1039200080E094E09093460A8093450A80E099E114
:10393000989FF0011124EA59FE4E118A108A8F5F78
:103940008C30B0F38093440A0895CF93DF93209195
:10395000450A3091460ACCE22F5F3F4F21154DE7D3
:10396000340710F020E030E1F22FE32F40E050E088
:1039700015C0C49FD001C59FB00D1124AC55BF4EDA
:103980009596DC919597DD2339F050960D90BC917A
:10399000A02DAE17BF0701F34F5F5F4F44305105B5
:1039A00041F73093460A2093450A1092440A20E0DA
:1039B000C0E0D0E04CE21BC0429FD0011124AC55C6
:1039C000BF4E95963C919597311104C02093440ABF
:1039D000ED0111C0373051F4209739F096965C9183
:1039E00096973EA1351708F001C0ED012F5F2430F6
:1039F00018F32093440A2097A9F122E02DA32091E7
:103A0000470A288F2091480A298F2091490A2A8F36
:103A100020914A0A2B8F1C8A1D8A1E8A1F8A20E346
:103A200030E03F8F2E8F39A328A321E030E03D8F77
:103A30002C8F1FA221E02EA323E02CA31AA240E189
:103A40004BA32091450A3091460A3227232732277B
:103A5000398B288B7B8B6A8BFC01DE0101900D92E8
:103A60004A95E1F7CE01DF91CF910895CF93DF938F
:103A70002091450A3091460A2F5F3F4F21154DE7AF
:103A8000340710F020E030E1522F432FA6E7B1E1D8
:103A9000C0E008C0ED91FC911197CF5F5996E417F3
:103AA000F50751F3CC30B1F73093460A2093450A1D
:103AB00040E059E114C0E42FEF5F549FE00111246E
:103AC000CA59DE4E28893989232B41F44093440A90
:103AD0009E01209749F420E030E025C04E2F4C3065
:103AE00050F34093440AF7CF4091450A5091460A5B
:103AF000542745275427598B488B7B8B6A8B00971B
:103B000041F4EC2FFD2F80E1DF011D928A95E9F74A
:103B100007C040E1FC01DE0101900D924A95E1F7FA
:103B20008091A9128C8BC901DF91CF91089540E05B
:103B300013C0E42FF0E0542F5F5FEE0FFF1FEC5A2D
:103B4000FE4E208131812817390729F44093440A19
:103B5000118210820895452F483058F34093440A4B
:103B6000089540E012C0E42FF0E0542F5F5FEE0FA5
:103B7000FF1FEC5AFE4E20813181232B29F4409304
:103B8000440A918380830895452F483060F3409321
:103B9000440A08959F92AF92BF92CF92DF92EF9224
:103BA000FF920F931F93CF93DF93C091A210D091F8
:103BB000A310843009F46CC327EE3FE03093A110CA
:103BC0002093A01030939E0F20939D0F833061F4BB
:103BD0008DA18F70833009F071C08C8D9D8D892BE4
:103BE00011F00C9459268AC0823009F08BC01092D3
:103BF0009C0F10929B0F109265111092641180918E
:103C00004A0A8F5F80934A0A811113C08091490A42
:103C10008F5F8093490A81110CC08091480A8F5FA1
:103C20008093480A811105C08091470A8F5F809375
:103C3000470A2DA1273011F0253051F48EA18F5F56
:103C40008EA3883711F00C9459261DA20C94592686
:103C5000222311F40C9459268C8D9D8D892B09F407
:103C600049C08EA1982F91509EA381110C94592682
:103C70003FA1383031F0822F8150823048F4353006
:103C800039F41DA280E880939B100E946129D6C65A
:103C9000353040F483E090E0032E01C0880F0A9491
:103CA000EAF701C080E38EA33F5F3FA3822F8F70AE
:103CB0008330D1F040F4813009F4B5C4823011F082
:103CC0000C9459260AC0863009F453C6883009F48A
:103CD00050C6843009F0EDC74CC6E091420AF0E0CE
:103CE000ED52F04F1586A6C484E080939B100E948D
:103CF0006129DBC62F70233009F0DBC788E0809391
:103D00009B1091C6853019F5E0919E10F0919F109F
:103D100080899189892B09F4CCC71092A310109245
:103D2000A2108BED9FE09093A1108093A010909330
:103D30009E0F80939D0F1092651110926411109246
:103D40009C0F10929B0F88E080939B109FC28091E4
:103D5000AB0F807F803609F0ACC79091AF0F80E049
:103D60002091B00F820F911D20919B0F30919C0FDD
:103D70002817390708F49DC7889690939C0F809365
:103D80009B0F8091B30F8F3F09F493C783EC9FE0A3
:103D90000E94223B892B09F016C183EC9FE00E9410
:103DA000663C892B09F00FC12091C30F2F3F09F406
:103DB0008FC02E3F29F48091C40F803809F488C049
:103DC0008091B30F8E3F29F48091B40F803809F4AD
:103DD0007FC08091B30F9091B40F892B59F58091DA
:103DE000B50F9091B60F892B29F58091B70F90915F
:103DF000B80F892BF9F48091B90F9091BA0F892BE4
:103E0000C9F48091BB0F9091BC0F892B99F48091DC
:103E1000BD0F9091BE0F892B69F48091BF0F9091D7
:103E2000C00F892B39F48091C10F9091C20F892B5B
:103E300009F44EC08091C30F9091C40F892B51F5A6
:103E40008091C50F9091C60F892B21F58091C70FE6
:103E50009091C80F892BF1F48091C90F9091CA0FEE
:103E6000892BC1F48091CB0F9091CC0F892B91F4C9
:103E70008091CD0F9091CE0F892B61F48091CF0F5F
:103E80009091D00F892B31F48091D10F9091D20F66
:103E90000197F1F080919B0F90919C0F813095409C
:103EA00038F020E035E040E050E060E082E009C01A
:103EB0008091B20F823040F420E030E0A90160E050
:103EC00083E00E94702AFDC681508093B20FF9C62C
:103ED0008091B30F8E3F09F0ECC68091B40F80380B
:103EE00009F0E7C68091B30F9091B40F892B59F573
:103EF0008091B50F9091B60F892B29F58091B70F5E
:103F00009091B80F892BF9F48091B90F9091BA0F65
:103F1000892BC9F48091BB0F9091BC0F892B99F428
:103F20008091BD0F9091BE0F892B69F48091BF0FD6
:103F30009091C00F892B39F48091C10F9091C20FDD
:103F4000892B09F4B6C68091C30F9091C40F892BB9
:103F500059F58091C50F9091C60F892B29F5809155
:103F6000C70F9091C80F892BF9F48091C90F9091D8
:103F7000CA0F892BC9F48091CB0F9091CC0F892B5C
:103F800099F48091CD0F9091CE0F892B69F4809197
:103F9000CF0F9091D00F892B39F48091D10F909150
:103FA000D20F019709F485C62F3F09F482C683EC2E
:103FB0009FE00E94F23A81117CC620E030E0A90126
:103FC00062E081E07ECF81EB9FE090939D10809333
:103FD0009C101092420A1092430AE0919C10F091BA
:103FE0009D1080818B3209F45EC048F4863009F45C
:103FF000B5C1813109F4BAC0882381F07AC08A330F
:1040000009F481C020F48C3209F073C052C68B339E
:1040100009F44FC68C3309F06CC01FC08091430A6D
:1040200080FD67C081608093430A0E94CC1B813071
:1040300009F43FC608F022C08091420AE82FF0E060
:10404000ED52F04FF0939D10E0939C10885F9181AA
:1040500068E0969F800D112449C08091430A81FF3A
:1040600004C086FD46C0806401C082608093430A1C
:104070000E94CC1B813009F41CC620F0823009F06C
:10408000ACCF1FC68091420AE82FF0E0ED52F04F0E
:10409000F0939D10E0939C10885F918178E0979F4A
:1040A000800D112423C08091430A82FD22C08460C8
:1040B0008093430A8091420A282F30E0F901ED52A3
:1040C000F04F9381992341F0265D3F4F442737FD00
:1040D0004095542F60E015C0F0939D10E0939C1024
:1040E000885F9181E8E09E9F800D11248093420AB1
:1040F00074CF9F012B5A3F40442737FD4095542FE2
:1041000061E084E0DECE0E946E1C019609F0D1C50C
:10411000E091420AF0E0ED52F04F80818638D1F014
:1041200038F48138B9F08538A9F0803899F40FC097
:10413000883839F018F08B3969F406C00E94992B41
:104140000DC00E947E2E0AC00E94540D07C00E941E
:10415000072A04C010929C0F10929B0F80919B0F16
:1041600090919C0F892B09F4A4C5ABC580919B0F3E
:1041700090919C0FC09790939C0F80939B0F8BED19
:104180009FE09093A1108093A010E091420AF0E08C
:10419000ED52F04F86819781892B69F40091420A94
:1041A00010E00D52104FF801E280F380E114F104A9
:1041B00009F47FC506C00E94741C019609F079C5F8
:1041C000EDCF86E691E190939F1080939E103FC0C3
:1041D000888999890097B1F1E816F90699F58A89D5
:1041E0009B89009731F0F801208131812817390728
:1041F00049F588819981892BE1F48A819B81892BFA
:10420000C1F48C819D81892BA1F48E819F81892BA2
:1042100081F488859985892B61F48A859B85892B12
:1042200041F48C859D85892B21F48E859F85892B72
:10423000C1F040E150E0BE0183EB9FE00E94C65612
:10424000009779F06996D0939F10C0939E10C0910B
:104250009E10D0919F10F2E1C239DF0708F4B8CF69
:1042600028C51092A3101092A21082E080939B1098
:104270008BED9FE09093A1108093A01090939E0FE0
:1042800080939D0F10926511109264110E94612914
:104290008091641190916511009709F40AC59C0101
:1042A000205D3F4F30939C0F20939B0F0896909377
:1042B000AF0F28522093B00FE0919E10F0919F1005
:1042C00024892093B20F21E12093B10FA091420ADB
:1042D000B0E0AD52B04F98278927982715969C9348
:1042E0008E93149717961C921E9216978089918927
:1042F00011969C938E938289938913969C938E93A7
:10430000129780E1A3ECBFE001900D928A95E1F74E
:1043100063EC7FE083EB9FE00E94E13D87EE9FE04E
:104320009093A1108093A010C091420AD0E0CD528A
:10433000D04F0E94741C809590959F838E83E0914E
:10434000420AF0E0ED52F04F86819781892B09F007
:10435000A6C48FEF9FEF97838683A1C40E94711C30
:10436000019609F0A6C40091420A10E00D52104FC8
:10437000F801E280F380E114F10409F49AC4A0800A
:10438000B180A114B10409F494C479ECC72E70E192
:10439000D72EC4EAD0E1F60190809920A1F0888957
:1043A0009989E816F90679F48A899B89A816B906CD
:1043B00051F440E150E0BE0183EB9FE00E94C656FD
:1043C000009709F44EC1AC96FCE2CF0ED11C21E15E
:1043D000C435D20701F7F80185858F738230B9F4AF
:1043E000F0924C0AE0924B0A20E00DC0E22FF0E080
:1043F000EE0FFF1FEC5AFE4E808191812F5FE81671
:10440000F90609F453C0283088F32093440AE09158
:10441000420AF0E0ED52F04F858582FD4AC484E106
:1044200085878CE390E090939C0F80939B0F80E5B1
:104430008487878193859783368192859683328797
:10444000258191859583218794819093440A4085A5
:10445000448390878F5F838781110CC0832F8F5F88
:104460008287811107C0822F8F5F8187811102C0EF
:104470009F5F90878081918190934C0A80934B0A33
:1044800022813381318320839383828380E1E3EB34
:10449000FFE0A3ECBFE001900D928A95E1F763EC99
:1044A0007FE083EB9FE00E94E13DDAC31092440A73
:1044B00020E0C0E0D0E03CE220C0822F90E0389FB6
:1044C000F001399FF00D1124EC55FF4E45A141112B
:1044D00004C02093440AEF0114C0473069F42097C8
:1044E00021F056A14EA1451738F4389FE001399FBD
:1044F000D00D1124CC55DF4E2F5F2430F0F22093E5
:10450000440A209709F4D5C3D093A310C093A210F6
:1045100083E08EA38CA31AA284E08BA31FA2F801D0
:1045200082819381998B888B808191819B8B8A8BEF
:1045300080E1E3EBFFE0DE0101900D928A95E1F767
:1045400081E08DA38091470A888F8091480A898FE6
:104550008091490A8A8F80914A0A8B8F81E090E08E
:104560009D8F8C8FF80187818F8B86818E8B8581C3
:104570008D8B84818C8B81E090E00E94B255E0911C
:10458000420AF0E0ED52F04F8485282F207F30E082
:10459000213531050CF447C082958F7090E0059766
:1045A000880F991F880F991F50914D0A40E032C023
:1045B000F901E555F04F54AD511105C04093440A3F
:1045C00010924D0A30C0513011F44F5F23C0523069
:1045D000C9F465AD6430B1F44093440A50934D0A78
:1045E00096AD80E027AD822B90934C0A80934B0AC6
:1045F0008133910510F080E390E09F8F8E8F99A317
:1046000088A311C0F901E851F04F2081211101C0A8
:1046100006C0420F242F30E0281739074CF2409390
:10462000440A50934D0AE091420AF0E0ED52F04FF7
:1046300080E18587E091420AF0E0ED52F04F8585F8
:104640008260858782E0848B84E0858B168A80E394
:10465000878B80E490E090939C0F80939B0F80E683
:10466000C2C2D093A310C093A21010929B10F80165
:10467000258522FF03C01DA280E24DC2F8013485CA
:1046800032953F70330F330F3093440A80919B0F64
:1046900090919C0F8897831B910990939C0F809316
:1046A0009B0F392D3F70323029F4322F3F73323156
:1046B00039F41FC0313021F4322F3F733230C9F04A
:1046C000892B19F4822F8370A1F0F80194818C89D1
:1046D00098130CC095818D89981308C096818E8996
:1046E000981304C097818F89981719F021FD9BCFEB
:1046F00067C224FF4BC06C8D7D8D6115710509F477
:1047000045C0CE0148960E941C1CE091420AF0E090
:10471000ED52F04F308580919F0F381337C02185BF
:104720008091A00F281332C092858091A10F981319
:104730002DC083854091A20F841328C0388F298F04
:104740009A8F8B8F8FA181111AC02AA18CA19EA153
:10475000891B922F969596959695891B280F2AA3CB
:1047600087FD81959BA1392F36953695931B980F20
:104770009BA3822F869586958695890F8CA381E0D1
:1047800080939B108CA18EA31D8E1C8E4DA1842F17
:104790008F70843009F4C4C140F48230A9F108F06C
:1047A000BAC0813009F085C20CC0863009F400C25D
:1047B00008F4DAC1873009F403C2883009F079C2FD
:1047C000A4C180919B1080FF14C083E08DA380E47E
:1047D00080939B101D8E1C8E80919B0F90919C0F3F
:1047E000009709F41CC122E420939B100E94B2554B
:1047F00016C1E091420AF0E0ED52F04F85858F73CB
:10480000823009F056C20FCF80919B1080FF78C094
:10481000E091420AF0E0ED52F04F85858F738231CE
:1048200009F06EC08485282F207F30E021353105C6
:104830000CF44EC082958F7090E00597880F991FF9
:10484000880F991F50914D0A40E039C0D901A555F4
:10485000B04FDC965C91DC97511105C04093440A3F
:1048600010924D0A35C0513011F44F5F28C05230BC
:10487000F1F4DD966C91DD976430C9F44093440AFD
:1048800050934D0ADE969C91DE9780E0DF962C9146
:10489000822B90934C0A80934B0A8133910510F040
:1048A00080E390E09F8F8E8F99A388A311C0D901D8
:1048B000A851B04F2C91211101C006C0420F242FE6
:1048C00030E02817390714F24093440A50934D0AF8
:1048D00083E08DA384818C8B85818D8B86818E8BEB
:1048E00087818F8B81E090E00E94B25582E48093B3
:1048F0009B101D8E1C8E10929C0F10929B0F8FC0D0
:1049000080E280939B100E946129E091A210F091B7
:10491000A31015A27CCDE091420AF0E0ED52F04FD9
:10492000858580FF2DC044FD2BC08C8D9D8D892BEE
:1049300009F0BFC180919B0F90919C0F01960E943E
:10494000B25520919B10822F806180939B108091A3
:104950009B0F90919C0F892B19F0226120939B1043
:104960000E94612981E090E09D8F8C8F88E08DA36B
:104970001FA2E091420AF0E0ED52F04F81E126C122
:1049800085FF1AC0928980E02389BC01622B9B01BC
:104990008091A0109091A110820F931F9093A1106D
:1049A0008093A01080919B0F90919C0F821B930B82
:1049B00090939C0F80939B0F80919B0F90919C0FE5
:1049C000009749F044FD07C020919B10226020937E
:1049D0009B100E94B255E091420AF0E0ED52F04F78
:1049E000968580E02785820F911D90934C0A8093D5
:1049F0004B0A28A139A12817390710F0892B21F477
:104A000030934C0A20934B0A80914B0A90914C0AA8
:104A10009F8F8E8F80919B10837009F44AC11092F2
:104A20006511109264110E94612980919B1085FF8D
:104A30000CC010926511109264111DA2E091420AFF
:104A4000F0E0ED52F04F84E1C1C084FF0AC0109243
:104A500065111092641181E090E09D8F8C8F84E04D
:104A600086CF209164113091651121153105E1F057
:104A700080FF02C01D8E1C8E8C8D9D8D009781F451
:104A80008E8D9F8D8217930720F4909365118093EC
:104A9000641180916411909165119D8F8C8F04C079
:104AA00090936511809364111FA280919D0F909146
:104AB0009E0F9093A1108093A0108091641190910B
:104AC0006511892B81F08C8D9D8D009761F0CC96BE
:104AD00090939C0F80939B0FE091420AF0E0ED527F
:104AE000F04F88E110C080919B1081FFE2C08CE301
:104AF00090E090939C0F80939B0FE091420AF0E02E
:104B0000ED52F04F80E1858768C080919B1080FF57
:104B1000D0C01DA280E180939B100E946129C9C072
:104B200080919B0F90919C0F009711F00E94B255BD
:104B3000E091420AF0E0ED52F04F958580919B1094
:104B400090FF0BC080FF06C087E08DA31EA21D8EC4
:104B50001C8E1DC086E08DA31AC080FF22C085E098
:104B60008DA31D8E1C8EA5C080919B0F90919C0FD4
:104B7000009711F00E94B255E091420AF0E0ED5228
:104B8000F04F858580FF0DC087E08DA31EA281E0D8
:104B900090E00E94B25580E180939B100E946129B1
:104BA0000FC080919B0F90919C0F892B49F481C07D
:104BB00080919B1080FF7DC087E08DA31EA279C0ED
:104BC000E091420AF0E0ED52F04F80E185878CE3FE
:104BD00090E090939C0F80939B0FE091420AF0E04D
:104BE000ED52F04F80E58487E091420AF0E0ED520B
:104BF000F04F8C8980878D8981878E8982878F8904
:104C00008387888D8483898D85838A8D86838B8D28
:104C1000878386E08093B10F888999899183808307
:104C20008A899B899383828380E1FE01A3ECBFE0A4
:104C300001900D928A95E1F763EC7FE083EB9FE0B2
:104C40000E94E13D8DA1E091420AF0E0ED52F04F6B
:104C500084FF03C01786168603C0168680E3878705
:104C60008091A9128093B20F80919B0F90919C0F1D
:104C70009C01285231093093AF0F88528093B00FB6
:104C8000C091420AD0E0CD52D04F1B8A1A8A198AAD
:104C9000188A0E94711C80959095998B888B80E66C
:104CA0008093AB0F1092AC0F1092AE0F1092AD0F1D
:104CB00008C010929C0F10929B0F1092420A109203
:104CC000430A10929B10DF91CF911F910F91FF909B
:104CD000EF90DF90CF90BF90AF909F900895382FC6
:104CE000292FC90108950E9460560895E0919D0FF3
:104CF000F0919E0F4BE950E14E1B5F0B9B01461755
:104D000057070CF49A011216130664F420936411E9
:104D1000309365118E179F0729F0A901BC01CF01BF
:104D20000C94D356089583E79AE00E941516892BB8
:104D300021F083E79AE00C9402160895E0914E0A60
:104D4000F0914F0A309709F0099480E0089590930C
:104D50004F0A80934E0A0895209191053091920553
:104D600060E0E1E5FAE012C040815181481759073F
:104D700059F4428153814217530731F460937C0AFE
:104D8000118210820C94971D34966F5F683060F327
:104D900060937C0A089540E0E1E5FAE014C0542FE6
:104DA0005F5F20813181232B61F440937D0A9183E1
:104DB00080832091910530919205338322830C9456
:104DC000B11D3496452F483050F340937D0A089525
:104DD0002091910530919205FC0131A720A773A77E
:104DE00062A708952091910530919205FC01368BC0
:104DF000258B708F678B0895CF93DF93EA010E9414
:104E0000361DFC01009741F080919105909192052B
:104E1000968B858BD08FC78BCF01DF91CF91089573
:104E20000F931F93CF93DF93CDB7DEB760970FB685
:104E3000F894DEBF0FBECDBF8C01AB018FEF92E0C7
:104E40009A8389831C821B821E821D8218861F8280
:104E50001A8619861C861B861E861D8680E091E0B8
:104E6000988B8F87B801CE0101960E94FC26FC0129
:104E7000009711F0118B008BCF0160960FB6F8945C
:104E8000DEBF0FBECDBFDF91CF911F910F9108956F
:104E900040E050E062E08AE492E00E948E131092BB
:104EA0009C0F10929B0F1092420A08950F931F932C
:104EB000CF93DF9380919B0F90919C0F009709F403
:104EC000C3C08130954008F0B0C08091C30F90916D
:104ED000C40F892B59F58091C50F9091C60F892B6E
:104EE00029F58091C70F9091C80F892BF9F4809113
:104EF000C90F9091CA0F892BC9F48091CB0F909163
:104F0000CC0F892B99F48091CD0F9091CE0F892BE6
:104F100069F48091CF0F9091D00F892B39F4809153
:104F2000D10F9091D20F892B09F47FC08091C30FCC
:104F30008F3F09F47FC083EC9FE00E94F23A811119
:104F400010C083EC9FE00E940D3D009731F40E9459
:104F5000463A8C01009739F468C08C010D5E1F4FF2
:104F600002C003EC1FE0C8010E94B639EC010097B3
:104F7000A1F520E040E060E070E0C8010E941E3929
:104F8000EC01009709F451C083EB9FE00E94223BA3
:104F9000AE014F5F5F4F60E070E0892B19F083EB4B
:104FA0009FE002C080E090E00E94B42D6091B212B8
:104FB0007091B3128091B4129091B51228EE33E043
:104FC00040E050E00E943E56BA01A901CE01819610
:104FD0000E94A41781E08BA72DC08DA58823A1F185
:104FE000823059F483E08DA745E050E060E070E046
:104FF000CE0149960E94A4171BA66091B21270912F
:10500000B3128091B4129091B51228EE33E040E0D3
:1050100050E00E943E56BA01A901CE0181960E943D
:10502000A417CE0141960E949E2610929C0F1092CA
:105030009B0F0AC080E090E00E949E2610929C0F79
:1050400010929B0F1092420ADF91CF911F910F9106
:105050000895EF92FF920F931F93CF93DF937C01FC
:10506000EA01FC0180819181009729F08C30934006
:1050700009F0E3C0E7C080E024E0829FF001112442
:10508000EF5AF54F118210828F5F8830A8F380931A
:10509000500A80919105909192059093720A8093A5
:1050A000710A0E94DA128093921260E470E083E742
:1050B0009AE00E94EE150E94771C0E94484D8CE0F9
:1050C00093E0F7019183808381E0CDC010927B0A49
:1050D00001E51AE016C0F801828193818C179D07C3
:1050E00049F4808191810E94971DF80111821082FC
:1050F000138212820C5F1F4F80917B0A8F5F809317
:105100007B0A80917B0A883030F3E9ECF0E18381FF
:1051100094818C179D0719F4148213821082BC9617
:1051200021E1E937F20799F7E6E6F1E18589968909
:105130008C179D0711F4118A108A799682E1E23961
:10514000F807A1F7BCCF9AE0C337D90729F0C55EAD
:10515000D34109F0B4CF30C083E79AE00E9415161E
:10516000892BA9F310927B0A1CE221C01E9FF0013B
:105170001124EC55FF4E85A18823A1F083E79AE026
:105180000E94021680917B0A189FC00111248C5541
:105190009F4E9093A3108093A21082E00E94CA1D9C
:1051A0000E94562780917B0A8F5F80937B0AE09153
:1051B0007B0AE430D8F2CBCF85EE93E10E9415163E
:1051C000892B09F47CCF0E94833E34C0209709F4D8
:1051D00076CFD093A310C093A21083E00E94CA1D83
:1051E0000E9456270E9493266ACF209709F467CF22
:1051F000D0939F10C0939E1085E00E94CA1D1AC0D4
:1052000080919B0F90919C0F892B09F458CF80912E
:10521000B10F863029F48091E00F81FD0E94932622
:1052200081E00E94CA1D80919B0F90919C0F892B59
:1052300009F445CF0E94562742CFF7011182108210
:1052400083E011C06230E1F238F4662309F4BECF86
:10525000613009F034CFC9CF673809F437CF6838E7
:1052600009F02DCF70CFDF91CF911F910F91FF905B
:10527000EF900895AC0161E08AE492E00C9467132A
:10528000AC0160E08AE492E00C9467130F931F93E3
:10529000CF93DF938A010E94A51CEC01009759F07F
:1052A000809191059091920599A788A71BA70AA7BD
:1052B000CE010E944029CE01DF91CF911F910F9125
:1052C0000895CF93DF93A091A210B091A3101097EF
:1052D00019F0ED01A89605C0C0919E10D0919F10C5
:1052E000659680919B1086FF22C010927E0A40E056
:1052F000E1E5FAE016C02081318150968D919C91B4
:1053000051972817390759F482819381009739F012
:1053100040937E0A998388831B821A8206C0349642
:105320004F5F483040F340937E0A0E949326888165
:105330009981009741F04A815B8160919212DF91DF
:10534000CF910C948E13DF91CF91089590939F107D
:1053500080939E104093641150936511EBEDFFE034
:105360009A01413F510514F020EF30E0A901CF012F
:105370000E94D35684E00E94CA1D0E9456271092B4
:105380006511109264110895CF92DF92EF92FF920F
:105390000F931F93CF93DF93CDB7DEB760970FB610
:1053A000F894DEBF0FBECDBF7C0180E1F701DE01C6
:1053B000119601900D928A95E1F7F701C288D38882
:1053C00080E1F901D70101900D928A95E1F7F7018B
:1053D000138B028BC7010E94A62980E1FE01319642
:1053E000D70101900D928A95E1F7F701D38AC28A1D
:1053F00060960FB6F894DEBF0FBECDBFDF91CF91A0
:105400001F910F91FF90EF90DF90CF9008958091C2
:10541000A9128093B20F8091C30F8F3F81F480E176
:10542000E3EBFFE0A3ECBFE001900D928A95E1F77A
:1054300063EC7FE083EB9FE00E94E13D1BC080E1D5
:10544000E3EBFFE0AFE7BAE001900D928A95E1F758
:1054500080E1E3ECFFE0A3EBBFE001900D928A95C1
:10546000E1F780E1EFE7FAE0A3ECBFE001900D92F5
:105470008A95E1F76091420A6623F1F08AE380930E
:10548000B10F70E040919B0F50919C0F461B570B42
:1054900050939C0F40939B0FCA0188979093AF0F36
:1054A000842F88528093B00F4C5251096952704F2B
:1054B00087ED9FE00E94DC561092420A81E88093BB
:1054C000D30F1092D40F1092D60F1092D50F0E94C6
:1054D0006E1C809590959093D60F8093D50F08956C
:1054E000CF92DF92EF92FF920F931F93CF93DF93B0
:1054F000082F162F69017A011092420A8091B10F8C
:105500008A3321F48091D30F87FFAEC080E1E3ECB2
:10551000FFE0AFE7BAE001900D928A95E1F72091A4
:105520009B0F30919C0F205D3F4F213085E0380765
:1055300028F430939C0F20939B0F06C080E095E0E9
:1055400090939C0F80939B0F40919B0F50919C0FC9
:10555000405351096BEA7FE08BED9FE00E94DC56DF
:1055600080E68093AB0F1092AC0F1092AE0F1092AA
:10557000AD0F8AE38093B10F8091A9128093B20F8F
:105580008091B30F9091B40F892B59F58091B50F8D
:105590009091B60F892B29F58091B70F9091B80F94
:1055A000892BF9F48091B90F9091BA0F892BC9F426
:1055B0008091BB0F9091BC0F892B99F48091BD0F06
:1055C0009091BE0F892B69F42091BF0F3091C00FCD
:1055D000232B39F42091C10F3091C20F232B09F4F2
:1055E00043C080E1E3EBFFE0A3ECBFE001900D924C
:1055F0008A95E1F780917F0A8F3F21F40430A1F56D
:10560000123091F56FE77AE083EB9FE00E94E13D75
:10561000C091420AD0E0FE01ED52F04F00831183A9
:10562000C701B6010E947326C952D04F688379839F
:105630008A839B8380919B0F90919C0F9C012852A1
:1056400031093093AF0F88528093B00FC091420A56
:10565000D0E0CD52D04F1B821A820E946E1C8095E2
:1056600090959B838A8304C010929C0F10929B0F8D
:10567000DF91CF911F910F91FF90EF90DF90CF902E
:105680000895CF92DF92FF920F931F93CF93DF93F2
:105690001F92CDB7DEB7F62E890120E62093AB0F1F
:1056A0001092AC0F1092AE0F1092AD0F2AE3209320
:1056B000B10F2091A9122093B20F98012C5F3F4F98
:1056C0003093AF0F202F2C5F2093B00F20E1FC010F
:1056D000A3ECBFE001900D922A95E1F763EC7FE027
:1056E00083EB9FE049830E94E13DC090420AD12CA8
:1056F00083ED9FE0C80ED91EF601F08249814183F7
:10570000138212820E946E1C80959095F6019383FD
:105710008283045D1F4F10939C0F00939B0F0F908B
:10572000DF91CF911F910F91FF90DF90CF900C945C
:105730005627CF92DF92EF92FF920F931F93CF9352
:10574000DF938091B20F8F3F09F001C28091420A2E
:1057500090E0FC01E952F04F24812F3F09F4F7C19A
:10576000FC01ED52F04F81818111F1C11092900A3C
:1057700010928F0A84E18093910A82E0D82E98E0FB
:10578000C92E83C0E555F04F8181882309F4DFC11C
:105790008081813009F068C0F093900AE0938F0A0D
:1057A0008091B30F9091B40F892B59F58091B50F6B
:1057B0009091B60F892B29F58091B70F9091B80F72
:1057C000892BF9F48091B90F9091BA0F892BC9F404
:1057D0008091BB0F9091BC0F892B99F48091BD0FE4
:1057E0009091BE0F892B69F48091BF0F9091C00FEB
:1057F000892B39F48091C10F9091C20F892B09F444
:10580000A6C183EB9FE00E94B639EC019093930A06
:105810008093920AE0908F0AF090900A009751F4DA
:10582000B7016E5F7F4F22E040E083EB9FE00E9474
:105830001E391AC08C010F5E1F4F22E0E20EF11CD0
:1058400048E050E0B801C7010E94C656009741F0F9
:10585000F701D8018C2D01900D928A95E1F703C0D4
:105860008DA5811101C0DDA68091910AE091420AC7
:10587000F0E0BC96E80FF11DE555F04F9181A8E0EE
:105880009A9F800D11248093910A8091420A90E0A2
:105890008C962091910AFC01E20FF11D20919B0F43
:1058A00030919C0FE217F30708F46CCF8155904FAD
:1058B0000E94223B9093950A8093940A009709F4E2
:1058C00046C12091B30F3091B40F232B09F098C03B
:1058D0002091B50F3091B60F232B09F091C0209184
:1058E000B70F3091B80F232B09F08AC02091B90F60
:1058F0003091BA0F232B09F083C02091BB0F309158
:10590000BC0F232B09F07CC02091BD0F3091BE0F3E
:10591000232B09F075C02091BF0F3091C00F232BAE
:1059200009F06EC02091C10F3091C20F232B09F0F6
:1059300067C02091C30F2F3F09F009C12091C40F08
:10594000223009F004C12091C50F3091C60F232BDE
:1059500009F0FDC02091C70F3091C80F232B09F02B
:10596000F6C02091C90F3091CA0F232B09F0EFC068
:105970002091CB0F3091CC0F232B09F0E8C0209160
:10598000CD0F2111E4C02091CE0F213009F0DFC0EE
:105990002091CF0F2F3F09F0DAC0FC01218922238B
:1059A00061F18FEF92E09093C40F8093C30F109238
:1059B000C60F1092C50F1092C80F1092C70F109209
:1059C000CA0F1092C90F1092CC0F1092CB0F1092E9
:1059D000CE0F1092CD0F1092D00F1092CF0F80E00B
:1059E00091E09093D20F8093D10F63EC7FE083EB33
:1059F0009FE00E94E13D80E259C00E949B3FA7C00A
:105A000083EB9FE00E94223B892B09F0A0C080918C
:105A1000C30F8F3F49F58091C40F823029F58091E3
:105A2000C50F9091C60F892BF9F48091C70F909103
:105A3000C80F892BC9F48091C90F9091CA0F892B87
:105A400099F48091CB0F9091CC0F892B69F48091C0
:105A5000CD0F811109C08091CE0F813029F4809142
:105A6000CF0F8F3F09F40CC083EC9FE00E94223BD4
:105A70002091940A3091950A2817390709F067C0D8
:105A800080E1E3EBFFE0A3ECBFE001900D928A958B
:105A9000E1F7E091420AF0E080E1E552F04FA3EB3C
:105AA000BFE001900D928A95E1F780E61092420ADC
:105AB00090E69093AB0F1092AC0F1092AE0F109235
:105AC000AD0F1092AF0F98E29093B00F9AE39093BE
:105AD000B10F9FEF9093B20F98E89093D30F10926D
